{
  "contractName": "PatientRegistration",
  "abi": [
    {
      "anonymous": false,
      "inputs": [
        {
          "indexed": false,
          "internalType": "string",
          "name": "hhNumber",
          "type": "string"
        },
        {
          "indexed": false,
          "internalType": "string",
          "name": "name",
          "type": "string"
        },
        {
          "indexed": false,
          "internalType": "address",
          "name": "walletAddress",
          "type": "address"
        }
      ],
      "name": "PatientRegistered",
      "type": "event"
    },
    {
      "anonymous": false,
      "inputs": [
        {
          "indexed": false,
          "internalType": "string",
          "name": "hhNumber",
          "type": "string"
        },
        {
          "indexed": false,
          "internalType": "uint256",
          "name": "recordId",
          "type": "uint256"
        },
        {
          "indexed": false,
          "internalType": "string",
          "name": "date",
          "type": "string"
        },
        {
          "indexed": false,
          "internalType": "string",
          "name": "doctor",
          "type": "string"
        }
      ],
      "name": "RecordAdded",
      "type": "event"
    },
    {
      "anonymous": false,
      "inputs": [
        {
          "indexed": false,
          "internalType": "string",
          "name": "hhNumber",
          "type": "string"
        },
        {
          "indexed": false,
          "internalType": "string",
          "name": "cid",
          "type": "string"
        }
      ],
      "name": "RecordUploaded",
      "type": "event"
    },
    {
      "inputs": [
        {
          "internalType": "string",
          "name": "",
          "type": "string"
        },
        {
          "internalType": "string",
          "name": "",
          "type": "string"
        }
      ],
      "name": "doctorPermissions",
      "outputs": [
        {
          "internalType": "bool",
          "name": "",
          "type": "bool"
        }
      ],
      "stateMutability": "view",
      "type": "function",
      "constant": true
    },
    {
      "inputs": [
        {
          "internalType": "string",
          "name": "",
          "type": "string"
        }
      ],
      "name": "isDoctorRegistered",
      "outputs": [
        {
          "internalType": "bool",
          "name": "",
          "type": "bool"
        }
      ],
      "stateMutability": "view",
      "type": "function",
      "constant": true
    },
    {
      "inputs": [
        {
          "internalType": "string",
          "name": "",
          "type": "string"
        }
      ],
      "name": "isPatientRegistered",
      "outputs": [
        {
          "internalType": "bool",
          "name": "",
          "type": "bool"
        }
      ],
      "stateMutability": "view",
      "type": "function",
      "constant": true
    },
    {
      "inputs": [
        {
          "internalType": "string",
          "name": "",
          "type": "string"
        }
      ],
      "name": "patients",
      "outputs": [
        {
          "internalType": "address",
          "name": "walletAddress",
          "type": "address"
        },
        {
          "internalType": "string",
          "name": "name",
          "type": "string"
        },
        {
          "internalType": "string",
          "name": "dateOfBirth",
          "type": "string"
        },
        {
          "internalType": "string",
          "name": "gender",
          "type": "string"
        },
        {
          "internalType": "string",
          "name": "bloodGroup",
          "type": "string"
        },
        {
          "internalType": "string",
          "name": "homeAddress",
          "type": "string"
        },
        {
          "internalType": "string",
          "name": "email",
          "type": "string"
        },
        {
          "internalType": "string",
          "name": "hhNumber",
          "type": "string"
        },
        {
          "internalType": "string",
          "name": "password",
          "type": "string"
        }
      ],
      "stateMutability": "view",
      "type": "function",
      "constant": true
    },
    {
      "inputs": [],
      "name": "registeredPatientCount",
      "outputs": [
        {
          "internalType": "uint256",
          "name": "",
          "type": "uint256"
        }
      ],
      "stateMutability": "view",
      "type": "function",
      "constant": true
    },
    {
      "inputs": [
        {
          "internalType": "address",
          "name": "_walletAddress",
          "type": "address"
        },
        {
          "internalType": "string",
          "name": "_name",
          "type": "string"
        },
        {
          "internalType": "string",
          "name": "_dateOfBirth",
          "type": "string"
        },
        {
          "internalType": "string",
          "name": "_gender",
          "type": "string"
        },
        {
          "internalType": "string",
          "name": "_bloodGroup",
          "type": "string"
        },
        {
          "internalType": "string",
          "name": "_homeAddress",
          "type": "string"
        },
        {
          "internalType": "string",
          "name": "_email",
          "type": "string"
        },
        {
          "internalType": "string",
          "name": "_hhNumber",
          "type": "string"
        },
        {
          "internalType": "string",
          "name": "_password",
          "type": "string"
        }
      ],
      "name": "registerPatient",
      "outputs": [],
      "stateMutability": "nonpayable",
      "type": "function"
    },
    {
      "inputs": [
        {
          "internalType": "string",
          "name": "_hhNumber",
          "type": "string"
        }
      ],
      "name": "isRegisteredPatient",
      "outputs": [
        {
          "internalType": "bool",
          "name": "",
          "type": "bool"
        }
      ],
      "stateMutability": "view",
      "type": "function",
      "constant": true
    },
    {
      "inputs": [
        {
          "internalType": "string",
          "name": "_hhNumber",
          "type": "string"
        },
        {
          "internalType": "string",
          "name": "_password",
          "type": "string"
        }
      ],
      "name": "validatePassword",
      "outputs": [
        {
          "internalType": "bool",
          "name": "",
          "type": "bool"
        }
      ],
      "stateMutability": "view",
      "type": "function",
      "constant": true
    },
    {
      "inputs": [
        {
          "internalType": "string",
          "name": "_hhNumber",
          "type": "string"
        }
      ],
      "name": "getPatientDetails",
      "outputs": [
        {
          "internalType": "address",
          "name": "walletAddress",
          "type": "address"
        },
        {
          "internalType": "string",
          "name": "name",
          "type": "string"
        },
        {
          "internalType": "string",
          "name": "dateOfBirth",
          "type": "string"
        },
        {
          "internalType": "string",
          "name": "gender",
          "type": "string"
        },
        {
          "internalType": "string",
          "name": "bloodGroup",
          "type": "string"
        },
        {
          "internalType": "string",
          "name": "homeAddress",
          "type": "string"
        },
        {
          "internalType": "string",
          "name": "email",
          "type": "string"
        }
      ],
      "stateMutability": "view",
      "type": "function",
      "constant": true
    },
    {
      "inputs": [
        {
          "internalType": "string",
          "name": "_patientNumber",
          "type": "string"
        },
        {
          "internalType": "string",
          "name": "_doctorNumber",
          "type": "string"
        },
        {
          "internalType": "string",
          "name": "_patientName",
          "type": "string"
        }
      ],
      "name": "grantPermission",
      "outputs": [],
      "stateMutability": "nonpayable",
      "type": "function"
    },
    {
      "inputs": [
        {
          "internalType": "string",
          "name": "patientHhNumber",
          "type": "string"
        },
        {
          "internalType": "string",
          "name": "doctorHhNumber",
          "type": "string"
        }
      ],
      "name": "grantDoctorPermission",
      "outputs": [],
      "stateMutability": "nonpayable",
      "type": "function"
    },
    {
      "inputs": [
        {
          "internalType": "string",
          "name": "_patientNumber",
          "type": "string"
        },
        {
          "internalType": "string",
          "name": "_doctorNumber",
          "type": "string"
        }
      ],
      "name": "isPermissionGranted",
      "outputs": [
        {
          "internalType": "bool",
          "name": "",
          "type": "bool"
        }
      ],
      "stateMutability": "view",
      "type": "function",
      "constant": true
    },
    {
      "inputs": [
        {
          "internalType": "string",
          "name": "_doctorNumber",
          "type": "string"
        }
      ],
      "name": "getPatientList",
      "outputs": [
        {
          "components": [
            {
              "internalType": "string",
              "name": "patient_number",
              "type": "string"
            },
            {
              "internalType": "string",
              "name": "patient_name",
              "type": "string"
            }
          ],
          "internalType": "struct PatientRegistration.PatientList[]",
          "name": "",
          "type": "tuple[]"
        }
      ],
      "stateMutability": "view",
      "type": "function",
      "constant": true
    },
    {
      "inputs": [
        {
          "internalType": "string",
          "name": "_hhNumber",
          "type": "string"
        },
        {
          "internalType": "string",
          "name": "_date",
          "type": "string"
        },
        {
          "internalType": "string",
          "name": "_description",
          "type": "string"
        },
        {
          "internalType": "string",
          "name": "_doctor",
          "type": "string"
        }
      ],
      "name": "addPatientRecord",
      "outputs": [],
      "stateMutability": "nonpayable",
      "type": "function"
    },
    {
      "inputs": [
        {
          "internalType": "string",
          "name": "_hhNumber",
          "type": "string"
        }
      ],
      "name": "getPatientRecords",
      "outputs": [
        {
          "components": [
            {
              "internalType": "uint256",
              "name": "id",
              "type": "uint256"
            },
            {
              "internalType": "string",
              "name": "date",
              "type": "string"
            },
            {
              "internalType": "string",
              "name": "description",
              "type": "string"
            },
            {
              "internalType": "string",
              "name": "doctor",
              "type": "string"
            }
          ],
          "internalType": "struct PatientRegistration.Record[]",
          "name": "",
          "type": "tuple[]"
        }
      ],
      "stateMutability": "view",
      "type": "function",
      "constant": true
    },
    {
      "inputs": [
        {
          "internalType": "string",
          "name": "hhNumber",
          "type": "string"
        },
        {
          "internalType": "string",
          "name": "cid",
          "type": "string"
        }
      ],
      "name": "uploadRecord",
      "outputs": [],
      "stateMutability": "nonpayable",
      "type": "function"
    },
    {
      "inputs": [
        {
          "internalType": "string",
          "name": "hhNumber",
          "type": "string"
        }
      ],
      "name": "getFileRecords",
      "outputs": [
        {
          "internalType": "string[]",
          "name": "",
          "type": "string[]"
        }
      ],
      "stateMutability": "view",
      "type": "function",
      "constant": true
    },
    {
      "inputs": [
        {
          "internalType": "string",
          "name": "hhNumber",
          "type": "string"
        },
        {
          "internalType": "uint256",
          "name": "index",
          "type": "uint256"
        }
      ],
      "name": "deleteFileRecord",
      "outputs": [],
      "stateMutability": "nonpayable",
      "type": "function"
    },
    {
      "inputs": [],
      "name": "getAllPatients",
      "outputs": [
        {
          "components": [
            {
              "internalType": "address",
              "name": "walletAddress",
              "type": "address"
            },
            {
              "internalType": "string",
              "name": "name",
              "type": "string"
            },
            {
              "internalType": "string",
              "name": "dateOfBirth",
              "type": "string"
            },
            {
              "internalType": "string",
              "name": "gender",
              "type": "string"
            },
            {
              "internalType": "string",
              "name": "bloodGroup",
              "type": "string"
            },
            {
              "internalType": "string",
              "name": "homeAddress",
              "type": "string"
            },
            {
              "internalType": "string",
              "name": "email",
              "type": "string"
            },
            {
              "internalType": "string",
              "name": "hhNumber",
              "type": "string"
            },
            {
              "internalType": "string",
              "name": "password",
              "type": "string"
            }
          ],
          "internalType": "struct PatientRegistration.Patient[]",
          "name": "",
          "type": "tuple[]"
        }
      ],
      "stateMutability": "view",
      "type": "function",
      "constant": true
    },
    {
      "inputs": [
        {
          "internalType": "string",
          "name": "hhNumber",
          "type": "string"
        }
      ],
      "name": "removePatient",
      "outputs": [],
      "stateMutability": "nonpayable",
      "type": "function"
    },
    {
      "inputs": [
        {
          "internalType": "string",
          "name": "doctorHhNumber",
          "type": "string"
        }
      ],
      "name": "registerDoctor",
      "outputs": [],
      "stateMutability": "nonpayable",
      "type": "function"
    }
  ],
  "bytecode": "0x608060405234801561001057600080fd5b50614445806100206000396000f3fe608060405234801561001057600080fd5b50600436106101375760003560e01c80635df67040116100b8578063ac39c72c1161007c578063ac39c72c1461036e578063c6009d841461038c578063d120c10c146103c4578063ea6785ff146103f4578063ea977fc814610410578063f72526411461044657610137565b80635df67040146102a657806377fc3e36146102c25780637babdb26146102f25780638f09ab5b1461032257806391c12f761461033e57610137565b80634f10c6c2116100ff5780634f10c6c2146101f257806355c71ce21461022257806356cf1fc41461023e57806357812a081461025a5780635cd40af51461027657610137565b806302ba45f11461013c5780631238d68d1461016c57806318a231a914610188578063273a47ce146101a657806344334733146101c2575b600080fd5b61015660048036038101906101519190612ced565b610476565b6040516101639190612e77565b60405180910390f35b61018660048036038101906101819190612e99565b6105d8565b005b6101906106d1565b60405161019d919061310a565b60405180910390f35b6101c060048036038101906101bb9190613162565b610ca3565b005b6101dc60048036038101906101d79190612e99565b610e6f565b6040516101e991906131d9565b60405180910390f35b61020c60048036038101906102079190612ced565b610eca565b60405161021991906131d9565b60405180910390f35b61023c60048036038101906102379190612e99565b610f00565b005b61025860048036038101906102539190612ced565b61102d565b005b610274600480360381019061026f9190613220565b61131a565b005b610290600480360381019061028b9190612ced565b6115c5565b60405161029d919061350c565b60405180910390f35b6102c060048036038101906102bb919061352e565b61186d565b005b6102dc60048036038101906102d79190612ced565b611ac1565b6040516102e991906131d9565b60405180910390f35b61030c60048036038101906103079190612e99565b611af7565b60405161031991906131d9565b60405180910390f35b61033c60048036038101906103379190612ced565b611bda565b005b61035860048036038101906103539190612ced565b611c7f565b60405161036591906136db565b60405180910390f35b610376611e20565b604051610383919061370c565b60405180910390f35b6103a660048036038101906103a19190612ced565b611e26565b6040516103bb99989796959493929190613780565b60405180910390f35b6103de60048036038101906103d99190612e99565b6122ea565b6040516103eb91906131d9565b60405180910390f35b61040e60048036038101906104099190613845565b61233c565b005b61042a60048036038101906104259190612ced565b6124d9565b60405161043d979695949392919061391c565b60405180910390f35b610460600480360381019061045b9190612ced565b612aa0565b60405161046d91906131d9565b60405180910390f35b606060008260405161048891906139f1565b908152602001604051809103902060009054906101000a900460ff166104e3576040517f08c379a00000000000000000000000000000000000000000000000000000000081526004016104da90613a54565b60405180910390fd5b6006826040516104f391906139f1565b9081526020016040518091039020805480602002602001604051908101604052809291908181526020016000905b828210156105cd57838290600052602060002001805461054090613aa3565b80601f016020809104026020016040519081016040528092919081815260200182805461056c90613aa3565b80156105b95780601f1061058e576101008083540402835291602001916105b9565b820191906000526020600020905b81548152906001019060200180831161059c57829003601f168201915b505050505081526020019060010190610521565b505050509050919050565b6000826040516105e891906139f1565b908152602001604051809103902060009054906101000a900460ff16610643576040517f08c379a000000000000000000000000000000000000000000000000000000000815260040161063a90613a54565b60405180910390fd5b60068260405161065391906139f1565b9081526020016040518091039020819080600181540180825580915050600190039060005260206000200160009091909190915090816106939190613c80565b507f46072b2e465b4b9e06fdf851c8658c9c10a28e6ce059e04b714e43c359cb550082826040516106c5929190613d52565b60405180910390a15050565b6060600060085467ffffffffffffffff8111156106f1576106f0612bc2565b5b60405190808252806020026020018201604052801561072a57816020015b610717612ad4565b81526020019060019003908161070f5790505b50905060005b600780549050811015610c9b5760026007828154811061075357610752613d89565b5b9060005260206000200160405161076a9190613e3b565b9081526020016040518091039020604051806101200160405290816000820160009054906101000a900473ffffffffffffffffffffffffffffffffffffffff1673ffffffffffffffffffffffffffffffffffffffff1673ffffffffffffffffffffffffffffffffffffffff1681526020016001820180546107ea90613aa3565b80601f016020809104026020016040519081016040528092919081815260200182805461081690613aa3565b80156108635780601f1061083857610100808354040283529160200191610863565b820191906000526020600020905b81548152906001019060200180831161084657829003601f168201915b5050505050815260200160028201805461087c90613aa3565b80601f01602080910402602001604051908101604052809291908181526020018280546108a890613aa3565b80156108f55780601f106108ca576101008083540402835291602001916108f5565b820191906000526020600020905b8154815290600101906020018083116108d857829003601f168201915b5050505050815260200160038201805461090e90613aa3565b80601f016020809104026020016040519081016040528092919081815260200182805461093a90613aa3565b80156109875780601f1061095c57610100808354040283529160200191610987565b820191906000526020600020905b81548152906001019060200180831161096a57829003601f168201915b505050505081526020016004820180546109a090613aa3565b80601f01602080910402602001604051908101604052809291908181526020018280546109cc90613aa3565b8015610a195780601f106109ee57610100808354040283529160200191610a19565b820191906000526020600020905b8154815290600101906020018083116109fc57829003601f168201915b50505050508152602001600582018054610a3290613aa3565b80601f0160208091040260200160405190810160405280929190818152602001828054610a5e90613aa3565b8015610aab5780601f10610a8057610100808354040283529160200191610aab565b820191906000526020600020905b815481529060010190602001808311610a8e57829003601f168201915b50505050508152602001600682018054610ac490613aa3565b80601f0160208091040260200160405190810160405280929190818152602001828054610af090613aa3565b8015610b3d5780601f10610b1257610100808354040283529160200191610b3d565b820191906000526020600020905b815481529060010190602001808311610b2057829003601f168201915b50505050508152602001600782018054610b5690613aa3565b80601f0160208091040260200160405190810160405280929190818152602001828054610b8290613aa3565b8015610bcf5780601f10610ba457610100808354040283529160200191610bcf565b820191906000526020600020905b815481529060010190602001808311610bb257829003601f168201915b50505050508152602001600882018054610be890613aa3565b80601f0160208091040260200160405190810160405280929190818152602001828054610c1490613aa3565b8015610c615780601f10610c3657610100808354040283529160200191610c61565b820191906000526020600020905b815481529060010190602001808311610c4457829003601f168201915b505050505081525050828281518110610c7d57610c7c613d89565b5b60200260200101819052508080610c9390613e81565b915050610730565b508091505090565b600082604051610cb391906139f1565b908152602001604051809103902060009054906101000a900460ff16610d0e576040517f08c379a0000000000000000000000000000000000000000000000000000000008152600401610d0590613a54565b60405180910390fd5b600682604051610d1e91906139f1565b9081526020016040518091039020805490508110610d71576040517f08c379a0000000000000000000000000000000000000000000000000000000008152600401610d6890613f15565b60405180910390fd5b600682604051610d8191906139f1565b90815260200160405180910390206001600684604051610da191906139f1565b908152602001604051809103902080549050610dbd9190613f35565b81548110610dce57610dcd613d89565b5b90600052602060002001600683604051610de891906139f1565b90815260200160405180910390208281548110610e0857610e07613d89565b5b906000526020600020019081610e1e9190613f94565b50600682604051610e2f91906139f1565b9081526020016040518091039020805480610e4d57610e4c61407c565b5b600190038181906000526020600020016000610e699190612b36565b90555050565b600482805160208101820180518482526020830160208501208183528095505050505050818051602081018201805184825260208301602085012081835280955050505050506000915091509054906101000a900460ff1681565b6000818051602081018201805184825260208301602085012081835280955050505050506000915054906101000a900460ff1681565b600082604051610f1091906139f1565b908152602001604051809103902060009054906101000a900460ff16610f6b576040517f08c379a0000000000000000000000000000000000000000000000000000000008152600401610f6290613a54565b60405180910390fd5b600181604051610f7b91906139f1565b908152602001604051809103902060009054906101000a900460ff16610fd6576040517f08c379a0000000000000000000000000000000000000000000000000000000008152600401610fcd906140f7565b60405180910390fd5b6001600483604051610fe891906139f1565b90815260200160405180910390208260405161100491906139f1565b908152602001604051809103902060006101000a81548160ff0219169083151502179055505050565b60008160405161103d91906139f1565b908152602001604051809103902060009054906101000a900460ff16611098576040517f08c379a000000000000000000000000000000000000000000000000000000000815260040161108f90613a54565b60405180910390fd5b6002816040516110a891906139f1565b9081526020016040518091039020600080820160006101000a81549073ffffffffffffffffffffffffffffffffffffffff02191690556001820160006110ee9190612b36565b6002820160006110fe9190612b36565b60038201600061110e9190612b36565b60048201600061111e9190612b36565b60058201600061112e9190612b36565b60068201600061113e9190612b36565b60078201600061114e9190612b36565b60088201600061115e9190612b36565b50506000808260405161117191906139f1565b908152602001604051809103902060006101000a81548160ff0219169083151502179055506000805b6007805490508110156112bd57826040516020016111b891906139f1565b60405160208183030381529060405280519060200120600782815481106111e2576111e1613d89565b5b906000526020600020016040516020016111fc9190613e3b565b60405160208183030381529060405280519060200120036112aa576007600160078054905061122b9190613f35565b8154811061123c5761123b613d89565b5b906000526020600020016007828154811061125a57611259613d89565b5b9060005260206000200190816112709190613f94565b5060078054806112835761128261407c565b5b60019003818190600052602060002001600061129f9190612b36565b9055600191506112bd565b80806112b590613e81565b91505061119a565b50806112fe576040517f08c379a00000000000000000000000000000000000000000000000000000000081526004016112f590614189565b60405180910390fd5b60086000815480929190611311906141a9565b91905055505050565b60008260405161132a91906139f1565b908152602001604051809103902060009054906101000a900460ff1615611386576040517f08c379a000000000000000000000000000000000000000000000000000000000815260040161137d9061421e565b60405180910390fd5b60006040518061012001604052808b73ffffffffffffffffffffffffffffffffffffffff1681526020018a8152602001898152602001888152602001878152602001868152602001858152602001848152602001838152509050806002846040516113f191906139f1565b908152602001604051809103902060008201518160000160006101000a81548173ffffffffffffffffffffffffffffffffffffffff021916908373ffffffffffffffffffffffffffffffffffffffff160217905550602082015181600101908161145b9190613c80565b5060408201518160020190816114719190613c80565b5060608201518160030190816114879190613c80565b50608082015181600401908161149d9190613c80565b5060a08201518160050190816114b39190613c80565b5060c08201518160060190816114c99190613c80565b5060e08201518160070190816114df9190613c80565b506101008201518160080190816114f69190613c80565b50905050600160008460405161150c91906139f1565b908152602001604051809103902060006101000a81548160ff0219169083151502179055506007839080600181540180825580915050600190039060005260206000200160009091909190915090816115659190613c80565b506008600081548092919061157990613e81565b91905055507f319ae3a95b9a410d647835a7e64d54ddf28faf35a698f0a2b63999585fa38edc838a8c6040516115b19392919061423e565b60405180910390a150505050505050505050565b60606000826040516115d791906139f1565b908152602001604051809103902060009054906101000a900460ff16611632576040517f08c379a000000000000000000000000000000000000000000000000000000000815260040161162990613a54565b60405180910390fd5b60058260405161164291906139f1565b9081526020016040518091039020805480602002602001604051908101604052809291908181526020016000905b828210156118625783829060005260206000209060040201604051806080016040529081600082015481526020016001820180546116ad90613aa3565b80601f01602080910402602001604051908101604052809291908181526020018280546116d990613aa3565b80156117265780601f106116fb57610100808354040283529160200191611726565b820191906000526020600020905b81548152906001019060200180831161170957829003601f168201915b5050505050815260200160028201805461173f90613aa3565b80601f016020809104026020016040519081016040528092919081815260200182805461176b90613aa3565b80156117b85780601f1061178d576101008083540402835291602001916117b8565b820191906000526020600020905b81548152906001019060200180831161179b57829003601f168201915b505050505081526020016003820180546117d190613aa3565b80601f01602080910402602001604051908101604052809291908181526020018280546117fd90613aa3565b801561184a5780601f1061181f5761010080835404028352916020019161184a565b820191906000526020600020905b81548152906001019060200180831161182d57829003601f168201915b50505050508152505081526020019060010190611670565b505050509050919050565b60048360405161187d91906139f1565b90815260200160405180910390208260405161189991906139f1565b908152602001604051809103902060009054906101000a900460ff16156118f5576040517f08c379a00000000000000000000000000000000000000000000000000000000081526004016118ec906142f5565b60405180910390fd5b6000805b60038460405161190991906139f1565b9081526020016040518091039020805490508110156119d1578460405160200161193391906139f1565b6040516020818303038152906040528051906020012060038560405161195991906139f1565b9081526020016040518091039020828154811061197957611978613d89565b5b906000526020600020906002020160000160405160200161199a9190613e3b565b60405160208183030381529060405280519060200120036119be57600191506119d1565b80806119c990613e81565b9150506118f9565b5080611a685760006040518060400160405280868152602001848152509050600384604051611a0091906139f1565b90815260200160405180910390208190806001815401808255809150506001900390600052602060002090600202016000909190919091506000820151816000019081611a4d9190613c80565b506020820151816001019081611a639190613c80565b505050505b6001600485604051611a7a91906139f1565b908152602001604051809103902084604051611a9691906139f1565b908152602001604051809103902060006101000a81548160ff02191690831515021790555050505050565b6001818051602081018201805184825260208301602085012081835280955050505050506000915054906101000a900460ff1681565b60008083604051611b0891906139f1565b908152602001604051809103902060009054906101000a900460ff16611b63576040517f08c379a0000000000000000000000000000000000000000000000000000000008152600401611b5a90613a54565b60405180910390fd5b600283604051611b7391906139f1565b9081526020016040518091039020600801604051602001611b949190613e3b565b6040516020818303038152906040528051906020012082604051602001611bbb91906139f1565b6040516020818303038152906040528051906020012014905092915050565b600181604051611bea91906139f1565b908152602001604051809103902060009054906101000a900460ff1615611c46576040517f08c379a0000000000000000000000000000000000000000000000000000000008152600401611c3d90614361565b60405180910390fd5b60018082604051611c5791906139f1565b908152602001604051809103902060006101000a81548160ff02191690831515021790555050565b6060600382604051611c9191906139f1565b9081526020016040518091039020805480602002602001604051908101604052809291908181526020016000905b82821015611e155783829060005260206000209060020201604051806040016040529081600082018054611cf290613aa3565b80601f0160208091040260200160405190810160405280929190818152602001828054611d1e90613aa3565b8015611d6b5780601f10611d4057610100808354040283529160200191611d6b565b820191906000526020600020905b815481529060010190602001808311611d4e57829003601f168201915b50505050508152602001600182018054611d8490613aa3565b80601f0160208091040260200160405190810160405280929190818152602001828054611db090613aa3565b8015611dfd5780601f10611dd257610100808354040283529160200191611dfd565b820191906000526020600020905b815481529060010190602001808311611de057829003601f168201915b50505050508152505081526020019060010190611cbf565b505050509050919050565b60085481565b6002818051602081018201805184825260208301602085012081835280955050505050506000915090508060000160009054906101000a900473ffffffffffffffffffffffffffffffffffffffff1690806001018054611e8590613aa3565b80601f0160208091040260200160405190810160405280929190818152602001828054611eb190613aa3565b8015611efe5780601f10611ed357610100808354040283529160200191611efe565b820191906000526020600020905b815481529060010190602001808311611ee157829003601f168201915b505050505090806002018054611f1390613aa3565b80601f0160208091040260200160405190810160405280929190818152602001828054611f3f90613aa3565b8015611f8c5780601f10611f6157610100808354040283529160200191611f8c565b820191906000526020600020905b815481529060010190602001808311611f6f57829003601f168201915b505050505090806003018054611fa190613aa3565b80601f0160208091040260200160405190810160405280929190818152602001828054611fcd90613aa3565b801561201a5780601f10611fef5761010080835404028352916020019161201a565b820191906000526020600020905b815481529060010190602001808311611ffd57829003601f168201915b50505050509080600401805461202f90613aa3565b80601f016020809104026020016040519081016040528092919081815260200182805461205b90613aa3565b80156120a85780601f1061207d576101008083540402835291602001916120a8565b820191906000526020600020905b81548152906001019060200180831161208b57829003601f168201915b5050505050908060050180546120bd90613aa3565b80601f01602080910402602001604051908101604052809291908181526020018280546120e990613aa3565b80156121365780601f1061210b57610100808354040283529160200191612136565b820191906000526020600020905b81548152906001019060200180831161211957829003601f168201915b50505050509080600601805461214b90613aa3565b80601f016020809104026020016040519081016040528092919081815260200182805461217790613aa3565b80156121c45780601f10612199576101008083540402835291602001916121c4565b820191906000526020600020905b8154815290600101906020018083116121a757829003601f168201915b5050505050908060070180546121d990613aa3565b80601f016020809104026020016040519081016040528092919081815260200182805461220590613aa3565b80156122525780601f1061222757610100808354040283529160200191612252565b820191906000526020600020905b81548152906001019060200180831161223557829003601f168201915b50505050509080600801805461226790613aa3565b80601f016020809104026020016040519081016040528092919081815260200182805461229390613aa3565b80156122e05780601f106122b5576101008083540402835291602001916122e0565b820191906000526020600020905b8154815290600101906020018083116122c357829003601f168201915b5050505050905089565b60006004836040516122fc91906139f1565b90815260200160405180910390208260405161231891906139f1565b908152602001604051809103902060009054906101000a900460ff16905092915050565b60008460405161234c91906139f1565b908152602001604051809103902060009054906101000a900460ff166123a7576040517f08c379a000000000000000000000000000000000000000000000000000000000815260040161239e90613a54565b60405180910390fd5b600060016005866040516123bb91906139f1565b9081526020016040518091039020805490506123d79190614381565b90506000604051806080016040528083815260200186815260200185815260200184815250905060058660405161240e91906139f1565b90815260200160405180910390208190806001815401808255809150506001900390600052602060002090600402016000909190919091506000820151816000015560208201518160010190816124659190613c80565b50604082015181600201908161247b9190613c80565b5060608201518160030190816124919190613c80565b5050507fb283fa20a5a3f94da8be40e4f7a6330f64a2487bf0a951686751be5bf73d6b18868387866040516124c994939291906143b5565b60405180910390a1505050505050565b60006060806060806060806000886040516124f491906139f1565b908152602001604051809103902060009054906101000a900460ff1661254f576040517f08c379a000000000000000000000000000000000000000000000000000000000815260040161254690613a54565b60405180910390fd5b600060028960405161256191906139f1565b9081526020016040518091039020604051806101200160405290816000820160009054906101000a900473ffffffffffffffffffffffffffffffffffffffff1673ffffffffffffffffffffffffffffffffffffffff1673ffffffffffffffffffffffffffffffffffffffff1681526020016001820180546125e190613aa3565b80601f016020809104026020016040519081016040528092919081815260200182805461260d90613aa3565b801561265a5780601f1061262f5761010080835404028352916020019161265a565b820191906000526020600020905b81548152906001019060200180831161263d57829003601f168201915b5050505050815260200160028201805461267390613aa3565b80601f016020809104026020016040519081016040528092919081815260200182805461269f90613aa3565b80156126ec5780601f106126c1576101008083540402835291602001916126ec565b820191906000526020600020905b8154815290600101906020018083116126cf57829003601f168201915b5050505050815260200160038201805461270590613aa3565b80601f016020809104026020016040519081016040528092919081815260200182805461273190613aa3565b801561277e5780601f106127535761010080835404028352916020019161277e565b820191906000526020600020905b81548152906001019060200180831161276157829003601f168201915b5050505050815260200160048201805461279790613aa3565b80601f01602080910402602001604051908101604052809291908181526020018280546127c390613aa3565b80156128105780601f106127e557610100808354040283529160200191612810565b820191906000526020600020905b8154815290600101906020018083116127f357829003601f168201915b5050505050815260200160058201805461282990613aa3565b80601f016020809104026020016040519081016040528092919081815260200182805461285590613aa3565b80156128a25780601f10612877576101008083540402835291602001916128a2565b820191906000526020600020905b81548152906001019060200180831161288557829003601f168201915b505050505081526020016006820180546128bb90613aa3565b80601f01602080910402602001604051908101604052809291908181526020018280546128e790613aa3565b80156129345780601f1061290957610100808354040283529160200191612934565b820191906000526020600020905b81548152906001019060200180831161291757829003601f168201915b5050505050815260200160078201805461294d90613aa3565b80601f016020809104026020016040519081016040528092919081815260200182805461297990613aa3565b80156129c65780601f1061299b576101008083540402835291602001916129c6565b820191906000526020600020905b8154815290600101906020018083116129a957829003601f168201915b505050505081526020016008820180546129df90613aa3565b80601f0160208091040260200160405190810160405280929190818152602001828054612a0b90613aa3565b8015612a585780601f10612a2d57610100808354040283529160200191612a58565b820191906000526020600020905b815481529060010190602001808311612a3b57829003601f168201915b5050505050815250509050806000015181602001518260400151836060015184608001518560a001518660c00151975097509750975097509750975050919395979092949650565b60008082604051612ab191906139f1565b908152602001604051809103902060009054906101000a900460ff169050919050565b604051806101200160405280600073ffffffffffffffffffffffffffffffffffffffff16815260200160608152602001606081526020016060815260200160608152602001606081526020016060815260200160608152602001606081525090565b508054612b4290613aa3565b6000825580601f10612b545750612b73565b601f016020900490600052602060002090810190612b729190612b76565b5b50565b5b80821115612b8f576000816000905550600101612b77565b5090565b6000604051905090565b600080fd5b600080fd5b600080fd5b600080fd5b6000601f19601f8301169050919050565b7f4e487b7100000000000000000000000000000000000000000000000000000000600052604160045260246000fd5b612bfa82612bb1565b810181811067ffffffffffffffff82111715612c1957612c18612bc2565b5b80604052505050565b6000612c2c612b93565b9050612c388282612bf1565b919050565b600067ffffffffffffffff821115612c5857612c57612bc2565b5b612c6182612bb1565b9050602081019050919050565b82818337600083830152505050565b6000612c90612c8b84612c3d565b612c22565b905082815260208101848484011115612cac57612cab612bac565b5b612cb7848285612c6e565b509392505050565b600082601f830112612cd457612cd3612ba7565b5b8135612ce4848260208601612c7d565b91505092915050565b600060208284031215612d0357612d02612b9d565b5b600082013567ffffffffffffffff811115612d2157612d20612ba2565b5b612d2d84828501612cbf565b91505092915050565b600081519050919050565b600082825260208201905092915050565b6000819050602082019050919050565b600081519050919050565b600082825260208201905092915050565b60005b83811015612d9c578082015181840152602081019050612d81565b60008484015250505050565b6000612db382612d62565b612dbd8185612d6d565b9350612dcd818560208601612d7e565b612dd681612bb1565b840191505092915050565b6000612ded8383612da8565b905092915050565b6000602082019050919050565b6000612e0d82612d36565b612e178185612d41565b935083602082028501612e2985612d52565b8060005b85811015612e655784840389528151612e468582612de1565b9450612e5183612df5565b925060208a01995050600181019050612e2d565b50829750879550505050505092915050565b60006020820190508181036000830152612e918184612e02565b905092915050565b60008060408385031215612eb057612eaf612b9d565b5b600083013567ffffffffffffffff811115612ece57612ecd612ba2565b5b612eda85828601612cbf565b925050602083013567ffffffffffffffff811115612efb57612efa612ba2565b5b612f0785828601612cbf565b9150509250929050565b600081519050919050565b600082825260208201905092915050565b6000819050602082019050919050565b600073ffffffffffffffffffffffffffffffffffffffff82169050919050565b6000612f6882612f3d565b9050919050565b612f7881612f5d565b82525050565b600061012083016000830151612f976000860182612f6f565b5060208301518482036020860152612faf8282612da8565b91505060408301518482036040860152612fc98282612da8565b91505060608301518482036060860152612fe38282612da8565b91505060808301518482036080860152612ffd8282612da8565b91505060a083015184820360a08601526130178282612da8565b91505060c083015184820360c08601526130318282612da8565b91505060e083015184820360e086015261304b8282612da8565b9150506101008301518482036101008601526130678282612da8565b9150508091505092915050565b60006130808383612f7e565b905092915050565b6000602082019050919050565b60006130a082612f11565b6130aa8185612f1c565b9350836020820285016130bc85612f2d565b8060005b858110156130f857848403895281516130d98582613074565b94506130e483613088565b925060208a019950506001810190506130c0565b50829750879550505050505092915050565b600060208201905081810360008301526131248184613095565b905092915050565b6000819050919050565b61313f8161312c565b811461314a57600080fd5b50565b60008135905061315c81613136565b92915050565b6000806040838503121561317957613178612b9d565b5b600083013567ffffffffffffffff81111561319757613196612ba2565b5b6131a385828601612cbf565b92505060206131b48582860161314d565b9150509250929050565b60008115159050919050565b6131d3816131be565b82525050565b60006020820190506131ee60008301846131ca565b92915050565b6131fd81612f5d565b811461320857600080fd5b50565b60008135905061321a816131f4565b92915050565b60008060008060008060008060006101208a8c03121561324357613242612b9d565b5b60006132518c828d0161320b565b99505060208a013567ffffffffffffffff81111561327257613271612ba2565b5b61327e8c828d01612cbf565b98505060408a013567ffffffffffffffff81111561329f5761329e612ba2565b5b6132ab8c828d01612cbf565b97505060608a013567ffffffffffffffff8111156132cc576132cb612ba2565b5b6132d88c828d01612cbf565b96505060808a013567ffffffffffffffff8111156132f9576132f8612ba2565b5b6133058c828d01612cbf565b95505060a08a013567ffffffffffffffff81111561332657613325612ba2565b5b6133328c828d01612cbf565b94505060c08a013567ffffffffffffffff81111561335357613352612ba2565b5b61335f8c828d01612cbf565b93505060e08a013567ffffffffffffffff8111156133805761337f612ba2565b5b61338c8c828d01612cbf565b9250506101008a013567ffffffffffffffff8111156133ae576133ad612ba2565b5b6133ba8c828d01612cbf565b9150509295985092959850929598565b600081519050919050565b600082825260208201905092915050565b6000819050602082019050919050565b6133ff8161312c565b82525050565b600060808301600083015161341d60008601826133f6565b50602083015184820360208601526134358282612da8565b9150506040830151848203604086015261344f8282612da8565b915050606083015184820360608601526134698282612da8565b9150508091505092915050565b60006134828383613405565b905092915050565b6000602082019050919050565b60006134a2826133ca565b6134ac81856133d5565b9350836020820285016134be856133e6565b8060005b858110156134fa57848403895281516134db8582613476565b94506134e68361348a565b925060208a019950506001810190506134c2565b50829750879550505050505092915050565b600060208201905081810360008301526135268184613497565b905092915050565b60008060006060848603121561354757613546612b9d565b5b600084013567ffffffffffffffff81111561356557613564612ba2565b5b61357186828701612cbf565b935050602084013567ffffffffffffffff81111561359257613591612ba2565b5b61359e86828701612cbf565b925050604084013567ffffffffffffffff8111156135bf576135be612ba2565b5b6135cb86828701612cbf565b9150509250925092565b600081519050919050565b600082825260208201905092915050565b6000819050602082019050919050565b6000604083016000830151848203600086015261361e8282612da8565b915050602083015184820360208601526136388282612da8565b9150508091505092915050565b60006136518383613601565b905092915050565b6000602082019050919050565b6000613671826135d5565b61367b81856135e0565b93508360208202850161368d856135f1565b8060005b858110156136c957848403895281516136aa8582613645565b94506136b583613659565b925060208a01995050600181019050613691565b50829750879550505050505092915050565b600060208201905081810360008301526136f58184613666565b905092915050565b6137068161312c565b82525050565b600060208201905061372160008301846136fd565b92915050565b61373081612f5d565b82525050565b600082825260208201905092915050565b600061375282612d62565b61375c8185613736565b935061376c818560208601612d7e565b61377581612bb1565b840191505092915050565b600061012082019050613796600083018c613727565b81810360208301526137a8818b613747565b905081810360408301526137bc818a613747565b905081810360608301526137d08189613747565b905081810360808301526137e48188613747565b905081810360a08301526137f88187613747565b905081810360c083015261380c8186613747565b905081810360e08301526138208185613747565b90508181036101008301526138358184613747565b90509a9950505050505050505050565b6000806000806080858703121561385f5761385e612b9d565b5b600085013567ffffffffffffffff81111561387d5761387c612ba2565b5b61388987828801612cbf565b945050602085013567ffffffffffffffff8111156138aa576138a9612ba2565b5b6138b687828801612cbf565b935050604085013567ffffffffffffffff8111156138d7576138d6612ba2565b5b6138e387828801612cbf565b925050606085013567ffffffffffffffff81111561390457613903612ba2565b5b61391087828801612cbf565b91505092959194509250565b600060e082019050613931600083018a613727565b81810360208301526139438189613747565b905081810360408301526139578188613747565b9050818103606083015261396b8187613747565b9050818103608083015261397f8186613747565b905081810360a08301526139938185613747565b905081810360c08301526139a78184613747565b905098975050505050505050565b600081905092915050565b60006139cb82612d62565b6139d581856139b5565b93506139e5818560208601612d7e565b80840191505092915050565b60006139fd82846139c0565b915081905092915050565b7f50617469656e74206e6f74207265676973746572656400000000000000000000600082015250565b6000613a3e601683613736565b9150613a4982613a08565b602082019050919050565b60006020820190508181036000830152613a6d81613a31565b9050919050565b7f4e487b7100000000000000000000000000000000000000000000000000000000600052602260045260246000fd5b60006002820490506001821680613abb57607f821691505b602082108103613ace57613acd613a74565b5b50919050565b60008190508160005260206000209050919050565b60006020601f8301049050919050565b600082821b905092915050565b600060088302613b367fffffffffffffffffffffffffffffffffffffffffffffffffffffffffffffffff82613af9565b613b408683613af9565b95508019841693508086168417925050509392505050565b6000819050919050565b6000613b7d613b78613b738461312c565b613b58565b61312c565b9050919050565b6000819050919050565b613b9783613b62565b613bab613ba382613b84565b848454613b06565b825550505050565b600090565b613bc0613bb3565b613bcb818484613b8e565b505050565b5b81811015613bef57613be4600082613bb8565b600181019050613bd1565b5050565b601f821115613c3457613c0581613ad4565b613c0e84613ae9565b81016020851015613c1d578190505b613c31613c2985613ae9565b830182613bd0565b50505b505050565b600082821c905092915050565b6000613c5760001984600802613c39565b1980831691505092915050565b6000613c708383613c46565b9150826002028217905092915050565b613c8982612d62565b67ffffffffffffffff811115613ca257613ca1612bc2565b5b613cac8254613aa3565b613cb7828285613bf3565b600060209050601f831160018114613cea5760008415613cd8578287015190505b613ce28582613c64565b865550613d4a565b601f198416613cf886613ad4565b60005b82811015613d2057848901518255600182019150602085019450602081019050613cfb565b86831015613d3d5784890151613d39601f891682613c46565b8355505b6001600288020188555050505b505050505050565b60006040820190508181036000830152613d6c8185613747565b90508181036020830152613d808184613747565b90509392505050565b7f4e487b7100000000000000000000000000000000000000000000000000000000600052603260045260246000fd5b60008154613dc581613aa3565b613dcf81866139b5565b94506001821660008114613dea5760018114613dff57613e32565b60ff1983168652811515820286019350613e32565b613e0885613ad4565b60005b83811015613e2a57815481890152600182019150602081019050613e0b565b838801955050505b50505092915050565b6000613e478284613db8565b915081905092915050565b7f4e487b7100000000000000000000000000000000000000000000000000000000600052601160045260246000fd5b6000613e8c8261312c565b91507fffffffffffffffffffffffffffffffffffffffffffffffffffffffffffffffff8203613ebe57613ebd613e52565b5b600182019050919050565b7f496e76616c696420696e64657800000000000000000000000000000000000000600082015250565b6000613eff600d83613736565b9150613f0a82613ec9565b602082019050919050565b60006020820190508181036000830152613f2e81613ef2565b9050919050565b6000613f408261312c565b9150613f4b8361312c565b9250828203905081811115613f6357613f62613e52565b5b92915050565b600081549050613f7881613aa3565b9050919050565b60008190508160005260206000209050919050565b818103613fa257505061407a565b613fab82613f69565b67ffffffffffffffff811115613fc457613fc3612bc2565b5b613fce8254613aa3565b613fd9828285613bf3565b6000601f8311600181146140085760008415613ff6578287015490505b6140008582613c64565b865550614073565b601f19841661401687613f7f565b965061402186613ad4565b60005b8281101561404957848901548255600182019150600185019450602081019050614024565b868310156140665784890154614062601f891682613c46565b8355505b6001600288020188555050505b5050505050505b565b7f4e487b7100000000000000000000000000000000000000000000000000000000600052603160045260246000fd5b7f446f63746f72206e6f7420726567697374657265640000000000000000000000600082015250565b60006140e1601583613736565b91506140ec826140ab565b602082019050919050565b60006020820190508181036000830152614110816140d4565b9050919050565b7f50617469656e74204848204e756d626572206e6f7420666f756e6420696e207460008201527f6865206c69737400000000000000000000000000000000000000000000000000602082015250565b6000614173602783613736565b915061417e82614117565b604082019050919050565b600060208201905081810360008301526141a281614166565b9050919050565b60006141b48261312c565b9150600082036141c7576141c6613e52565b5b600182039050919050565b7f50617469656e7420616c72656164792072656769737465726564000000000000600082015250565b6000614208601a83613736565b9150614213826141d2565b602082019050919050565b60006020820190508181036000830152614237816141fb565b9050919050565b600060608201905081810360008301526142588186613747565b9050818103602083015261426c8185613747565b905061427b6040830184613727565b949350505050565b7f566965772041636365737320616c726561647920676976656e20746f2074686560008201527f20446f63746f7221000000000000000000000000000000000000000000000000602082015250565b60006142df602883613736565b91506142ea82614283565b604082019050919050565b6000602082019050818103600083015261430e816142d2565b9050919050565b7f446f63746f7220616c7265616479207265676973746572656400000000000000600082015250565b600061434b601983613736565b915061435682614315565b602082019050919050565b6000602082019050818103600083015261437a8161433e565b9050919050565b600061438c8261312c565b91506143978361312c565b92508282019050808211156143af576143ae613e52565b5b92915050565b600060808201905081810360008301526143cf8187613747565b90506143de60208301866136fd565b81810360408301526143f08185613747565b905081810360608301526144048184613747565b90509594505050505056fea2646970667358221220b794e17d421095acda6b6a66b5eedc3108a6f1fa5c736602a492207d89756e6d64736f6c63430008130033",
  "immutableReferences": {},
  "source": "// SPDX-License-Identifier: MIT\r\npragma solidity ^0.8.19;\r\n\r\ncontract PatientRegistration {\r\n    struct Patient {\r\n        address walletAddress;\r\n        string name;\r\n        string dateOfBirth;\r\n        string gender;\r\n        string bloodGroup;\r\n        string homeAddress;\r\n        string email;\r\n        string hhNumber;\r\n        string password;\r\n    }\r\n\r\n    struct PatientList {\r\n        string patient_number;\r\n        string patient_name;\r\n    }\r\n\r\n    struct Record {\r\n        uint id;\r\n        string date;\r\n        string description;\r\n        string doctor;\r\n    }\r\n\r\n    mapping(string => bool) public isPatientRegistered;\r\n    mapping(string => bool) public isDoctorRegistered;\r\n    mapping(string => Patient) public patients;\r\n    mapping(string => PatientList[]) private Dpermission;\r\n    mapping(string => mapping(string => bool)) public doctorPermissions;\r\n    mapping(string => Record[]) private patientRecords; // Mapping to store patient records\r\n    mapping(string => string[]) private fileRecords; // Mapping to store file records\r\n    string[] private patientHhNumbers; // Array to store all registered hhNumbers\r\n    uint public registeredPatientCount; // Counter for registered patients\r\n\r\n    event PatientRegistered(string hhNumber, string name, address walletAddress);\r\n    event RecordAdded(string hhNumber, uint recordId, string date, string doctor);\r\n    event RecordUploaded(string hhNumber, string cid);\r\n\r\n    function registerPatient(\r\n        address _walletAddress,\r\n        string memory _name,\r\n        string memory _dateOfBirth,\r\n        string memory _gender,\r\n        string memory _bloodGroup,\r\n        string memory _homeAddress,\r\n        string memory _email,\r\n        string memory _hhNumber,\r\n        string memory _password\r\n    ) external {\r\n        require(!isPatientRegistered[_hhNumber], \"Patient already registered\");\r\n\r\n        Patient memory newPatient = Patient({\r\n            walletAddress: _walletAddress,\r\n            name: _name,\r\n            dateOfBirth: _dateOfBirth,\r\n            gender: _gender,\r\n            bloodGroup: _bloodGroup,\r\n            homeAddress: _homeAddress,\r\n            email: _email,\r\n            hhNumber: _hhNumber,\r\n            password: _password\r\n        });\r\n\r\n        patients[_hhNumber] = newPatient;\r\n        isPatientRegistered[_hhNumber] = true;\r\n        patientHhNumbers.push(_hhNumber); // Add hhNumber to the list\r\n        registeredPatientCount++; // Increment the count\r\n        emit PatientRegistered(_hhNumber, _name, _walletAddress);\r\n    }\r\n\r\n    function isRegisteredPatient(string memory _hhNumber) external view returns (bool) {\r\n        return isPatientRegistered[_hhNumber];\r\n    }\r\n\r\n    // Add a function to validate patient's password\r\n    function validatePassword(string memory _hhNumber, string memory _password) external view returns (bool) {\r\n        require(isPatientRegistered[_hhNumber], \"Patient not registered\");\r\n        return keccak256(abi.encodePacked(_password)) == keccak256(abi.encodePacked(patients[_hhNumber].password));\r\n    }\r\n\r\n    function getPatientDetails(string memory _hhNumber) external view returns (\r\n        address walletAddress,\r\n        string memory name,\r\n        string memory dateOfBirth,\r\n        string memory gender,\r\n        string memory bloodGroup,\r\n        string memory homeAddress,\r\n        string memory email\r\n    ) {\r\n        require(isPatientRegistered[_hhNumber], \"Patient not registered\");\r\n        Patient memory patient = patients[_hhNumber];\r\n        return (patient.walletAddress, patient.name, patient.dateOfBirth, patient.gender, patient.bloodGroup, patient.homeAddress, patient.email);\r\n    }\r\n\r\n    function grantPermission(\r\n        string memory _patientNumber,\r\n        string memory _doctorNumber,\r\n        string memory _patientName\r\n    ) external {\r\n        require(!doctorPermissions[_patientNumber][_doctorNumber], \"View Access already given to the Doctor!\");\r\n        // Check if the patient number already exists in the list\r\n        bool exists = false;\r\n        for (uint i = 0; i < Dpermission[_doctorNumber].length; i++) {\r\n            if (keccak256(abi.encodePacked(Dpermission[_doctorNumber][i].patient_number)) == keccak256(abi.encodePacked(_patientNumber))) {\r\n                exists = true;\r\n                break;\r\n            }\r\n        }\r\n\r\n        // If the patient number does not exist, add it to the list\r\n        if (!exists) {\r\n            PatientList memory newRecord = PatientList(\r\n                _patientNumber,\r\n                _patientName\r\n            );\r\n            Dpermission[_doctorNumber].push(newRecord);\r\n        }\r\n        doctorPermissions[_patientNumber][_doctorNumber] = true;\r\n    }\r\n\r\n    function grantDoctorPermission(string memory patientHhNumber, string memory doctorHhNumber) public {\r\n        require(isPatientRegistered[patientHhNumber], \"Patient not registered\");\r\n        require(isDoctorRegistered[doctorHhNumber], \"Doctor not registered\");\r\n        doctorPermissions[patientHhNumber][doctorHhNumber] = true;\r\n    }\r\n\r\n    function isPermissionGranted(string memory _patientNumber, string memory _doctorNumber) external view returns (bool) {\r\n        return doctorPermissions[_patientNumber][_doctorNumber];\r\n    }\r\n\r\n    function getPatientList(string memory _doctorNumber) public view returns (PatientList[] memory) {\r\n        return Dpermission[_doctorNumber];\r\n    }\r\n\r\n    function addPatientRecord(\r\n        string memory _hhNumber,\r\n        string memory _date,\r\n        string memory _description,\r\n        string memory _doctor\r\n    ) external {\r\n        require(isPatientRegistered[_hhNumber], \"Patient not registered\");\r\n\r\n        uint recordId = patientRecords[_hhNumber].length + 1;\r\n        Record memory newRecord = Record({\r\n            id: recordId,\r\n            date: _date,\r\n            description: _description,\r\n            doctor: _doctor\r\n        });\r\n\r\n        patientRecords[_hhNumber].push(newRecord);\r\n        emit RecordAdded(_hhNumber, recordId, _date, _doctor);\r\n    }\r\n\r\n    function getPatientRecords(string memory _hhNumber) external view returns (Record[] memory) {\r\n        require(isPatientRegistered[_hhNumber], \"Patient not registered\");\r\n        return patientRecords[_hhNumber];\r\n    }\r\n\r\n    function uploadRecord(string memory hhNumber, string memory cid) public {\r\n        require(isPatientRegistered[hhNumber], \"Patient not registered\");\r\n        fileRecords[hhNumber].push(cid);\r\n        emit RecordUploaded(hhNumber, cid);\r\n    }\r\n\r\n    function getFileRecords(string memory hhNumber) public view returns (string[] memory) {\r\n        require(isPatientRegistered[hhNumber], \"Patient not registered\");\r\n        return fileRecords[hhNumber];\r\n    }\r\n\r\n    function deleteFileRecord(string memory hhNumber, uint index) public {\r\n        require(isPatientRegistered[hhNumber], \"Patient not registered\");\r\n        require(index < fileRecords[hhNumber].length, \"Invalid index\");\r\n        // Move the last element into the place to delete and pop\r\n        fileRecords[hhNumber][index] = fileRecords[hhNumber][fileRecords[hhNumber].length - 1];\r\n        fileRecords[hhNumber].pop();\r\n    }\r\n\r\n    function getAllPatients() public view returns (Patient[] memory) {\r\n        Patient[] memory allPatients = new Patient[](registeredPatientCount);\r\n\r\n        for (uint i = 0; i < patientHhNumbers.length; i++) {\r\n            allPatients[i] = patients[patientHhNumbers[i]];\r\n        }\r\n\r\n        return allPatients;\r\n    }\r\n\r\n    function removePatient(string memory hhNumber) public {\r\n        require(isPatientRegistered[hhNumber], \"Patient not registered\");\r\n\r\n        // Delete the patient from the mapping\r\n        delete patients[hhNumber];\r\n        isPatientRegistered[hhNumber] = false;\r\n\r\n        // Find and remove the hhNumber from the patientHhNumbers array\r\n        bool found = false;\r\n        for (uint i = 0; i < patientHhNumbers.length; i++) {\r\n            if (keccak256(abi.encodePacked(patientHhNumbers[i])) == keccak256(abi.encodePacked(hhNumber))) {\r\n                patientHhNumbers[i] = patientHhNumbers[patientHhNumbers.length - 1]; // Replace with the last element\r\n                patientHhNumbers.pop(); // Remove the last element\r\n                found = true;\r\n                break;\r\n            }\r\n        }\r\n\r\n        require(found, \"Patient HH Number not found in the list\");\r\n\r\n        // Decrement the registered patient count\r\n        registeredPatientCount--;\r\n    }\r\n\r\n    function registerDoctor(string memory doctorHhNumber) public {\r\n        require(!isDoctorRegistered[doctorHhNumber], \"Doctor already registered\");\r\n        isDoctorRegistered[doctorHhNumber] = true;\r\n        // Optionally, store more doctor details here\r\n    }\r\n}\r\n",
  "sourcePath": "C:\\Users\\UDIT NARAYANA K B\\Desktop\\ehr 1 proj\\Secure-Electronic-Health-Records\\src\\contracts\\PatientRegistration.sol",
  "compiler": {
    "name": "solc",
    "version": "0.8.19+commit.7dd6d404.Emscripten.clang"
  },
  "schemaVersion": "3.4.16",
  "updatedAt": "2025-05-02T18:29:32.347Z",
  "networkType": "ethereum",
  "devdoc": {
    "kind": "dev",
    "methods": {},
    "version": 1
  },
  "userdoc": {
    "kind": "user",
    "methods": {},
    "version": 1
  }
}