{
  "contractName": "PatientRegistration",
  "abi": [
    {
      "anonymous": false,
      "inputs": [
        {
          "indexed": false,
          "internalType": "string",
          "name": "hhNumber",
          "type": "string"
        },
        {
          "indexed": false,
          "internalType": "string",
          "name": "name",
          "type": "string"
        },
        {
          "indexed": false,
          "internalType": "address",
          "name": "walletAddress",
          "type": "address"
        }
      ],
      "name": "PatientRegistered",
      "type": "event"
    },
    {
      "anonymous": false,
      "inputs": [
        {
          "indexed": false,
          "internalType": "string",
          "name": "hhNumber",
          "type": "string"
        },
        {
          "indexed": false,
          "internalType": "uint256",
          "name": "recordId",
          "type": "uint256"
        },
        {
          "indexed": false,
          "internalType": "string",
          "name": "date",
          "type": "string"
        },
        {
          "indexed": false,
          "internalType": "string",
          "name": "doctor",
          "type": "string"
        },
        {
          "indexed": false,
          "internalType": "string",
          "name": "ipfsHash",
          "type": "string"
        }
      ],
      "name": "RecordAdded",
      "type": "event"
    },
    {
      "inputs": [
        {
          "internalType": "string",
          "name": "",
          "type": "string"
        },
        {
          "internalType": "string",
          "name": "",
          "type": "string"
        }
      ],
      "name": "doctorPermissions",
      "outputs": [
        {
          "internalType": "bool",
          "name": "",
          "type": "bool"
        }
      ],
      "stateMutability": "view",
      "type": "function",
      "constant": true
    },
    {
      "inputs": [
        {
          "internalType": "string",
          "name": "",
          "type": "string"
        }
      ],
      "name": "isPatientRegistered",
      "outputs": [
        {
          "internalType": "bool",
          "name": "",
          "type": "bool"
        }
      ],
      "stateMutability": "view",
      "type": "function",
      "constant": true
    },
    {
      "inputs": [
        {
          "internalType": "string",
          "name": "",
          "type": "string"
        }
      ],
      "name": "patients",
      "outputs": [
        {
          "internalType": "address",
          "name": "walletAddress",
          "type": "address"
        },
        {
          "internalType": "string",
          "name": "name",
          "type": "string"
        },
        {
          "internalType": "string",
          "name": "dateOfBirth",
          "type": "string"
        },
        {
          "internalType": "string",
          "name": "gender",
          "type": "string"
        },
        {
          "internalType": "string",
          "name": "bloodGroup",
          "type": "string"
        },
        {
          "internalType": "string",
          "name": "homeAddress",
          "type": "string"
        },
        {
          "internalType": "string",
          "name": "email",
          "type": "string"
        },
        {
          "internalType": "string",
          "name": "hhNumber",
          "type": "string"
        },
        {
          "internalType": "string",
          "name": "password",
          "type": "string"
        }
      ],
      "stateMutability": "view",
      "type": "function",
      "constant": true
    },
    {
      "inputs": [],
      "name": "registeredPatientCount",
      "outputs": [
        {
          "internalType": "uint256",
          "name": "",
          "type": "uint256"
        }
      ],
      "stateMutability": "view",
      "type": "function",
      "constant": true
    },
    {
      "inputs": [
        {
          "internalType": "address",
          "name": "_walletAddress",
          "type": "address"
        },
        {
          "internalType": "string",
          "name": "_name",
          "type": "string"
        },
        {
          "internalType": "string",
          "name": "_dateOfBirth",
          "type": "string"
        },
        {
          "internalType": "string",
          "name": "_gender",
          "type": "string"
        },
        {
          "internalType": "string",
          "name": "_bloodGroup",
          "type": "string"
        },
        {
          "internalType": "string",
          "name": "_homeAddress",
          "type": "string"
        },
        {
          "internalType": "string",
          "name": "_email",
          "type": "string"
        },
        {
          "internalType": "string",
          "name": "_hhNumber",
          "type": "string"
        },
        {
          "internalType": "string",
          "name": "_password",
          "type": "string"
        }
      ],
      "name": "registerPatient",
      "outputs": [],
      "stateMutability": "nonpayable",
      "type": "function"
    },
    {
      "inputs": [
        {
          "internalType": "string",
          "name": "_hhNumber",
          "type": "string"
        }
      ],
      "name": "isRegisteredPatient",
      "outputs": [
        {
          "internalType": "bool",
          "name": "",
          "type": "bool"
        }
      ],
      "stateMutability": "view",
      "type": "function",
      "constant": true
    },
    {
      "inputs": [
        {
          "internalType": "string",
          "name": "_hhNumber",
          "type": "string"
        },
        {
          "internalType": "string",
          "name": "_password",
          "type": "string"
        }
      ],
      "name": "validatePassword",
      "outputs": [
        {
          "internalType": "bool",
          "name": "",
          "type": "bool"
        }
      ],
      "stateMutability": "view",
      "type": "function",
      "constant": true
    },
    {
      "inputs": [
        {
          "internalType": "string",
          "name": "_hhNumber",
          "type": "string"
        }
      ],
      "name": "getPatientDetails",
      "outputs": [
        {
          "internalType": "address",
          "name": "walletAddress",
          "type": "address"
        },
        {
          "internalType": "string",
          "name": "name",
          "type": "string"
        },
        {
          "internalType": "string",
          "name": "dateOfBirth",
          "type": "string"
        },
        {
          "internalType": "string",
          "name": "gender",
          "type": "string"
        },
        {
          "internalType": "string",
          "name": "bloodGroup",
          "type": "string"
        },
        {
          "internalType": "string",
          "name": "homeAddress",
          "type": "string"
        },
        {
          "internalType": "string",
          "name": "email",
          "type": "string"
        }
      ],
      "stateMutability": "view",
      "type": "function",
      "constant": true
    },
    {
      "inputs": [
        {
          "internalType": "string",
          "name": "_patientNumber",
          "type": "string"
        },
        {
          "internalType": "string",
          "name": "_doctorNumber",
          "type": "string"
        },
        {
          "internalType": "string",
          "name": "_patientName",
          "type": "string"
        }
      ],
      "name": "grantPermission",
      "outputs": [],
      "stateMutability": "nonpayable",
      "type": "function"
    },
    {
      "inputs": [
        {
          "internalType": "string",
          "name": "_patientNumber",
          "type": "string"
        },
        {
          "internalType": "string",
          "name": "_doctorNumber",
          "type": "string"
        }
      ],
      "name": "isPermissionGranted",
      "outputs": [
        {
          "internalType": "bool",
          "name": "",
          "type": "bool"
        }
      ],
      "stateMutability": "view",
      "type": "function",
      "constant": true
    },
    {
      "inputs": [
        {
          "internalType": "string",
          "name": "_doctorNumber",
          "type": "string"
        }
      ],
      "name": "getPatientList",
      "outputs": [
        {
          "components": [
            {
              "internalType": "string",
              "name": "patient_number",
              "type": "string"
            },
            {
              "internalType": "string",
              "name": "patient_name",
              "type": "string"
            }
          ],
          "internalType": "struct PatientRegistration.PatientList[]",
          "name": "",
          "type": "tuple[]"
        }
      ],
      "stateMutability": "view",
      "type": "function",
      "constant": true
    },
    {
      "inputs": [
        {
          "internalType": "string",
          "name": "_hhNumber",
          "type": "string"
        },
        {
          "internalType": "string",
          "name": "_date",
          "type": "string"
        },
        {
          "internalType": "string",
          "name": "_description",
          "type": "string"
        },
        {
          "internalType": "string",
          "name": "_doctor",
          "type": "string"
        },
        {
          "internalType": "string",
          "name": "_ipfsHash",
          "type": "string"
        }
      ],
      "name": "addPatientRecord",
      "outputs": [],
      "stateMutability": "nonpayable",
      "type": "function"
    },
    {
      "inputs": [
        {
          "internalType": "string",
          "name": "_hhNumber",
          "type": "string"
        },
        {
          "internalType": "string",
          "name": "_date",
          "type": "string"
        },
        {
          "internalType": "string",
          "name": "_description",
          "type": "string"
        },
        {
          "internalType": "string",
          "name": "_doctor",
          "type": "string"
        }
      ],
      "name": "addPatientRecord",
      "outputs": [],
      "stateMutability": "nonpayable",
      "type": "function"
    },
    {
      "inputs": [
        {
          "internalType": "string",
          "name": "_hhNumber",
          "type": "string"
        },
        {
          "internalType": "uint256",
          "name": "_index",
          "type": "uint256"
        }
      ],
      "name": "deletePatientRecord",
      "outputs": [],
      "stateMutability": "nonpayable",
      "type": "function"
    },
    {
      "inputs": [
        {
          "internalType": "string",
          "name": "_hhNumber",
          "type": "string"
        }
      ],
      "name": "getPatientRecords",
      "outputs": [
        {
          "components": [
            {
              "internalType": "uint256",
              "name": "id",
              "type": "uint256"
            },
            {
              "internalType": "string",
              "name": "date",
              "type": "string"
            },
            {
              "internalType": "string",
              "name": "description",
              "type": "string"
            },
            {
              "internalType": "string",
              "name": "doctor",
              "type": "string"
            },
            {
              "internalType": "string",
              "name": "ipfsHash",
              "type": "string"
            }
          ],
          "internalType": "struct PatientRegistration.Record[]",
          "name": "",
          "type": "tuple[]"
        }
      ],
      "stateMutability": "view",
      "type": "function",
      "constant": true
    },
    {
      "inputs": [],
      "name": "getAllPatients",
      "outputs": [
        {
          "components": [
            {
              "internalType": "address",
              "name": "walletAddress",
              "type": "address"
            },
            {
              "internalType": "string",
              "name": "name",
              "type": "string"
            },
            {
              "internalType": "string",
              "name": "dateOfBirth",
              "type": "string"
            },
            {
              "internalType": "string",
              "name": "gender",
              "type": "string"
            },
            {
              "internalType": "string",
              "name": "bloodGroup",
              "type": "string"
            },
            {
              "internalType": "string",
              "name": "homeAddress",
              "type": "string"
            },
            {
              "internalType": "string",
              "name": "email",
              "type": "string"
            },
            {
              "internalType": "string",
              "name": "hhNumber",
              "type": "string"
            },
            {
              "internalType": "string",
              "name": "password",
              "type": "string"
            }
          ],
          "internalType": "struct PatientRegistration.Patient[]",
          "name": "",
          "type": "tuple[]"
        }
      ],
      "stateMutability": "view",
      "type": "function",
      "constant": true
    },
    {
      "inputs": [
        {
          "internalType": "string",
          "name": "hhNumber",
          "type": "string"
        }
      ],
      "name": "removePatient",
      "outputs": [],
      "stateMutability": "nonpayable",
      "type": "function"
    },
    {
      "inputs": [
        {
          "internalType": "string",
          "name": "_doctorNumber",
          "type": "string"
        },
        {
          "internalType": "string",
          "name": "_doctorName",
          "type": "string"
        },
        {
          "internalType": "address",
          "name": "_walletAddress",
          "type": "address"
        }
      ],
      "name": "registerDoctorInfo",
      "outputs": [],
      "stateMutability": "nonpayable",
      "type": "function"
    },
    {
      "inputs": [],
      "name": "getAllDoctorInfo",
      "outputs": [
        {
          "components": [
            {
              "internalType": "string",
              "name": "doctorNumber",
              "type": "string"
            },
            {
              "internalType": "string",
              "name": "doctorName",
              "type": "string"
            },
            {
              "internalType": "address",
              "name": "walletAddress",
              "type": "address"
            }
          ],
          "internalType": "struct PatientRegistration.DoctorInfo[]",
          "name": "",
          "type": "tuple[]"
        }
      ],
      "stateMutability": "view",
      "type": "function",
      "constant": true
    }
  ],
  "bytecode": "0x608060405234801561001057600080fd5b50614987806100206000396000f3fe608060405234801561001057600080fd5b50600436106101215760003560e01c80635df67040116100ad578063c6009d8411610071578063c6009d8414610318578063d120c10c14610350578063ea6785ff14610380578063ea977fc81461039c578063f7252641146103d257610121565b80635df670401461026057806362d457761461027c5780637babdb261461029a57806391c12f76146102ca578063ac39c72c146102fa57610121565b80634f10c6c2116100f45780634f10c6c2146101ac5780634f870e20146101dc57806356cf1fc4146101f857806357812a08146102145780635cd40af51461023057610121565b806310fe10a51461012657806318a231a9146101425780632e2ceee414610160578063443347331461017c575b600080fd5b610140600480360381019061013b9190612f5f565b610402565b005b61014a61067b565b6040516101579190613233565b60405180910390f35b61017a60048036038101906101759190613255565b610c4d565b005b6101966004803603810190610191919061335c565b610e09565b6040516101a391906133ef565b60405180910390f35b6101c660048036038101906101c1919061340a565b610e64565b6040516101d391906133ef565b60405180910390f35b6101f660048036038101906101f1919061347f565b610e9a565b005b610212600480360381019061020d919061340a565b6110ae565b005b61022e6004803603810190610229919061350a565b61139b565b005b61024a6004803603810190610245919061340a565b611646565b6040516102579190613810565b60405180910390f35b61027a60048036038101906102759190613832565b611980565b005b610284611bd4565b60405161029191906139f2565b60405180910390f35b6102b460048036038101906102af919061335c565b611dad565b6040516102c191906133ef565b60405180910390f35b6102e460048036038101906102df919061340a565b611e90565b6040516102f19190613b1a565b60405180910390f35b610302612031565b60405161030f9190613b4b565b60405180910390f35b610332600480360381019061032d919061340a565b612037565b60405161034799989796959493929190613bbf565b60405180910390f35b61036a6004803603810190610365919061335c565b6124fb565b60405161037791906133ef565b60405180910390f35b61039a60048036038101906103959190613c84565b61254d565b005b6103b660048036038101906103b1919061340a565b612715565b6040516103c99796959493929190613d5b565b60405180910390f35b6103ec60048036038101906103e7919061340a565b612cdc565b6040516103f991906133ef565b60405180910390f35b6000826040516104129190613e30565b908152602001604051809103902060009054906101000a900460ff1661046d576040517f08c379a000000000000000000000000000000000000000000000000000000000815260040161046490613e93565b60405180910390fd5b60048260405161047d9190613e30565b90815260200160405180910390208054905081106104d0576040517f08c379a00000000000000000000000000000000000000000000000000000000081526004016104c790613eff565b60405180910390fd5b600060016004846040516104e49190613e30565b9081526020016040518091039020805490506105009190613f4e565b90508082146105e7576004836040516105199190613e30565b9081526020016040518091039020818154811061053957610538613f82565b5b90600052602060002090600502016004846040516105579190613e30565b9081526020016040518091039020838154811061057757610576613f82565b5b906000526020600020906005020160008201548160000155600182018160010190816105a391906141d3565b50600282018160020190816105b891906141d3565b50600382018160030190816105cd91906141d3565b50600482018160040190816105e291906141d3565b509050505b6004836040516105f79190613e30565b9081526020016040518091039020805480610615576106146142bb565b5b60019003818190600052602060002090600502016000808201600090556001820160006106429190612d10565b6002820160006106529190612d10565b6003820160006106629190612d10565b6004820160006106729190612d10565b50509055505050565b6060600060095467ffffffffffffffff81111561069b5761069a612dfe565b5b6040519080825280602002602001820160405280156106d457816020015b6106c1612d50565b8152602001906001900390816106b95790505b50905060005b600780549050811015610c45576001600782815481106106fd576106fc613f82565b5b90600052602060002001604051610714919061436d565b9081526020016040518091039020604051806101200160405290816000820160009054906101000a900473ffffffffffffffffffffffffffffffffffffffff1673ffffffffffffffffffffffffffffffffffffffff1673ffffffffffffffffffffffffffffffffffffffff16815260200160018201805461079490613fe0565b80601f01602080910402602001604051908101604052809291908181526020018280546107c090613fe0565b801561080d5780601f106107e25761010080835404028352916020019161080d565b820191906000526020600020905b8154815290600101906020018083116107f057829003601f168201915b5050505050815260200160028201805461082690613fe0565b80601f016020809104026020016040519081016040528092919081815260200182805461085290613fe0565b801561089f5780601f106108745761010080835404028352916020019161089f565b820191906000526020600020905b81548152906001019060200180831161088257829003601f168201915b505050505081526020016003820180546108b890613fe0565b80601f01602080910402602001604051908101604052809291908181526020018280546108e490613fe0565b80156109315780601f1061090657610100808354040283529160200191610931565b820191906000526020600020905b81548152906001019060200180831161091457829003601f168201915b5050505050815260200160048201805461094a90613fe0565b80601f016020809104026020016040519081016040528092919081815260200182805461097690613fe0565b80156109c35780601f10610998576101008083540402835291602001916109c3565b820191906000526020600020905b8154815290600101906020018083116109a657829003601f168201915b505050505081526020016005820180546109dc90613fe0565b80601f0160208091040260200160405190810160405280929190818152602001828054610a0890613fe0565b8015610a555780601f10610a2a57610100808354040283529160200191610a55565b820191906000526020600020905b815481529060010190602001808311610a3857829003601f168201915b50505050508152602001600682018054610a6e90613fe0565b80601f0160208091040260200160405190810160405280929190818152602001828054610a9a90613fe0565b8015610ae75780601f10610abc57610100808354040283529160200191610ae7565b820191906000526020600020905b815481529060010190602001808311610aca57829003601f168201915b50505050508152602001600782018054610b0090613fe0565b80601f0160208091040260200160405190810160405280929190818152602001828054610b2c90613fe0565b8015610b795780601f10610b4e57610100808354040283529160200191610b79565b820191906000526020600020905b815481529060010190602001808311610b5c57829003601f168201915b50505050508152602001600882018054610b9290613fe0565b80601f0160208091040260200160405190810160405280929190818152602001828054610bbe90613fe0565b8015610c0b5780601f10610be057610100808354040283529160200191610c0b565b820191906000526020600020905b815481529060010190602001808311610bee57829003601f168201915b505050505081525050828281518110610c2757610c26613f82565b5b60200260200101819052508080610c3d90614384565b9150506106da565b508091505090565b600085604051610c5d9190613e30565b908152602001604051809103902060009054906101000a900460ff16610cb8576040517f08c379a0000000000000000000000000000000000000000000000000000000008152600401610caf90613e93565b60405180910390fd5b60006001600487604051610ccc9190613e30565b908152602001604051809103902080549050610ce891906143cc565b905060006040518060a00160405280838152602001878152602001868152602001858152602001848152509050600487604051610d259190613e30565b9081526020016040518091039020819080600181540180825580915050600190039060005260206000209060050201600090919091909150600082015181600001556020820151816001019081610d7c9190614400565b506040820151816002019081610d929190614400565b506060820151816003019081610da89190614400565b506080820151816004019081610dbe9190614400565b5050507f8f4775464be0f00ec18edc09763cc429346ea195876fd6a0cc73f418f32780748783888787604051610df89594939291906144d2565b60405180910390a150505050505050565b600382805160208101820180518482526020830160208501208183528095505050505050818051602081018201805184825260208301602085012081835280955050505050506000915091509054906101000a900460ff1681565b6000818051602081018201805184825260208301602085012081835280955050505050506000915054906101000a900460ff1681565b600683604051610eaa9190613e30565b908152602001604051809103902060009054906101000a900460ff1615610f06576040517f08c379a0000000000000000000000000000000000000000000000000000000008152600401610efd9061458d565b60405180910390fd5b600060405180606001604052808581526020018481526020018373ffffffffffffffffffffffffffffffffffffffff16815250905080600585604051610f4c9190613e30565b90815260200160405180910390206000820151816000019081610f6f9190614400565b506020820151816001019081610f859190614400565b5060408201518160020160006101000a81548173ffffffffffffffffffffffffffffffffffffffff021916908373ffffffffffffffffffffffffffffffffffffffff1602179055509050506001600685604051610fe29190613e30565b908152602001604051809103902060006101000a81548160ff021916908315150217905550600881908060018154018082558091505060019003906000526020600020906003020160009091909190915060008201518160000190816110489190614400565b50602082015181600101908161105e9190614400565b5060408201518160020160006101000a81548173ffffffffffffffffffffffffffffffffffffffff021916908373ffffffffffffffffffffffffffffffffffffffff160217905550505050505050565b6000816040516110be9190613e30565b908152602001604051809103902060009054906101000a900460ff16611119576040517f08c379a000000000000000000000000000000000000000000000000000000000815260040161111090613e93565b60405180910390fd5b6001816040516111299190613e30565b9081526020016040518091039020600080820160006101000a81549073ffffffffffffffffffffffffffffffffffffffff021916905560018201600061116f9190612d10565b60028201600061117f9190612d10565b60038201600061118f9190612d10565b60048201600061119f9190612d10565b6005820160006111af9190612d10565b6006820160006111bf9190612d10565b6007820160006111cf9190612d10565b6008820160006111df9190612d10565b5050600080826040516111f29190613e30565b908152602001604051809103902060006101000a81548160ff0219169083151502179055506000805b60078054905081101561133e57826040516020016112399190613e30565b604051602081830303815290604052805190602001206007828154811061126357611262613f82565b5b9060005260206000200160405160200161127d919061436d565b604051602081830303815290604052805190602001200361132b57600760016007805490506112ac9190613f4e565b815481106112bd576112bc613f82565b5b90600052602060002001600782815481106112db576112da613f82565b5b9060005260206000200190816112f191906145d8565b506007805480611304576113036142bb565b5b6001900381819060005260206000200160006113209190612d10565b90556001915061133e565b808061133690614384565b91505061121b565b508061137f576040517f08c379a000000000000000000000000000000000000000000000000000000000815260040161137690614732565b60405180910390fd5b6009600081548092919061139290614752565b91905055505050565b6000826040516113ab9190613e30565b908152602001604051809103902060009054906101000a900460ff1615611407576040517f08c379a00000000000000000000000000000000000000000000000000000000081526004016113fe906147c7565b60405180910390fd5b60006040518061012001604052808b73ffffffffffffffffffffffffffffffffffffffff1681526020018a8152602001898152602001888152602001878152602001868152602001858152602001848152602001838152509050806001846040516114729190613e30565b908152602001604051809103902060008201518160000160006101000a81548173ffffffffffffffffffffffffffffffffffffffff021916908373ffffffffffffffffffffffffffffffffffffffff16021790555060208201518160010190816114dc9190614400565b5060408201518160020190816114f29190614400565b5060608201518160030190816115089190614400565b50608082015181600401908161151e9190614400565b5060a08201518160050190816115349190614400565b5060c082015181600601908161154a9190614400565b5060e08201518160070190816115609190614400565b506101008201518160080190816115779190614400565b50905050600160008460405161158d9190613e30565b908152602001604051809103902060006101000a81548160ff0219169083151502179055506007839080600181540180825580915050600190039060005260206000200160009091909190915090816115e69190614400565b50600960008154809291906115fa90614384565b91905055507f319ae3a95b9a410d647835a7e64d54ddf28faf35a698f0a2b63999585fa38edc838a8c604051611632939291906147e7565b60405180910390a150505050505050505050565b60606000826040516116589190613e30565b908152602001604051809103902060009054906101000a900460ff166116b3576040517f08c379a00000000000000000000000000000000000000000000000000000000081526004016116aa90613e93565b60405180910390fd5b6004826040516116c39190613e30565b9081526020016040518091039020805480602002602001604051908101604052809291908181526020016000905b8282101561197557838290600052602060002090600502016040518060a00160405290816000820154815260200160018201805461172e90613fe0565b80601f016020809104026020016040519081016040528092919081815260200182805461175a90613fe0565b80156117a75780601f1061177c576101008083540402835291602001916117a7565b820191906000526020600020905b81548152906001019060200180831161178a57829003601f168201915b505050505081526020016002820180546117c090613fe0565b80601f01602080910402602001604051908101604052809291908181526020018280546117ec90613fe0565b80156118395780601f1061180e57610100808354040283529160200191611839565b820191906000526020600020905b81548152906001019060200180831161181c57829003601f168201915b5050505050815260200160038201805461185290613fe0565b80601f016020809104026020016040519081016040528092919081815260200182805461187e90613fe0565b80156118cb5780601f106118a0576101008083540402835291602001916118cb565b820191906000526020600020905b8154815290600101906020018083116118ae57829003601f168201915b505050505081526020016004820180546118e490613fe0565b80601f016020809104026020016040519081016040528092919081815260200182805461191090613fe0565b801561195d5780601f106119325761010080835404028352916020019161195d565b820191906000526020600020905b81548152906001019060200180831161194057829003601f168201915b505050505081525050815260200190600101906116f1565b505050509050919050565b6003836040516119909190613e30565b9081526020016040518091039020826040516119ac9190613e30565b908152602001604051809103902060009054906101000a900460ff1615611a08576040517f08c379a00000000000000000000000000000000000000000000000000000000081526004016119ff9061489e565b60405180910390fd5b6000805b600284604051611a1c9190613e30565b908152602001604051809103902080549050811015611ae45784604051602001611a469190613e30565b60405160208183030381529060405280519060200120600285604051611a6c9190613e30565b90815260200160405180910390208281548110611a8c57611a8b613f82565b5b9060005260206000209060020201600001604051602001611aad919061436d565b6040516020818303038152906040528051906020012003611ad15760019150611ae4565b8080611adc90614384565b915050611a0c565b5080611b7b5760006040518060400160405280868152602001848152509050600284604051611b139190613e30565b90815260200160405180910390208190806001815401808255809150506001900390600052602060002090600202016000909190919091506000820151816000019081611b609190614400565b506020820151816001019081611b769190614400565b505050505b6001600385604051611b8d9190613e30565b908152602001604051809103902084604051611ba99190613e30565b908152602001604051809103902060006101000a81548160ff02191690831515021790555050505050565b60606008805480602002602001604051908101604052809291908181526020016000905b82821015611da45783829060005260206000209060030201604051806060016040529081600082018054611c2b90613fe0565b80601f0160208091040260200160405190810160405280929190818152602001828054611c5790613fe0565b8015611ca45780601f10611c7957610100808354040283529160200191611ca4565b820191906000526020600020905b815481529060010190602001808311611c8757829003601f168201915b50505050508152602001600182018054611cbd90613fe0565b80601f0160208091040260200160405190810160405280929190818152602001828054611ce990613fe0565b8015611d365780601f10611d0b57610100808354040283529160200191611d36565b820191906000526020600020905b815481529060010190602001808311611d1957829003601f168201915b505050505081526020016002820160009054906101000a900473ffffffffffffffffffffffffffffffffffffffff1673ffffffffffffffffffffffffffffffffffffffff1673ffffffffffffffffffffffffffffffffffffffff168152505081526020019060010190611bf8565b50505050905090565b60008083604051611dbe9190613e30565b908152602001604051809103902060009054906101000a900460ff16611e19576040517f08c379a0000000000000000000000000000000000000000000000000000000008152600401611e1090613e93565b60405180910390fd5b600183604051611e299190613e30565b9081526020016040518091039020600801604051602001611e4a919061436d565b6040516020818303038152906040528051906020012082604051602001611e719190613e30565b6040516020818303038152906040528051906020012014905092915050565b6060600282604051611ea29190613e30565b9081526020016040518091039020805480602002602001604051908101604052809291908181526020016000905b828210156120265783829060005260206000209060020201604051806040016040529081600082018054611f0390613fe0565b80601f0160208091040260200160405190810160405280929190818152602001828054611f2f90613fe0565b8015611f7c5780601f10611f5157610100808354040283529160200191611f7c565b820191906000526020600020905b815481529060010190602001808311611f5f57829003601f168201915b50505050508152602001600182018054611f9590613fe0565b80601f0160208091040260200160405190810160405280929190818152602001828054611fc190613fe0565b801561200e5780601f10611fe35761010080835404028352916020019161200e565b820191906000526020600020905b815481529060010190602001808311611ff157829003601f168201915b50505050508152505081526020019060010190611ed0565b505050509050919050565b60095481565b6001818051602081018201805184825260208301602085012081835280955050505050506000915090508060000160009054906101000a900473ffffffffffffffffffffffffffffffffffffffff169080600101805461209690613fe0565b80601f01602080910402602001604051908101604052809291908181526020018280546120c290613fe0565b801561210f5780601f106120e45761010080835404028352916020019161210f565b820191906000526020600020905b8154815290600101906020018083116120f257829003601f168201915b50505050509080600201805461212490613fe0565b80601f016020809104026020016040519081016040528092919081815260200182805461215090613fe0565b801561219d5780601f106121725761010080835404028352916020019161219d565b820191906000526020600020905b81548152906001019060200180831161218057829003601f168201915b5050505050908060030180546121b290613fe0565b80601f01602080910402602001604051908101604052809291908181526020018280546121de90613fe0565b801561222b5780601f106122005761010080835404028352916020019161222b565b820191906000526020600020905b81548152906001019060200180831161220e57829003601f168201915b50505050509080600401805461224090613fe0565b80601f016020809104026020016040519081016040528092919081815260200182805461226c90613fe0565b80156122b95780601f1061228e576101008083540402835291602001916122b9565b820191906000526020600020905b81548152906001019060200180831161229c57829003601f168201915b5050505050908060050180546122ce90613fe0565b80601f01602080910402602001604051908101604052809291908181526020018280546122fa90613fe0565b80156123475780601f1061231c57610100808354040283529160200191612347565b820191906000526020600020905b81548152906001019060200180831161232a57829003601f168201915b50505050509080600601805461235c90613fe0565b80601f016020809104026020016040519081016040528092919081815260200182805461238890613fe0565b80156123d55780601f106123aa576101008083540402835291602001916123d5565b820191906000526020600020905b8154815290600101906020018083116123b857829003601f168201915b5050505050908060070180546123ea90613fe0565b80601f016020809104026020016040519081016040528092919081815260200182805461241690613fe0565b80156124635780601f1061243857610100808354040283529160200191612463565b820191906000526020600020905b81548152906001019060200180831161244657829003601f168201915b50505050509080600801805461247890613fe0565b80601f01602080910402602001604051908101604052809291908181526020018280546124a490613fe0565b80156124f15780601f106124c6576101008083540402835291602001916124f1565b820191906000526020600020905b8154815290600101906020018083116124d457829003601f168201915b5050505050905089565b600060038360405161250d9190613e30565b9081526020016040518091039020826040516125299190613e30565b908152602001604051809103902060009054906101000a900460ff16905092915050565b60008460405161255d9190613e30565b908152602001604051809103902060009054906101000a900460ff166125b8576040517f08c379a00000000000000000000000000000000000000000000000000000000081526004016125af90613e93565b60405180910390fd5b600060016004866040516125cc9190613e30565b9081526020016040518091039020805490506125e891906143cc565b905060006040518060a001604052808381526020018681526020018581526020018481526020016040518060200160405280600081525081525090506004866040516126349190613e30565b908152602001604051809103902081908060018154018082558091505060019003906000526020600020906005020160009091909190915060008201518160000155602082015181600101908161268b9190614400565b5060408201518160020190816126a19190614400565b5060608201518160030190816126b79190614400565b5060808201518160040190816126cd9190614400565b5050507f8f4775464be0f00ec18edc09763cc429346ea195876fd6a0cc73f418f32780748683878660405161270594939291906148e4565b60405180910390a1505050505050565b60006060806060806060806000886040516127309190613e30565b908152602001604051809103902060009054906101000a900460ff1661278b576040517f08c379a000000000000000000000000000000000000000000000000000000000815260040161278290613e93565b60405180910390fd5b600060018960405161279d9190613e30565b9081526020016040518091039020604051806101200160405290816000820160009054906101000a900473ffffffffffffffffffffffffffffffffffffffff1673ffffffffffffffffffffffffffffffffffffffff1673ffffffffffffffffffffffffffffffffffffffff16815260200160018201805461281d90613fe0565b80601f016020809104026020016040519081016040528092919081815260200182805461284990613fe0565b80156128965780601f1061286b57610100808354040283529160200191612896565b820191906000526020600020905b81548152906001019060200180831161287957829003601f168201915b505050505081526020016002820180546128af90613fe0565b80601f01602080910402602001604051908101604052809291908181526020018280546128db90613fe0565b80156129285780601f106128fd57610100808354040283529160200191612928565b820191906000526020600020905b81548152906001019060200180831161290b57829003601f168201915b5050505050815260200160038201805461294190613fe0565b80601f016020809104026020016040519081016040528092919081815260200182805461296d90613fe0565b80156129ba5780601f1061298f576101008083540402835291602001916129ba565b820191906000526020600020905b81548152906001019060200180831161299d57829003601f168201915b505050505081526020016004820180546129d390613fe0565b80601f01602080910402602001604051908101604052809291908181526020018280546129ff90613fe0565b8015612a4c5780601f10612a2157610100808354040283529160200191612a4c565b820191906000526020600020905b815481529060010190602001808311612a2f57829003601f168201915b50505050508152602001600582018054612a6590613fe0565b80601f0160208091040260200160405190810160405280929190818152602001828054612a9190613fe0565b8015612ade5780601f10612ab357610100808354040283529160200191612ade565b820191906000526020600020905b815481529060010190602001808311612ac157829003601f168201915b50505050508152602001600682018054612af790613fe0565b80601f0160208091040260200160405190810160405280929190818152602001828054612b2390613fe0565b8015612b705780601f10612b4557610100808354040283529160200191612b70565b820191906000526020600020905b815481529060010190602001808311612b5357829003601f168201915b50505050508152602001600782018054612b8990613fe0565b80601f0160208091040260200160405190810160405280929190818152602001828054612bb590613fe0565b8015612c025780601f10612bd757610100808354040283529160200191612c02565b820191906000526020600020905b815481529060010190602001808311612be557829003601f168201915b50505050508152602001600882018054612c1b90613fe0565b80601f0160208091040260200160405190810160405280929190818152602001828054612c4790613fe0565b8015612c945780601f10612c6957610100808354040283529160200191612c94565b820191906000526020600020905b815481529060010190602001808311612c7757829003601f168201915b5050505050815250509050806000015181602001518260400151836060015184608001518560a001518660c00151975097509750975097509750975050919395979092949650565b60008082604051612ced9190613e30565b908152602001604051809103902060009054906101000a900460ff169050919050565b508054612d1c90613fe0565b6000825580601f10612d2e5750612d4d565b601f016020900490600052602060002090810190612d4c9190612db2565b5b50565b604051806101200160405280600073ffffffffffffffffffffffffffffffffffffffff16815260200160608152602001606081526020016060815260200160608152602001606081526020016060815260200160608152602001606081525090565b5b80821115612dcb576000816000905550600101612db3565b5090565b6000604051905090565b600080fd5b600080fd5b600080fd5b600080fd5b6000601f19601f8301169050919050565b7f4e487b7100000000000000000000000000000000000000000000000000000000600052604160045260246000fd5b612e3682612ded565b810181811067ffffffffffffffff82111715612e5557612e54612dfe565b5b80604052505050565b6000612e68612dcf565b9050612e748282612e2d565b919050565b600067ffffffffffffffff821115612e9457612e93612dfe565b5b612e9d82612ded565b9050602081019050919050565b82818337600083830152505050565b6000612ecc612ec784612e79565b612e5e565b905082815260208101848484011115612ee857612ee7612de8565b5b612ef3848285612eaa565b509392505050565b600082601f830112612f1057612f0f612de3565b5b8135612f20848260208601612eb9565b91505092915050565b6000819050919050565b612f3c81612f29565b8114612f4757600080fd5b50565b600081359050612f5981612f33565b92915050565b60008060408385031215612f7657612f75612dd9565b5b600083013567ffffffffffffffff811115612f9457612f93612dde565b5b612fa085828601612efb565b9250506020612fb185828601612f4a565b9150509250929050565b600081519050919050565b600082825260208201905092915050565b6000819050602082019050919050565b600073ffffffffffffffffffffffffffffffffffffffff82169050919050565b600061301282612fe7565b9050919050565b61302281613007565b82525050565b600081519050919050565b600082825260208201905092915050565b60005b83811015613062578082015181840152602081019050613047565b60008484015250505050565b600061307982613028565b6130838185613033565b9350613093818560208601613044565b61309c81612ded565b840191505092915050565b6000610120830160008301516130c06000860182613019565b50602083015184820360208601526130d8828261306e565b915050604083015184820360408601526130f2828261306e565b9150506060830151848203606086015261310c828261306e565b91505060808301518482036080860152613126828261306e565b91505060a083015184820360a0860152613140828261306e565b91505060c083015184820360c086015261315a828261306e565b91505060e083015184820360e0860152613174828261306e565b915050610100830151848203610100860152613190828261306e565b9150508091505092915050565b60006131a983836130a7565b905092915050565b6000602082019050919050565b60006131c982612fbb565b6131d38185612fc6565b9350836020820285016131e585612fd7565b8060005b858110156132215784840389528151613202858261319d565b945061320d836131b1565b925060208a019950506001810190506131e9565b50829750879550505050505092915050565b6000602082019050818103600083015261324d81846131be565b905092915050565b600080600080600060a0868803121561327157613270612dd9565b5b600086013567ffffffffffffffff81111561328f5761328e612dde565b5b61329b88828901612efb565b955050602086013567ffffffffffffffff8111156132bc576132bb612dde565b5b6132c888828901612efb565b945050604086013567ffffffffffffffff8111156132e9576132e8612dde565b5b6132f588828901612efb565b935050606086013567ffffffffffffffff81111561331657613315612dde565b5b61332288828901612efb565b925050608086013567ffffffffffffffff81111561334357613342612dde565b5b61334f88828901612efb565b9150509295509295909350565b6000806040838503121561337357613372612dd9565b5b600083013567ffffffffffffffff81111561339157613390612dde565b5b61339d85828601612efb565b925050602083013567ffffffffffffffff8111156133be576133bd612dde565b5b6133ca85828601612efb565b9150509250929050565b60008115159050919050565b6133e9816133d4565b82525050565b600060208201905061340460008301846133e0565b92915050565b6000602082840312156134205761341f612dd9565b5b600082013567ffffffffffffffff81111561343e5761343d612dde565b5b61344a84828501612efb565b91505092915050565b61345c81613007565b811461346757600080fd5b50565b60008135905061347981613453565b92915050565b60008060006060848603121561349857613497612dd9565b5b600084013567ffffffffffffffff8111156134b6576134b5612dde565b5b6134c286828701612efb565b935050602084013567ffffffffffffffff8111156134e3576134e2612dde565b5b6134ef86828701612efb565b92505060406135008682870161346a565b9150509250925092565b60008060008060008060008060006101208a8c03121561352d5761352c612dd9565b5b600061353b8c828d0161346a565b99505060208a013567ffffffffffffffff81111561355c5761355b612dde565b5b6135688c828d01612efb565b98505060408a013567ffffffffffffffff81111561358957613588612dde565b5b6135958c828d01612efb565b97505060608a013567ffffffffffffffff8111156135b6576135b5612dde565b5b6135c28c828d01612efb565b96505060808a013567ffffffffffffffff8111156135e3576135e2612dde565b5b6135ef8c828d01612efb565b95505060a08a013567ffffffffffffffff8111156136105761360f612dde565b5b61361c8c828d01612efb565b94505060c08a013567ffffffffffffffff81111561363d5761363c612dde565b5b6136498c828d01612efb565b93505060e08a013567ffffffffffffffff81111561366a57613669612dde565b5b6136768c828d01612efb565b9250506101008a013567ffffffffffffffff81111561369857613697612dde565b5b6136a48c828d01612efb565b9150509295985092959850929598565b600081519050919050565b600082825260208201905092915050565b6000819050602082019050919050565b6136e981612f29565b82525050565b600060a08301600083015161370760008601826136e0565b506020830151848203602086015261371f828261306e565b91505060408301518482036040860152613739828261306e565b91505060608301518482036060860152613753828261306e565b9150506080830151848203608086015261376d828261306e565b9150508091505092915050565b600061378683836136ef565b905092915050565b6000602082019050919050565b60006137a6826136b4565b6137b081856136bf565b9350836020820285016137c2856136d0565b8060005b858110156137fe57848403895281516137df858261377a565b94506137ea8361378e565b925060208a019950506001810190506137c6565b50829750879550505050505092915050565b6000602082019050818103600083015261382a818461379b565b905092915050565b60008060006060848603121561384b5761384a612dd9565b5b600084013567ffffffffffffffff81111561386957613868612dde565b5b61387586828701612efb565b935050602084013567ffffffffffffffff81111561389657613895612dde565b5b6138a286828701612efb565b925050604084013567ffffffffffffffff8111156138c3576138c2612dde565b5b6138cf86828701612efb565b9150509250925092565b600081519050919050565b600082825260208201905092915050565b6000819050602082019050919050565b60006060830160008301518482036000860152613922828261306e565b9150506020830151848203602086015261393c828261306e565b91505060408301516139516040860182613019565b508091505092915050565b60006139688383613905565b905092915050565b6000602082019050919050565b6000613988826138d9565b61399281856138e4565b9350836020820285016139a4856138f5565b8060005b858110156139e057848403895281516139c1858261395c565b94506139cc83613970565b925060208a019950506001810190506139a8565b50829750879550505050505092915050565b60006020820190508181036000830152613a0c818461397d565b905092915050565b600081519050919050565b600082825260208201905092915050565b6000819050602082019050919050565b60006040830160008301518482036000860152613a5d828261306e565b91505060208301518482036020860152613a77828261306e565b9150508091505092915050565b6000613a908383613a40565b905092915050565b6000602082019050919050565b6000613ab082613a14565b613aba8185613a1f565b935083602082028501613acc85613a30565b8060005b85811015613b085784840389528151613ae98582613a84565b9450613af483613a98565b925060208a01995050600181019050613ad0565b50829750879550505050505092915050565b60006020820190508181036000830152613b348184613aa5565b905092915050565b613b4581612f29565b82525050565b6000602082019050613b606000830184613b3c565b92915050565b613b6f81613007565b82525050565b600082825260208201905092915050565b6000613b9182613028565b613b9b8185613b75565b9350613bab818560208601613044565b613bb481612ded565b840191505092915050565b600061012082019050613bd5600083018c613b66565b8181036020830152613be7818b613b86565b90508181036040830152613bfb818a613b86565b90508181036060830152613c0f8189613b86565b90508181036080830152613c238188613b86565b905081810360a0830152613c378187613b86565b905081810360c0830152613c4b8186613b86565b905081810360e0830152613c5f8185613b86565b9050818103610100830152613c748184613b86565b90509a9950505050505050505050565b60008060008060808587031215613c9e57613c9d612dd9565b5b600085013567ffffffffffffffff811115613cbc57613cbb612dde565b5b613cc887828801612efb565b945050602085013567ffffffffffffffff811115613ce957613ce8612dde565b5b613cf587828801612efb565b935050604085013567ffffffffffffffff811115613d1657613d15612dde565b5b613d2287828801612efb565b925050606085013567ffffffffffffffff811115613d4357613d42612dde565b5b613d4f87828801612efb565b91505092959194509250565b600060e082019050613d70600083018a613b66565b8181036020830152613d828189613b86565b90508181036040830152613d968188613b86565b90508181036060830152613daa8187613b86565b90508181036080830152613dbe8186613b86565b905081810360a0830152613dd28185613b86565b905081810360c0830152613de68184613b86565b905098975050505050505050565b600081905092915050565b6000613e0a82613028565b613e148185613df4565b9350613e24818560208601613044565b80840191505092915050565b6000613e3c8284613dff565b915081905092915050565b7f50617469656e74206e6f74207265676973746572656400000000000000000000600082015250565b6000613e7d601683613b75565b9150613e8882613e47565b602082019050919050565b60006020820190508181036000830152613eac81613e70565b9050919050565b7f496e76616c6964207265636f726420696e646578000000000000000000000000600082015250565b6000613ee9601483613b75565b9150613ef482613eb3565b602082019050919050565b60006020820190508181036000830152613f1881613edc565b9050919050565b7f4e487b7100000000000000000000000000000000000000000000000000000000600052601160045260246000fd5b6000613f5982612f29565b9150613f6483612f29565b9250828203905081811115613f7c57613f7b613f1f565b5b92915050565b7f4e487b7100000000000000000000000000000000000000000000000000000000600052603260045260246000fd5b7f4e487b7100000000000000000000000000000000000000000000000000000000600052602260045260246000fd5b60006002820490506001821680613ff857607f821691505b60208210810361400b5761400a613fb1565b5b50919050565b60008154905061402081613fe0565b9050919050565b60008190508160005260206000209050919050565b60006020601f8301049050919050565b600082821b905092915050565b6000600883026140897fffffffffffffffffffffffffffffffffffffffffffffffffffffffffffffffff8261404c565b614093868361404c565b95508019841693508086168417925050509392505050565b6000819050919050565b60006140d06140cb6140c684612f29565b6140ab565b612f29565b9050919050565b6000819050919050565b6140ea836140b5565b6140fe6140f6826140d7565b848454614059565b825550505050565b600090565b614113614106565b61411e8184846140e1565b505050565b5b818110156141425761413760008261410b565b600181019050614124565b5050565b601f8211156141875761415881614027565b6141618461403c565b81016020851015614170578190505b61418461417c8561403c565b830182614123565b50505b505050565b600082821c905092915050565b60006141aa6000198460080261418c565b1980831691505092915050565b60006141c38383614199565b9150826002028217905092915050565b8181036141e15750506142b9565b6141ea82614011565b67ffffffffffffffff81111561420357614202612dfe565b5b61420d8254613fe0565b614218828285614146565b6000601f8311600181146142475760008415614235578287015490505b61423f85826141b7565b8655506142b2565b601f19841661425587614027565b965061426086614027565b60005b8281101561428857848901548255600182019150600185019450602081019050614263565b868310156142a557848901546142a1601f891682614199565b8355505b6001600288020188555050505b5050505050505b565b7f4e487b7100000000000000000000000000000000000000000000000000000000600052603160045260246000fd5b600081546142f781613fe0565b6143018186613df4565b9450600182166000811461431c576001811461433157614364565b60ff1983168652811515820286019350614364565b61433a85614027565b60005b8381101561435c5781548189015260018201915060208101905061433d565b838801955050505b50505092915050565b600061437982846142ea565b915081905092915050565b600061438f82612f29565b91507fffffffffffffffffffffffffffffffffffffffffffffffffffffffffffffffff82036143c1576143c0613f1f565b5b600182019050919050565b60006143d782612f29565b91506143e283612f29565b92508282019050808211156143fa576143f9613f1f565b5b92915050565b61440982613028565b67ffffffffffffffff81111561442257614421612dfe565b5b61442c8254613fe0565b614437828285614146565b600060209050601f83116001811461446a5760008415614458578287015190505b61446285826141b7565b8655506144ca565b601f19841661447886614027565b60005b828110156144a05784890151825560018201915060208501945060208101905061447b565b868310156144bd57848901516144b9601f891682614199565b8355505b6001600288020188555050505b505050505050565b600060a08201905081810360008301526144ec8188613b86565b90506144fb6020830187613b3c565b818103604083015261450d8186613b86565b905081810360608301526145218185613b86565b905081810360808301526145358184613b86565b90509695505050505050565b7f446f63746f7220616c7265616479207265676973746572656400000000000000600082015250565b6000614577601983613b75565b915061458282614541565b602082019050919050565b600060208201905081810360008301526145a68161456a565b9050919050565b6000815490506145bc81613fe0565b9050919050565b60008190508160005260206000209050919050565b8181036145e65750506146be565b6145ef826145ad565b67ffffffffffffffff81111561460857614607612dfe565b5b6146128254613fe0565b61461d828285614146565b6000601f83116001811461464c576000841561463a578287015490505b61464485826141b7565b8655506146b7565b601f19841661465a876145c3565b965061466586614027565b60005b8281101561468d57848901548255600182019150600185019450602081019050614668565b868310156146aa57848901546146a6601f891682614199565b8355505b6001600288020188555050505b5050505050505b565b7f50617469656e74204848204e756d626572206e6f7420666f756e6420696e207460008201527f6865206c69737400000000000000000000000000000000000000000000000000602082015250565b600061471c602783613b75565b9150614727826146c0565b604082019050919050565b6000602082019050818103600083015261474b8161470f565b9050919050565b600061475d82612f29565b9150600082036147705761476f613f1f565b5b600182039050919050565b7f50617469656e7420616c72656164792072656769737465726564000000000000600082015250565b60006147b1601a83613b75565b91506147bc8261477b565b602082019050919050565b600060208201905081810360008301526147e0816147a4565b9050919050565b600060608201905081810360008301526148018186613b86565b905081810360208301526148158185613b86565b90506148246040830184613b66565b949350505050565b7f566965772041636365737320616c726561647920676976656e20746f2074686560008201527f20446f63746f7221000000000000000000000000000000000000000000000000602082015250565b6000614888602883613b75565b91506148938261482c565b604082019050919050565b600060208201905081810360008301526148b78161487b565b9050919050565b50565b60006148ce600083613b75565b91506148d9826148be565b600082019050919050565b600060a08201905081810360008301526148fe8187613b86565b905061490d6020830186613b3c565b818103604083015261491f8185613b86565b905081810360608301526149338184613b86565b90508181036080830152614946816148c1565b90509594505050505056fea264697066735822122094d57767594803b3732ac90f63dcc82091f157c85e4e8a99de6df06274ab8da464736f6c63430008130033",
  "immutableReferences": {},
  "source": "// SPDX-License-Identifier: MIT\r\npragma solidity ^0.8.19;\r\n\r\ncontract PatientRegistration {\r\n    struct Patient {\r\n        address walletAddress;\r\n        string name;\r\n        string dateOfBirth;\r\n        string gender;\r\n        string bloodGroup;\r\n        string homeAddress;\r\n        string email;\r\n        string hhNumber;\r\n        string password;\r\n    }\r\n\r\n    struct PatientList {\r\n        string patient_number;\r\n        string patient_name;\r\n    }\r\n\r\n    struct Record {\r\n        uint id;\r\n        string date;\r\n        string description;\r\n        string doctor;\r\n        string ipfsHash; // <-- Added for file support\r\n    }\r\n\r\n    struct DoctorInfo {\r\n        string doctorNumber;\r\n        string doctorName;\r\n        address walletAddress;\r\n    }\r\n\r\n    mapping(string => bool) public isPatientRegistered;\r\n    mapping(string => Patient) public patients;\r\n    mapping(string => PatientList[]) private Dpermission;\r\n    mapping(string => mapping(string => bool)) public doctorPermissions;\r\n    mapping(string => Record[]) private patientRecords;\r\n    mapping(string => DoctorInfo) private doctorInfoByNumber;\r\n    mapping(string => bool) private isDoctorInfoRegistered;\r\n\r\n    string[] private patientHhNumbers;\r\n    DoctorInfo[] private doctorInfoList;\r\n    uint public registeredPatientCount;\r\n\r\n    event PatientRegistered(string hhNumber, string name, address walletAddress);\r\n    event RecordAdded(string hhNumber, uint recordId, string date, string doctor, string ipfsHash); // <-- Updated\r\n\r\n    function registerPatient(\r\n        address _walletAddress,\r\n        string memory _name,\r\n        string memory _dateOfBirth,\r\n        string memory _gender,\r\n        string memory _bloodGroup,\r\n        string memory _homeAddress,\r\n        string memory _email,\r\n        string memory _hhNumber,\r\n        string memory _password\r\n    ) external {\r\n        require(!isPatientRegistered[_hhNumber], \"Patient already registered\");\r\n\r\n        Patient memory newPatient = Patient({\r\n            walletAddress: _walletAddress,\r\n            name: _name,\r\n            dateOfBirth: _dateOfBirth,\r\n            gender: _gender,\r\n            bloodGroup: _bloodGroup,\r\n            homeAddress: _homeAddress,\r\n            email: _email,\r\n            hhNumber: _hhNumber,\r\n            password: _password\r\n        });\r\n\r\n        patients[_hhNumber] = newPatient;\r\n        isPatientRegistered[_hhNumber] = true;\r\n        patientHhNumbers.push(_hhNumber);\r\n        registeredPatientCount++;\r\n        emit PatientRegistered(_hhNumber, _name, _walletAddress);\r\n    }\r\n\r\n    function isRegisteredPatient(string memory _hhNumber) external view returns (bool) {\r\n        return isPatientRegistered[_hhNumber];\r\n    }\r\n\r\n    function validatePassword(string memory _hhNumber, string memory _password) external view returns (bool) {\r\n        require(isPatientRegistered[_hhNumber], \"Patient not registered\");\r\n        return keccak256(abi.encodePacked(_password)) == keccak256(abi.encodePacked(patients[_hhNumber].password));\r\n    }\r\n\r\n    function getPatientDetails(string memory _hhNumber) external view returns (\r\n        address walletAddress,\r\n        string memory name,\r\n        string memory dateOfBirth,\r\n        string memory gender,\r\n        string memory bloodGroup,\r\n        string memory homeAddress,\r\n        string memory email\r\n    ) {\r\n        require(isPatientRegistered[_hhNumber], \"Patient not registered\");\r\n        Patient memory patient = patients[_hhNumber];\r\n        return (patient.walletAddress, patient.name, patient.dateOfBirth, patient.gender, patient.bloodGroup, patient.homeAddress, patient.email);\r\n    }\r\n\r\n    function grantPermission(\r\n        string memory _patientNumber,\r\n        string memory _doctorNumber,\r\n        string memory _patientName\r\n    ) external {\r\n        require(!doctorPermissions[_patientNumber][_doctorNumber], \"View Access already given to the Doctor!\");\r\n        bool exists = false;\r\n        for (uint i = 0; i < Dpermission[_doctorNumber].length; i++) {\r\n            if (keccak256(abi.encodePacked(Dpermission[_doctorNumber][i].patient_number)) == keccak256(abi.encodePacked(_patientNumber))) {\r\n                exists = true;\r\n                break;\r\n            }\r\n        }\r\n        if (!exists) {\r\n            PatientList memory newRecord = PatientList(\r\n                _patientNumber,\r\n                _patientName\r\n            );\r\n            Dpermission[_doctorNumber].push(newRecord);\r\n        }\r\n        doctorPermissions[_patientNumber][_doctorNumber] = true;\r\n    }\r\n\r\n    function isPermissionGranted(string memory _patientNumber, string memory _doctorNumber) external view returns (bool) {\r\n        return doctorPermissions[_patientNumber][_doctorNumber];\r\n    }\r\n\r\n    function getPatientList(string memory _doctorNumber) public view returns (PatientList[] memory) {\r\n        return Dpermission[_doctorNumber];\r\n    }\r\n\r\n    // Old version (for backward compatibility)\r\n    function addPatientRecord(\r\n        string memory _hhNumber,\r\n        string memory _date,\r\n        string memory _description,\r\n        string memory _doctor\r\n    ) external {\r\n        require(isPatientRegistered[_hhNumber], \"Patient not registered\");\r\n\r\n        uint recordId = patientRecords[_hhNumber].length + 1;\r\n        Record memory newRecord = Record({\r\n            id: recordId,\r\n            date: _date,\r\n            description: _description,\r\n            doctor: _doctor,\r\n            ipfsHash: \"\" // No file for legacy calls\r\n        });\r\n\r\n        patientRecords[_hhNumber].push(newRecord);\r\n        emit RecordAdded(_hhNumber, recordId, _date, _doctor, \"\");\r\n    }\r\n\r\n    // New version (with IPFS hash)\r\n    function addPatientRecord(\r\n        string memory _hhNumber,\r\n        string memory _date,\r\n        string memory _description,\r\n        string memory _doctor,\r\n        string memory _ipfsHash\r\n    ) external {\r\n        require(isPatientRegistered[_hhNumber], \"Patient not registered\");\r\n\r\n        uint recordId = patientRecords[_hhNumber].length + 1;\r\n        Record memory newRecord = Record({\r\n            id: recordId,\r\n            date: _date,\r\n            description: _description,\r\n            doctor: _doctor,\r\n            ipfsHash: _ipfsHash\r\n        });\r\n\r\n        patientRecords[_hhNumber].push(newRecord);\r\n        emit RecordAdded(_hhNumber, recordId, _date, _doctor, _ipfsHash);\r\n    }\r\n\r\n    function deletePatientRecord(string memory _hhNumber, uint _index) public {\r\n        require(isPatientRegistered[_hhNumber], \"Patient not registered\");\r\n        require(_index < patientRecords[_hhNumber].length, \"Invalid record index\");\r\n        // Only allow the patient or contract owner to delete (optional: add your own access control)\r\n        // require(msg.sender == patients[_hhNumber].walletAddress, \"Not authorized\");\r\n\r\n        // Move the last record to the deleted spot to maintain array continuity, then pop\r\n        uint lastIndex = patientRecords[_hhNumber].length - 1;\r\n        if (_index != lastIndex) {\r\n            patientRecords[_hhNumber][_index] = patientRecords[_hhNumber][lastIndex];\r\n        }\r\n        patientRecords[_hhNumber].pop();\r\n    }\r\n\r\n    function getPatientRecords(string memory _hhNumber) external view returns (Record[] memory) {\r\n        require(isPatientRegistered[_hhNumber], \"Patient not registered\");\r\n        return patientRecords[_hhNumber];\r\n    }\r\n\r\n    function getAllPatients() public view returns (Patient[] memory) {\r\n        Patient[] memory allPatients = new Patient[](registeredPatientCount);\r\n        for (uint i = 0; i < patientHhNumbers.length; i++) {\r\n            allPatients[i] = patients[patientHhNumbers[i]];\r\n        }\r\n        return allPatients;\r\n    }\r\n\r\n    function removePatient(string memory hhNumber) public {\r\n        require(isPatientRegistered[hhNumber], \"Patient not registered\");\r\n        delete patients[hhNumber];\r\n        isPatientRegistered[hhNumber] = false;\r\n        bool found = false;\r\n        for (uint i = 0; i < patientHhNumbers.length; i++) {\r\n            if (keccak256(abi.encodePacked(patientHhNumbers[i])) == keccak256(abi.encodePacked(hhNumber))) {\r\n                patientHhNumbers[i] = patientHhNumbers[patientHhNumbers.length - 1];\r\n                patientHhNumbers.pop();\r\n                found = true;\r\n                break;\r\n            }\r\n        }\r\n        require(found, \"Patient HH Number not found in the list\");\r\n        registeredPatientCount--;\r\n    }\r\n\r\n    function registerDoctorInfo(\r\n        string memory _doctorNumber,\r\n        string memory _doctorName,\r\n        address _walletAddress\r\n    ) public {\r\n        require(!isDoctorInfoRegistered[_doctorNumber], \"Doctor already registered\");\r\n        DoctorInfo memory doc = DoctorInfo(_doctorNumber, _doctorName, _walletAddress);\r\n        doctorInfoByNumber[_doctorNumber] = doc;\r\n        isDoctorInfoRegistered[_doctorNumber] = true;\r\n        doctorInfoList.push(doc);\r\n    }\r\n\r\n    function getAllDoctorInfo() public view returns (DoctorInfo[] memory) {\r\n        return doctorInfoList;\r\n    }\r\n}\r\n",
  "sourcePath": "C:\\Users\\UDIT NARAYANA K B\\Desktop\\ehr 1 proj\\Secure-Electronic-Health-Records\\src\\contracts\\PatientRegistration.sol",
  "compiler": {
    "name": "solc",
    "version": "0.8.19+commit.7dd6d404.Emscripten.clang"
  },
  "schemaVersion": "3.4.16",
  "updatedAt": "2025-05-03T16:12:54.753Z",
  "networkType": "ethereum",
  "devdoc": {
    "kind": "dev",
    "methods": {},
    "version": 1
  },
  "userdoc": {
    "kind": "user",
    "methods": {},
    "version": 1
  }
}