{
  "contractName": "PatientRegistration",
  "abi": [
    {
      "anonymous": false,
      "inputs": [
        {
          "indexed": false,
          "internalType": "string",
          "name": "hhNumber",
          "type": "string"
        },
        {
          "indexed": false,
          "internalType": "string",
          "name": "name",
          "type": "string"
        },
        {
          "indexed": false,
          "internalType": "address",
          "name": "walletAddress",
          "type": "address"
        }
      ],
      "name": "PatientRegistered",
      "type": "event"
    },
    {
      "anonymous": false,
      "inputs": [
        {
          "indexed": false,
          "internalType": "string",
          "name": "hhNumber",
          "type": "string"
        },
        {
          "indexed": false,
          "internalType": "uint256",
          "name": "recordId",
          "type": "uint256"
        },
        {
          "indexed": false,
          "internalType": "string",
          "name": "date",
          "type": "string"
        },
        {
          "indexed": false,
          "internalType": "string",
          "name": "doctor",
          "type": "string"
        }
      ],
      "name": "RecordAdded",
      "type": "event"
    },
    {
      "inputs": [
        {
          "internalType": "string",
          "name": "",
          "type": "string"
        },
        {
          "internalType": "string",
          "name": "",
          "type": "string"
        }
      ],
      "name": "doctorPermissions",
      "outputs": [
        {
          "internalType": "bool",
          "name": "",
          "type": "bool"
        }
      ],
      "stateMutability": "view",
      "type": "function",
      "constant": true
    },
    {
      "inputs": [
        {
          "internalType": "string",
          "name": "",
          "type": "string"
        }
      ],
      "name": "isPatientRegistered",
      "outputs": [
        {
          "internalType": "bool",
          "name": "",
          "type": "bool"
        }
      ],
      "stateMutability": "view",
      "type": "function",
      "constant": true
    },
    {
      "inputs": [
        {
          "internalType": "string",
          "name": "",
          "type": "string"
        }
      ],
      "name": "patients",
      "outputs": [
        {
          "internalType": "address",
          "name": "walletAddress",
          "type": "address"
        },
        {
          "internalType": "string",
          "name": "name",
          "type": "string"
        },
        {
          "internalType": "string",
          "name": "dateOfBirth",
          "type": "string"
        },
        {
          "internalType": "string",
          "name": "gender",
          "type": "string"
        },
        {
          "internalType": "string",
          "name": "bloodGroup",
          "type": "string"
        },
        {
          "internalType": "string",
          "name": "homeAddress",
          "type": "string"
        },
        {
          "internalType": "string",
          "name": "email",
          "type": "string"
        },
        {
          "internalType": "string",
          "name": "hhNumber",
          "type": "string"
        },
        {
          "internalType": "string",
          "name": "password",
          "type": "string"
        }
      ],
      "stateMutability": "view",
      "type": "function",
      "constant": true
    },
    {
      "inputs": [],
      "name": "registeredPatientCount",
      "outputs": [
        {
          "internalType": "uint256",
          "name": "",
          "type": "uint256"
        }
      ],
      "stateMutability": "view",
      "type": "function",
      "constant": true
    },
    {
      "inputs": [
        {
          "internalType": "address",
          "name": "_walletAddress",
          "type": "address"
        },
        {
          "internalType": "string",
          "name": "_name",
          "type": "string"
        },
        {
          "internalType": "string",
          "name": "_dateOfBirth",
          "type": "string"
        },
        {
          "internalType": "string",
          "name": "_gender",
          "type": "string"
        },
        {
          "internalType": "string",
          "name": "_bloodGroup",
          "type": "string"
        },
        {
          "internalType": "string",
          "name": "_homeAddress",
          "type": "string"
        },
        {
          "internalType": "string",
          "name": "_email",
          "type": "string"
        },
        {
          "internalType": "string",
          "name": "_hhNumber",
          "type": "string"
        },
        {
          "internalType": "string",
          "name": "_password",
          "type": "string"
        }
      ],
      "name": "registerPatient",
      "outputs": [],
      "stateMutability": "nonpayable",
      "type": "function"
    },
    {
      "inputs": [
        {
          "internalType": "string",
          "name": "_hhNumber",
          "type": "string"
        }
      ],
      "name": "isRegisteredPatient",
      "outputs": [
        {
          "internalType": "bool",
          "name": "",
          "type": "bool"
        }
      ],
      "stateMutability": "view",
      "type": "function",
      "constant": true
    },
    {
      "inputs": [
        {
          "internalType": "string",
          "name": "_hhNumber",
          "type": "string"
        },
        {
          "internalType": "string",
          "name": "_password",
          "type": "string"
        }
      ],
      "name": "validatePassword",
      "outputs": [
        {
          "internalType": "bool",
          "name": "",
          "type": "bool"
        }
      ],
      "stateMutability": "view",
      "type": "function",
      "constant": true
    },
    {
      "inputs": [
        {
          "internalType": "string",
          "name": "_hhNumber",
          "type": "string"
        }
      ],
      "name": "getPatientDetails",
      "outputs": [
        {
          "internalType": "address",
          "name": "walletAddress",
          "type": "address"
        },
        {
          "internalType": "string",
          "name": "name",
          "type": "string"
        },
        {
          "internalType": "string",
          "name": "dateOfBirth",
          "type": "string"
        },
        {
          "internalType": "string",
          "name": "gender",
          "type": "string"
        },
        {
          "internalType": "string",
          "name": "bloodGroup",
          "type": "string"
        },
        {
          "internalType": "string",
          "name": "homeAddress",
          "type": "string"
        },
        {
          "internalType": "string",
          "name": "email",
          "type": "string"
        }
      ],
      "stateMutability": "view",
      "type": "function",
      "constant": true
    },
    {
      "inputs": [
        {
          "internalType": "string",
          "name": "_patientNumber",
          "type": "string"
        },
        {
          "internalType": "string",
          "name": "_doctorNumber",
          "type": "string"
        },
        {
          "internalType": "string",
          "name": "_patientName",
          "type": "string"
        }
      ],
      "name": "grantPermission",
      "outputs": [],
      "stateMutability": "nonpayable",
      "type": "function"
    },
    {
      "inputs": [
        {
          "internalType": "string",
          "name": "_patientNumber",
          "type": "string"
        },
        {
          "internalType": "string",
          "name": "_doctorNumber",
          "type": "string"
        }
      ],
      "name": "isPermissionGranted",
      "outputs": [
        {
          "internalType": "bool",
          "name": "",
          "type": "bool"
        }
      ],
      "stateMutability": "view",
      "type": "function",
      "constant": true
    },
    {
      "inputs": [
        {
          "internalType": "string",
          "name": "_doctorNumber",
          "type": "string"
        }
      ],
      "name": "getPatientList",
      "outputs": [
        {
          "components": [
            {
              "internalType": "string",
              "name": "patient_number",
              "type": "string"
            },
            {
              "internalType": "string",
              "name": "patient_name",
              "type": "string"
            }
          ],
          "internalType": "struct PatientRegistration.PatientList[]",
          "name": "",
          "type": "tuple[]"
        }
      ],
      "stateMutability": "view",
      "type": "function",
      "constant": true
    },
    {
      "inputs": [
        {
          "internalType": "string",
          "name": "_hhNumber",
          "type": "string"
        },
        {
          "internalType": "string",
          "name": "_date",
          "type": "string"
        },
        {
          "internalType": "string",
          "name": "_description",
          "type": "string"
        },
        {
          "internalType": "string",
          "name": "_doctor",
          "type": "string"
        }
      ],
      "name": "addPatientRecord",
      "outputs": [],
      "stateMutability": "nonpayable",
      "type": "function"
    },
    {
      "inputs": [
        {
          "internalType": "string",
          "name": "_hhNumber",
          "type": "string"
        }
      ],
      "name": "getPatientRecords",
      "outputs": [
        {
          "components": [
            {
              "internalType": "uint256",
              "name": "id",
              "type": "uint256"
            },
            {
              "internalType": "string",
              "name": "date",
              "type": "string"
            },
            {
              "internalType": "string",
              "name": "description",
              "type": "string"
            },
            {
              "internalType": "string",
              "name": "doctor",
              "type": "string"
            }
          ],
          "internalType": "struct PatientRegistration.Record[]",
          "name": "",
          "type": "tuple[]"
        }
      ],
      "stateMutability": "view",
      "type": "function",
      "constant": true
    },
    {
      "inputs": [],
      "name": "getAllPatients",
      "outputs": [
        {
          "components": [
            {
              "internalType": "address",
              "name": "walletAddress",
              "type": "address"
            },
            {
              "internalType": "string",
              "name": "name",
              "type": "string"
            },
            {
              "internalType": "string",
              "name": "dateOfBirth",
              "type": "string"
            },
            {
              "internalType": "string",
              "name": "gender",
              "type": "string"
            },
            {
              "internalType": "string",
              "name": "bloodGroup",
              "type": "string"
            },
            {
              "internalType": "string",
              "name": "homeAddress",
              "type": "string"
            },
            {
              "internalType": "string",
              "name": "email",
              "type": "string"
            },
            {
              "internalType": "string",
              "name": "hhNumber",
              "type": "string"
            },
            {
              "internalType": "string",
              "name": "password",
              "type": "string"
            }
          ],
          "internalType": "struct PatientRegistration.Patient[]",
          "name": "",
          "type": "tuple[]"
        }
      ],
      "stateMutability": "view",
      "type": "function",
      "constant": true
    },
    {
      "inputs": [
        {
          "internalType": "string",
          "name": "hhNumber",
          "type": "string"
        }
      ],
      "name": "removePatient",
      "outputs": [],
      "stateMutability": "nonpayable",
      "type": "function"
    }
  ],
  "bytecode": "0x608060405234801561001057600080fd5b50613945806100206000396000f3fe608060405234801561001057600080fd5b50600436106100f55760003560e01c80637babdb2611610097578063d120c10c11610066578063d120c10c146102b2578063ea6785ff146102e2578063ea977fc8146102fe578063f725264114610334576100f5565b80637babdb26146101fc57806391c12f761461022c578063ac39c72c1461025c578063c6009d841461027a576100f5565b806356cf1fc4116100d357806356cf1fc41461017857806357812a08146101945780635cd40af5146101b05780635df67040146101e0576100f5565b806318a231a9146100fa57806344334733146101185780634f10c6c214610148575b600080fd5b610102610364565b60405161010f9190612695565b60405180910390f35b610132600480360381019061012d9190612800565b610936565b60405161013f9190612893565b60405180910390f35b610162600480360381019061015d91906128ae565b610991565b60405161016f9190612893565b60405180910390f35b610192600480360381019061018d91906128ae565b6109c7565b005b6101ae60048036038101906101a99190612923565b610c6e565b005b6101ca60048036038101906101c591906128ae565b610f19565b6040516101d79190612c19565b60405180910390f35b6101fa60048036038101906101f59190612c3b565b6111c1565b005b61021660048036038101906102119190612800565b611415565b6040516102239190612893565b60405180910390f35b610246600480360381019061024191906128ae565b6114f8565b6040516102539190612de8565b60405180910390f35b610264611699565b6040516102719190612e19565b60405180910390f35b610294600480360381019061028f91906128ae565b61169f565b6040516102a999989796959493929190612e8d565b60405180910390f35b6102cc60048036038101906102c79190612800565b611b63565b6040516102d99190612893565b60405180910390f35b6102fc60048036038101906102f79190612f52565b611bb5565b005b610318600480360381019061031391906128ae565b611d52565b60405161032b9796959493929190613029565b60405180910390f35b61034e600480360381019061034991906128ae565b612319565b60405161035b9190612893565b60405180910390f35b6060600060065467ffffffffffffffff811115610384576103836126d5565b5b6040519080825280602002602001820160405280156103bd57816020015b6103aa61234d565b8152602001906001900390816103a25790505b50905060005b60058054905081101561092e576001600582815481106103e6576103e56130c2565b5b906000526020600020016040516103fd91906131f4565b9081526020016040518091039020604051806101200160405290816000820160009054906101000a900473ffffffffffffffffffffffffffffffffffffffff1673ffffffffffffffffffffffffffffffffffffffff1673ffffffffffffffffffffffffffffffffffffffff16815260200160018201805461047d90613120565b80601f01602080910402602001604051908101604052809291908181526020018280546104a990613120565b80156104f65780601f106104cb576101008083540402835291602001916104f6565b820191906000526020600020905b8154815290600101906020018083116104d957829003601f168201915b5050505050815260200160028201805461050f90613120565b80601f016020809104026020016040519081016040528092919081815260200182805461053b90613120565b80156105885780601f1061055d57610100808354040283529160200191610588565b820191906000526020600020905b81548152906001019060200180831161056b57829003601f168201915b505050505081526020016003820180546105a190613120565b80601f01602080910402602001604051908101604052809291908181526020018280546105cd90613120565b801561061a5780601f106105ef5761010080835404028352916020019161061a565b820191906000526020600020905b8154815290600101906020018083116105fd57829003601f168201915b5050505050815260200160048201805461063390613120565b80601f016020809104026020016040519081016040528092919081815260200182805461065f90613120565b80156106ac5780601f10610681576101008083540402835291602001916106ac565b820191906000526020600020905b81548152906001019060200180831161068f57829003601f168201915b505050505081526020016005820180546106c590613120565b80601f01602080910402602001604051908101604052809291908181526020018280546106f190613120565b801561073e5780601f106107135761010080835404028352916020019161073e565b820191906000526020600020905b81548152906001019060200180831161072157829003601f168201915b5050505050815260200160068201805461075790613120565b80601f016020809104026020016040519081016040528092919081815260200182805461078390613120565b80156107d05780601f106107a5576101008083540402835291602001916107d0565b820191906000526020600020905b8154815290600101906020018083116107b357829003601f168201915b505050505081526020016007820180546107e990613120565b80601f016020809104026020016040519081016040528092919081815260200182805461081590613120565b80156108625780601f1061083757610100808354040283529160200191610862565b820191906000526020600020905b81548152906001019060200180831161084557829003601f168201915b5050505050815260200160088201805461087b90613120565b80601f01602080910402602001604051908101604052809291908181526020018280546108a790613120565b80156108f45780601f106108c9576101008083540402835291602001916108f4565b820191906000526020600020905b8154815290600101906020018083116108d757829003601f168201915b5050505050815250508282815181106109105761090f6130c2565b5b602002602001018190525080806109269061323a565b9150506103c3565b508091505090565b600382805160208101820180518482526020830160208501208183528095505050505050818051602081018201805184825260208301602085012081835280955050505050506000915091509054906101000a900460ff1681565b6000818051602081018201805184825260208301602085012081835280955050505050506000915054906101000a900460ff1681565b6000816040516109d791906132b3565b908152602001604051809103902060009054906101000a900460ff16610a32576040517f08c379a0000000000000000000000000000000000000000000000000000000008152600401610a2990613316565b60405180910390fd5b600181604051610a4291906132b3565b9081526020016040518091039020600080820160006101000a81549073ffffffffffffffffffffffffffffffffffffffff0219169055600182016000610a8891906123af565b600282016000610a9891906123af565b600382016000610aa891906123af565b600482016000610ab891906123af565b600582016000610ac891906123af565b600682016000610ad891906123af565b600782016000610ae891906123af565b600882016000610af891906123af565b505060008082604051610b0b91906132b3565b908152602001604051809103902060006101000a81548160ff02191690831515021790555060005b600580549050811015610c525781604051602001610b5191906132b3565b6040516020818303038152906040528051906020012060058281548110610b7b57610b7a6130c2565b5b90600052602060002001604051602001610b9591906131f4565b6040516020818303038152906040528051906020012003610c3f5760056001600580549050610bc49190613336565b81548110610bd557610bd46130c2565b5b9060005260206000200160058281548110610bf357610bf26130c2565b5b906000526020600020019081610c09919061352c565b506005805480610c1c57610c1b613614565b5b600190038181906000526020600020016000610c3891906123af565b9055610c52565b8080610c4a9061323a565b915050610b33565b5060066000815480929190610c6690613643565b919050555050565b600082604051610c7e91906132b3565b908152602001604051809103902060009054906101000a900460ff1615610cda576040517f08c379a0000000000000000000000000000000000000000000000000000000008152600401610cd1906136b8565b60405180910390fd5b60006040518061012001604052808b73ffffffffffffffffffffffffffffffffffffffff1681526020018a815260200189815260200188815260200187815260200186815260200185815260200184815260200183815250905080600184604051610d4591906132b3565b908152602001604051809103902060008201518160000160006101000a81548173ffffffffffffffffffffffffffffffffffffffff021916908373ffffffffffffffffffffffffffffffffffffffff1602179055506020820151816001019081610daf91906136d8565b506040820151816002019081610dc591906136d8565b506060820151816003019081610ddb91906136d8565b506080820151816004019081610df191906136d8565b5060a0820151816005019081610e0791906136d8565b5060c0820151816006019081610e1d91906136d8565b5060e0820151816007019081610e3391906136d8565b50610100820151816008019081610e4a91906136d8565b509050506001600084604051610e6091906132b3565b908152602001604051809103902060006101000a81548160ff021916908315150217905550600583908060018154018082558091505060019003906000526020600020016000909190919091509081610eb991906136d8565b5060066000815480929190610ecd9061323a565b91905055507f319ae3a95b9a410d647835a7e64d54ddf28faf35a698f0a2b63999585fa38edc838a8c604051610f05939291906137aa565b60405180910390a150505050505050505050565b6060600082604051610f2b91906132b3565b908152602001604051809103902060009054906101000a900460ff16610f86576040517f08c379a0000000000000000000000000000000000000000000000000000000008152600401610f7d90613316565b60405180910390fd5b600482604051610f9691906132b3565b9081526020016040518091039020805480602002602001604051908101604052809291908181526020016000905b828210156111b657838290600052602060002090600402016040518060800160405290816000820154815260200160018201805461100190613120565b80601f016020809104026020016040519081016040528092919081815260200182805461102d90613120565b801561107a5780601f1061104f5761010080835404028352916020019161107a565b820191906000526020600020905b81548152906001019060200180831161105d57829003601f168201915b5050505050815260200160028201805461109390613120565b80601f01602080910402602001604051908101604052809291908181526020018280546110bf90613120565b801561110c5780601f106110e15761010080835404028352916020019161110c565b820191906000526020600020905b8154815290600101906020018083116110ef57829003601f168201915b5050505050815260200160038201805461112590613120565b80601f016020809104026020016040519081016040528092919081815260200182805461115190613120565b801561119e5780601f106111735761010080835404028352916020019161119e565b820191906000526020600020905b81548152906001019060200180831161118157829003601f168201915b50505050508152505081526020019060010190610fc4565b505050509050919050565b6003836040516111d191906132b3565b9081526020016040518091039020826040516111ed91906132b3565b908152602001604051809103902060009054906101000a900460ff1615611249576040517f08c379a000000000000000000000000000000000000000000000000000000000815260040161124090613861565b60405180910390fd5b6000805b60028460405161125d91906132b3565b908152602001604051809103902080549050811015611325578460405160200161128791906132b3565b604051602081830303815290604052805190602001206002856040516112ad91906132b3565b908152602001604051809103902082815481106112cd576112cc6130c2565b5b90600052602060002090600202016000016040516020016112ee91906131f4565b60405160208183030381529060405280519060200120036113125760019150611325565b808061131d9061323a565b91505061124d565b50806113bc576000604051806040016040528086815260200184815250905060028460405161135491906132b3565b908152602001604051809103902081908060018154018082558091505060019003906000526020600020906002020160009091909190915060008201518160000190816113a191906136d8565b5060208201518160010190816113b791906136d8565b505050505b60016003856040516113ce91906132b3565b9081526020016040518091039020846040516113ea91906132b3565b908152602001604051809103902060006101000a81548160ff02191690831515021790555050505050565b6000808360405161142691906132b3565b908152602001604051809103902060009054906101000a900460ff16611481576040517f08c379a000000000000000000000000000000000000000000000000000000000815260040161147890613316565b60405180910390fd5b60018360405161149191906132b3565b90815260200160405180910390206008016040516020016114b291906131f4565b60405160208183030381529060405280519060200120826040516020016114d991906132b3565b6040516020818303038152906040528051906020012014905092915050565b606060028260405161150a91906132b3565b9081526020016040518091039020805480602002602001604051908101604052809291908181526020016000905b8282101561168e578382906000526020600020906002020160405180604001604052908160008201805461156b90613120565b80601f016020809104026020016040519081016040528092919081815260200182805461159790613120565b80156115e45780601f106115b9576101008083540402835291602001916115e4565b820191906000526020600020905b8154815290600101906020018083116115c757829003601f168201915b505050505081526020016001820180546115fd90613120565b80601f016020809104026020016040519081016040528092919081815260200182805461162990613120565b80156116765780601f1061164b57610100808354040283529160200191611676565b820191906000526020600020905b81548152906001019060200180831161165957829003601f168201915b50505050508152505081526020019060010190611538565b505050509050919050565b60065481565b6001818051602081018201805184825260208301602085012081835280955050505050506000915090508060000160009054906101000a900473ffffffffffffffffffffffffffffffffffffffff16908060010180546116fe90613120565b80601f016020809104026020016040519081016040528092919081815260200182805461172a90613120565b80156117775780601f1061174c57610100808354040283529160200191611777565b820191906000526020600020905b81548152906001019060200180831161175a57829003601f168201915b50505050509080600201805461178c90613120565b80601f01602080910402602001604051908101604052809291908181526020018280546117b890613120565b80156118055780601f106117da57610100808354040283529160200191611805565b820191906000526020600020905b8154815290600101906020018083116117e857829003601f168201915b50505050509080600301805461181a90613120565b80601f016020809104026020016040519081016040528092919081815260200182805461184690613120565b80156118935780601f1061186857610100808354040283529160200191611893565b820191906000526020600020905b81548152906001019060200180831161187657829003601f168201915b5050505050908060040180546118a890613120565b80601f01602080910402602001604051908101604052809291908181526020018280546118d490613120565b80156119215780601f106118f657610100808354040283529160200191611921565b820191906000526020600020905b81548152906001019060200180831161190457829003601f168201915b50505050509080600501805461193690613120565b80601f016020809104026020016040519081016040528092919081815260200182805461196290613120565b80156119af5780601f10611984576101008083540402835291602001916119af565b820191906000526020600020905b81548152906001019060200180831161199257829003601f168201915b5050505050908060060180546119c490613120565b80601f01602080910402602001604051908101604052809291908181526020018280546119f090613120565b8015611a3d5780601f10611a1257610100808354040283529160200191611a3d565b820191906000526020600020905b815481529060010190602001808311611a2057829003601f168201915b505050505090806007018054611a5290613120565b80601f0160208091040260200160405190810160405280929190818152602001828054611a7e90613120565b8015611acb5780601f10611aa057610100808354040283529160200191611acb565b820191906000526020600020905b815481529060010190602001808311611aae57829003601f168201915b505050505090806008018054611ae090613120565b80601f0160208091040260200160405190810160405280929190818152602001828054611b0c90613120565b8015611b595780601f10611b2e57610100808354040283529160200191611b59565b820191906000526020600020905b815481529060010190602001808311611b3c57829003601f168201915b5050505050905089565b6000600383604051611b7591906132b3565b908152602001604051809103902082604051611b9191906132b3565b908152602001604051809103902060009054906101000a900460ff16905092915050565b600084604051611bc591906132b3565b908152602001604051809103902060009054906101000a900460ff16611c20576040517f08c379a0000000000000000000000000000000000000000000000000000000008152600401611c1790613316565b60405180910390fd5b60006001600486604051611c3491906132b3565b908152602001604051809103902080549050611c509190613881565b905060006040518060800160405280838152602001868152602001858152602001848152509050600486604051611c8791906132b3565b9081526020016040518091039020819080600181540180825580915050600190039060005260206000209060040201600090919091909150600082015181600001556020820151816001019081611cde91906136d8565b506040820151816002019081611cf491906136d8565b506060820151816003019081611d0a91906136d8565b5050507fb283fa20a5a3f94da8be40e4f7a6330f64a2487bf0a951686751be5bf73d6b1886838786604051611d4294939291906138b5565b60405180910390a1505050505050565b6000606080606080606080600088604051611d6d91906132b3565b908152602001604051809103902060009054906101000a900460ff16611dc8576040517f08c379a0000000000000000000000000000000000000000000000000000000008152600401611dbf90613316565b60405180910390fd5b6000600189604051611dda91906132b3565b9081526020016040518091039020604051806101200160405290816000820160009054906101000a900473ffffffffffffffffffffffffffffffffffffffff1673ffffffffffffffffffffffffffffffffffffffff1673ffffffffffffffffffffffffffffffffffffffff168152602001600182018054611e5a90613120565b80601f0160208091040260200160405190810160405280929190818152602001828054611e8690613120565b8015611ed35780601f10611ea857610100808354040283529160200191611ed3565b820191906000526020600020905b815481529060010190602001808311611eb657829003601f168201915b50505050508152602001600282018054611eec90613120565b80601f0160208091040260200160405190810160405280929190818152602001828054611f1890613120565b8015611f655780601f10611f3a57610100808354040283529160200191611f65565b820191906000526020600020905b815481529060010190602001808311611f4857829003601f168201915b50505050508152602001600382018054611f7e90613120565b80601f0160208091040260200160405190810160405280929190818152602001828054611faa90613120565b8015611ff75780601f10611fcc57610100808354040283529160200191611ff7565b820191906000526020600020905b815481529060010190602001808311611fda57829003601f168201915b5050505050815260200160048201805461201090613120565b80601f016020809104026020016040519081016040528092919081815260200182805461203c90613120565b80156120895780601f1061205e57610100808354040283529160200191612089565b820191906000526020600020905b81548152906001019060200180831161206c57829003601f168201915b505050505081526020016005820180546120a290613120565b80601f01602080910402602001604051908101604052809291908181526020018280546120ce90613120565b801561211b5780601f106120f05761010080835404028352916020019161211b565b820191906000526020600020905b8154815290600101906020018083116120fe57829003601f168201915b5050505050815260200160068201805461213490613120565b80601f016020809104026020016040519081016040528092919081815260200182805461216090613120565b80156121ad5780601f10612182576101008083540402835291602001916121ad565b820191906000526020600020905b81548152906001019060200180831161219057829003601f168201915b505050505081526020016007820180546121c690613120565b80601f01602080910402602001604051908101604052809291908181526020018280546121f290613120565b801561223f5780601f106122145761010080835404028352916020019161223f565b820191906000526020600020905b81548152906001019060200180831161222257829003601f168201915b5050505050815260200160088201805461225890613120565b80601f016020809104026020016040519081016040528092919081815260200182805461228490613120565b80156122d15780601f106122a6576101008083540402835291602001916122d1565b820191906000526020600020905b8154815290600101906020018083116122b457829003601f168201915b5050505050815250509050806000015181602001518260400151836060015184608001518560a001518660c00151975097509750975097509750975050919395979092949650565b6000808260405161232a91906132b3565b908152602001604051809103902060009054906101000a900460ff169050919050565b604051806101200160405280600073ffffffffffffffffffffffffffffffffffffffff16815260200160608152602001606081526020016060815260200160608152602001606081526020016060815260200160608152602001606081525090565b5080546123bb90613120565b6000825580601f106123cd57506123ec565b601f0160209004906000526020600020908101906123eb91906123ef565b5b50565b5b808211156124085760008160009055506001016123f0565b5090565b600081519050919050565b600082825260208201905092915050565b6000819050602082019050919050565b600073ffffffffffffffffffffffffffffffffffffffff82169050919050565b600061246382612438565b9050919050565b61247381612458565b82525050565b600081519050919050565b600082825260208201905092915050565b60005b838110156124b3578082015181840152602081019050612498565b60008484015250505050565b6000601f19601f8301169050919050565b60006124db82612479565b6124e58185612484565b93506124f5818560208601612495565b6124fe816124bf565b840191505092915050565b600061012083016000830151612522600086018261246a565b506020830151848203602086015261253a82826124d0565b9150506040830151848203604086015261255482826124d0565b9150506060830151848203606086015261256e82826124d0565b9150506080830151848203608086015261258882826124d0565b91505060a083015184820360a08601526125a282826124d0565b91505060c083015184820360c08601526125bc82826124d0565b91505060e083015184820360e08601526125d682826124d0565b9150506101008301518482036101008601526125f282826124d0565b9150508091505092915050565b600061260b8383612509565b905092915050565b6000602082019050919050565b600061262b8261240c565b6126358185612417565b93508360208202850161264785612428565b8060005b85811015612683578484038952815161266485826125ff565b945061266f83612613565b925060208a0199505060018101905061264b565b50829750879550505050505092915050565b600060208201905081810360008301526126af8184612620565b905092915050565b6000604051905090565b600080fd5b600080fd5b600080fd5b600080fd5b7f4e487b7100000000000000000000000000000000000000000000000000000000600052604160045260246000fd5b61270d826124bf565b810181811067ffffffffffffffff8211171561272c5761272b6126d5565b5b80604052505050565b600061273f6126b7565b905061274b8282612704565b919050565b600067ffffffffffffffff82111561276b5761276a6126d5565b5b612774826124bf565b9050602081019050919050565b82818337600083830152505050565b60006127a361279e84612750565b612735565b9050828152602081018484840111156127bf576127be6126d0565b5b6127ca848285612781565b509392505050565b600082601f8301126127e7576127e66126cb565b5b81356127f7848260208601612790565b91505092915050565b60008060408385031215612817576128166126c1565b5b600083013567ffffffffffffffff811115612835576128346126c6565b5b612841858286016127d2565b925050602083013567ffffffffffffffff811115612862576128616126c6565b5b61286e858286016127d2565b9150509250929050565b60008115159050919050565b61288d81612878565b82525050565b60006020820190506128a86000830184612884565b92915050565b6000602082840312156128c4576128c36126c1565b5b600082013567ffffffffffffffff8111156128e2576128e16126c6565b5b6128ee848285016127d2565b91505092915050565b61290081612458565b811461290b57600080fd5b50565b60008135905061291d816128f7565b92915050565b60008060008060008060008060006101208a8c031215612946576129456126c1565b5b60006129548c828d0161290e565b99505060208a013567ffffffffffffffff811115612975576129746126c6565b5b6129818c828d016127d2565b98505060408a013567ffffffffffffffff8111156129a2576129a16126c6565b5b6129ae8c828d016127d2565b97505060608a013567ffffffffffffffff8111156129cf576129ce6126c6565b5b6129db8c828d016127d2565b96505060808a013567ffffffffffffffff8111156129fc576129fb6126c6565b5b612a088c828d016127d2565b95505060a08a013567ffffffffffffffff811115612a2957612a286126c6565b5b612a358c828d016127d2565b94505060c08a013567ffffffffffffffff811115612a5657612a556126c6565b5b612a628c828d016127d2565b93505060e08a013567ffffffffffffffff811115612a8357612a826126c6565b5b612a8f8c828d016127d2565b9250506101008a013567ffffffffffffffff811115612ab157612ab06126c6565b5b612abd8c828d016127d2565b9150509295985092959850929598565b600081519050919050565b600082825260208201905092915050565b6000819050602082019050919050565b6000819050919050565b612b0c81612af9565b82525050565b6000608083016000830151612b2a6000860182612b03565b5060208301518482036020860152612b4282826124d0565b91505060408301518482036040860152612b5c82826124d0565b91505060608301518482036060860152612b7682826124d0565b9150508091505092915050565b6000612b8f8383612b12565b905092915050565b6000602082019050919050565b6000612baf82612acd565b612bb98185612ad8565b935083602082028501612bcb85612ae9565b8060005b85811015612c075784840389528151612be88582612b83565b9450612bf383612b97565b925060208a01995050600181019050612bcf565b50829750879550505050505092915050565b60006020820190508181036000830152612c338184612ba4565b905092915050565b600080600060608486031215612c5457612c536126c1565b5b600084013567ffffffffffffffff811115612c7257612c716126c6565b5b612c7e868287016127d2565b935050602084013567ffffffffffffffff811115612c9f57612c9e6126c6565b5b612cab868287016127d2565b925050604084013567ffffffffffffffff811115612ccc57612ccb6126c6565b5b612cd8868287016127d2565b9150509250925092565b600081519050919050565b600082825260208201905092915050565b6000819050602082019050919050565b60006040830160008301518482036000860152612d2b82826124d0565b91505060208301518482036020860152612d4582826124d0565b9150508091505092915050565b6000612d5e8383612d0e565b905092915050565b6000602082019050919050565b6000612d7e82612ce2565b612d888185612ced565b935083602082028501612d9a85612cfe565b8060005b85811015612dd65784840389528151612db78582612d52565b9450612dc283612d66565b925060208a01995050600181019050612d9e565b50829750879550505050505092915050565b60006020820190508181036000830152612e028184612d73565b905092915050565b612e1381612af9565b82525050565b6000602082019050612e2e6000830184612e0a565b92915050565b612e3d81612458565b82525050565b600082825260208201905092915050565b6000612e5f82612479565b612e698185612e43565b9350612e79818560208601612495565b612e82816124bf565b840191505092915050565b600061012082019050612ea3600083018c612e34565b8181036020830152612eb5818b612e54565b90508181036040830152612ec9818a612e54565b90508181036060830152612edd8189612e54565b90508181036080830152612ef18188612e54565b905081810360a0830152612f058187612e54565b905081810360c0830152612f198186612e54565b905081810360e0830152612f2d8185612e54565b9050818103610100830152612f428184612e54565b90509a9950505050505050505050565b60008060008060808587031215612f6c57612f6b6126c1565b5b600085013567ffffffffffffffff811115612f8a57612f896126c6565b5b612f96878288016127d2565b945050602085013567ffffffffffffffff811115612fb757612fb66126c6565b5b612fc3878288016127d2565b935050604085013567ffffffffffffffff811115612fe457612fe36126c6565b5b612ff0878288016127d2565b925050606085013567ffffffffffffffff811115613011576130106126c6565b5b61301d878288016127d2565b91505092959194509250565b600060e08201905061303e600083018a612e34565b81810360208301526130508189612e54565b905081810360408301526130648188612e54565b905081810360608301526130788187612e54565b9050818103608083015261308c8186612e54565b905081810360a08301526130a08185612e54565b905081810360c08301526130b48184612e54565b905098975050505050505050565b7f4e487b7100000000000000000000000000000000000000000000000000000000600052603260045260246000fd5b7f4e487b7100000000000000000000000000000000000000000000000000000000600052602260045260246000fd5b6000600282049050600182168061313857607f821691505b60208210810361314b5761314a6130f1565b5b50919050565b600081905092915050565b60008190508160005260206000209050919050565b6000815461317e81613120565b6131888186613151565b945060018216600081146131a357600181146131b8576131eb565b60ff19831686528115158202860193506131eb565b6131c18561315c565b60005b838110156131e3578154818901526001820191506020810190506131c4565b838801955050505b50505092915050565b60006132008284613171565b915081905092915050565b7f4e487b7100000000000000000000000000000000000000000000000000000000600052601160045260246000fd5b600061324582612af9565b91507fffffffffffffffffffffffffffffffffffffffffffffffffffffffffffffffff82036132775761327661320b565b5b600182019050919050565b600061328d82612479565b6132978185613151565b93506132a7818560208601612495565b80840191505092915050565b60006132bf8284613282565b915081905092915050565b7f50617469656e74206e6f74207265676973746572656400000000000000000000600082015250565b6000613300601683612e43565b915061330b826132ca565b602082019050919050565b6000602082019050818103600083015261332f816132f3565b9050919050565b600061334182612af9565b915061334c83612af9565b92508282039050818111156133645761336361320b565b5b92915050565b60008154905061337981613120565b9050919050565b60008190508160005260206000209050919050565b60006020601f8301049050919050565b600082821b905092915050565b6000600883026133e27fffffffffffffffffffffffffffffffffffffffffffffffffffffffffffffffff826133a5565b6133ec86836133a5565b95508019841693508086168417925050509392505050565b6000819050919050565b600061342961342461341f84612af9565b613404565b612af9565b9050919050565b6000819050919050565b6134438361340e565b61345761344f82613430565b8484546133b2565b825550505050565b600090565b61346c61345f565b61347781848461343a565b505050565b5b8181101561349b57613490600082613464565b60018101905061347d565b5050565b601f8211156134e0576134b18161315c565b6134ba84613395565b810160208510156134c9578190505b6134dd6134d585613395565b83018261347c565b50505b505050565b600082821c905092915050565b6000613503600019846008026134e5565b1980831691505092915050565b600061351c83836134f2565b9150826002028217905092915050565b81810361353a575050613612565b6135438261336a565b67ffffffffffffffff81111561355c5761355b6126d5565b5b6135668254613120565b61357182828561349f565b6000601f8311600181146135a0576000841561358e578287015490505b6135988582613510565b86555061360b565b601f1984166135ae87613380565b96506135b98661315c565b60005b828110156135e1578489015482556001820191506001850194506020810190506135bc565b868310156135fe57848901546135fa601f8916826134f2565b8355505b6001600288020188555050505b5050505050505b565b7f4e487b7100000000000000000000000000000000000000000000000000000000600052603160045260246000fd5b600061364e82612af9565b9150600082036136615761366061320b565b5b600182039050919050565b7f50617469656e7420616c72656164792072656769737465726564000000000000600082015250565b60006136a2601a83612e43565b91506136ad8261366c565b602082019050919050565b600060208201905081810360008301526136d181613695565b9050919050565b6136e182612479565b67ffffffffffffffff8111156136fa576136f96126d5565b5b6137048254613120565b61370f82828561349f565b600060209050601f8311600181146137425760008415613730578287015190505b61373a8582613510565b8655506137a2565b601f1984166137508661315c565b60005b8281101561377857848901518255600182019150602085019450602081019050613753565b868310156137955784890151613791601f8916826134f2565b8355505b6001600288020188555050505b505050505050565b600060608201905081810360008301526137c48186612e54565b905081810360208301526137d88185612e54565b90506137e76040830184612e34565b949350505050565b7f566965772041636365737320616c726561647920676976656e20746f2074686560008201527f20446f63746f7221000000000000000000000000000000000000000000000000602082015250565b600061384b602883612e43565b9150613856826137ef565b604082019050919050565b6000602082019050818103600083015261387a8161383e565b9050919050565b600061388c82612af9565b915061389783612af9565b92508282019050808211156138af576138ae61320b565b5b92915050565b600060808201905081810360008301526138cf8187612e54565b90506138de6020830186612e0a565b81810360408301526138f08185612e54565b905081810360608301526139048184612e54565b90509594505050505056fea26469706673582212201a605e3b813f7c3463442dcc2494cf3e026aea1d4e7ef8265f0cd7dcd006eff064736f6c63430008130033",
  "immutableReferences": {},
  "source": "// SPDX-License-Identifier: MIT\r\npragma solidity ^0.8.19;\r\n\r\ncontract PatientRegistration {\r\n    struct Patient {\r\n        address walletAddress;\r\n        string name;\r\n        string dateOfBirth;\r\n        string gender;\r\n        string bloodGroup;\r\n        string homeAddress;\r\n        string email;\r\n        string hhNumber;\r\n        string password;\r\n    }\r\n\r\n    struct PatientList {\r\n        string patient_number;\r\n        string patient_name;\r\n    }\r\n\r\n    struct Record {\r\n        uint id;\r\n        string date;\r\n        string description;\r\n        string doctor;\r\n    }\r\n\r\n    mapping(string => bool) public isPatientRegistered;\r\n    mapping(string => Patient) public patients;\r\n    mapping(string => PatientList[]) private Dpermission;\r\n    mapping(string => mapping(string => bool)) public doctorPermissions;\r\n    mapping(string => Record[]) private patientRecords; // Mapping to store patient records\r\n    string[] private patientHhNumbers; // Array to store all registered hhNumbers\r\n    uint public registeredPatientCount; // Counter for registered patients\r\n\r\n    event PatientRegistered(string hhNumber, string name, address walletAddress);\r\n    event RecordAdded(string hhNumber, uint recordId, string date, string doctor);\r\n\r\n    function registerPatient(\r\n        address _walletAddress,\r\n        string memory _name,\r\n        string memory _dateOfBirth,\r\n        string memory _gender,\r\n        string memory _bloodGroup,\r\n        string memory _homeAddress,\r\n        string memory _email,\r\n        string memory _hhNumber,\r\n        string memory _password\r\n    ) external {\r\n        require(!isPatientRegistered[_hhNumber], \"Patient already registered\");\r\n\r\n        Patient memory newPatient = Patient({\r\n            walletAddress: _walletAddress,\r\n            name: _name,\r\n            dateOfBirth: _dateOfBirth,\r\n            gender: _gender,\r\n            bloodGroup: _bloodGroup,\r\n            homeAddress: _homeAddress,\r\n            email: _email,\r\n            hhNumber: _hhNumber,\r\n            password: _password\r\n        });\r\n\r\n        patients[_hhNumber] = newPatient;\r\n        isPatientRegistered[_hhNumber] = true;\r\n        patientHhNumbers.push(_hhNumber); // Add hhNumber to the list\r\n        registeredPatientCount++; // Increment the count\r\n        emit PatientRegistered(_hhNumber, _name, _walletAddress);\r\n    }\r\n\r\n    function isRegisteredPatient(string memory _hhNumber) external view returns (bool) {\r\n        return isPatientRegistered[_hhNumber];\r\n    }\r\n\r\n    // Add a function to validate patient's password\r\n    function validatePassword(string memory _hhNumber, string memory _password) external view returns (bool) {\r\n        require(isPatientRegistered[_hhNumber], \"Patient not registered\");\r\n        return keccak256(abi.encodePacked(_password)) == keccak256(abi.encodePacked(patients[_hhNumber].password));\r\n    }\r\n\r\n    function getPatientDetails(string memory _hhNumber) external view returns (\r\n        address walletAddress,\r\n        string memory name,\r\n        string memory dateOfBirth,\r\n        string memory gender,\r\n        string memory bloodGroup,\r\n        string memory homeAddress,\r\n        string memory email\r\n    ) {\r\n        require(isPatientRegistered[_hhNumber], \"Patient not registered\");\r\n        Patient memory patient = patients[_hhNumber];\r\n        return (patient.walletAddress, patient.name, patient.dateOfBirth, patient.gender, patient.bloodGroup, patient.homeAddress, patient.email);\r\n    }\r\n\r\n    function grantPermission(\r\n        string memory _patientNumber,\r\n        string memory _doctorNumber,\r\n        string memory _patientName\r\n    ) external {\r\n        require(!doctorPermissions[_patientNumber][_doctorNumber], \"View Access already given to the Doctor!\");\r\n        // Check if the patient number already exists in the list\r\n        bool exists = false;\r\n        for (uint i = 0; i < Dpermission[_doctorNumber].length; i++) {\r\n            if (keccak256(abi.encodePacked(Dpermission[_doctorNumber][i].patient_number)) == keccak256(abi.encodePacked(_patientNumber))) {\r\n                exists = true;\r\n                break;\r\n            }\r\n        }\r\n\r\n        // If the patient number does not exist, add it to the list\r\n        if (!exists) {\r\n            PatientList memory newRecord = PatientList(\r\n                _patientNumber,\r\n                _patientName\r\n            );\r\n            Dpermission[_doctorNumber].push(newRecord);\r\n        }\r\n        doctorPermissions[_patientNumber][_doctorNumber] = true;\r\n    }\r\n\r\n    function isPermissionGranted(string memory _patientNumber, string memory _doctorNumber) external view returns (bool) {\r\n        return doctorPermissions[_patientNumber][_doctorNumber];\r\n    }\r\n\r\n    function getPatientList(string memory _doctorNumber) public view returns (PatientList[] memory) {\r\n        return Dpermission[_doctorNumber];\r\n    }\r\n\r\n    function addPatientRecord(\r\n        string memory _hhNumber,\r\n        string memory _date,\r\n        string memory _description,\r\n        string memory _doctor\r\n    ) external {\r\n        require(isPatientRegistered[_hhNumber], \"Patient not registered\");\r\n\r\n        uint recordId = patientRecords[_hhNumber].length + 1;\r\n        Record memory newRecord = Record({\r\n            id: recordId,\r\n            date: _date,\r\n            description: _description,\r\n            doctor: _doctor\r\n        });\r\n\r\n        patientRecords[_hhNumber].push(newRecord);\r\n        emit RecordAdded(_hhNumber, recordId, _date, _doctor);\r\n    }\r\n\r\n    function getPatientRecords(string memory _hhNumber) external view returns (Record[] memory) {\r\n        require(isPatientRegistered[_hhNumber], \"Patient not registered\");\r\n        return patientRecords[_hhNumber];\r\n    }\r\n\r\n    function getAllPatients() public view returns (Patient[] memory) {\r\n        Patient[] memory allPatients = new Patient[](registeredPatientCount);\r\n\r\n        for (uint i = 0; i < patientHhNumbers.length; i++) {\r\n            allPatients[i] = patients[patientHhNumbers[i]];\r\n        }\r\n\r\n        return allPatients;\r\n    }\r\n\r\n    function removePatient(string memory hhNumber) public {\r\n        require(isPatientRegistered[hhNumber], \"Patient not registered\");\r\n\r\n        delete patients[hhNumber];\r\n        isPatientRegistered[hhNumber] = false;\r\n\r\n        // Remove hhNumber from the list\r\n        for (uint i = 0; i < patientHhNumbers.length; i++) {\r\n            if (keccak256(abi.encodePacked(patientHhNumbers[i])) == keccak256(abi.encodePacked(hhNumber))) {\r\n                patientHhNumbers[i] = patientHhNumbers[patientHhNumbers.length - 1];\r\n                patientHhNumbers.pop();\r\n                break;\r\n            }\r\n        }\r\n\r\n        registeredPatientCount--; // Decrement the count\r\n    }\r\n}\r\n",
  "sourcePath": "C:\\Users\\UDIT NARAYANA K B\\Desktop\\ehr 1 proj\\Secure-Electronic-Health-Records\\src\\contracts\\PatientRegistration.sol",
  "compiler": {
    "name": "solc",
    "version": "0.8.19+commit.7dd6d404.Emscripten.clang"
  },
  "schemaVersion": "3.4.16",
  "updatedAt": "2025-05-02T08:45:29.725Z",
  "networkType": "ethereum",
  "devdoc": {
    "kind": "dev",
    "methods": {},
    "version": 1
  },
  "userdoc": {
    "kind": "user",
    "methods": {},
    "version": 1
  }
}