{
  "contractName": "PatientRegistration",
  "abi": [
    {
      "anonymous": false,
      "inputs": [
        {
          "indexed": false,
          "internalType": "string",
          "name": "hhNumber",
          "type": "string"
        },
        {
          "indexed": false,
          "internalType": "string",
          "name": "name",
          "type": "string"
        },
        {
          "indexed": false,
          "internalType": "address",
          "name": "walletAddress",
          "type": "address"
        }
      ],
      "name": "PatientRegistered",
      "type": "event"
    },
    {
      "anonymous": false,
      "inputs": [
        {
          "indexed": false,
          "internalType": "string",
          "name": "hhNumber",
          "type": "string"
        },
        {
          "indexed": false,
          "internalType": "uint256",
          "name": "recordId",
          "type": "uint256"
        },
        {
          "indexed": false,
          "internalType": "string",
          "name": "date",
          "type": "string"
        },
        {
          "indexed": false,
          "internalType": "string",
          "name": "doctor",
          "type": "string"
        }
      ],
      "name": "RecordAdded",
      "type": "event"
    },
    {
      "anonymous": false,
      "inputs": [
        {
          "indexed": false,
          "internalType": "string",
          "name": "hhNumber",
          "type": "string"
        },
        {
          "indexed": false,
          "internalType": "string",
          "name": "cid",
          "type": "string"
        }
      ],
      "name": "RecordUploaded",
      "type": "event"
    },
    {
      "inputs": [
        {
          "internalType": "string",
          "name": "",
          "type": "string"
        },
        {
          "internalType": "string",
          "name": "",
          "type": "string"
        }
      ],
      "name": "doctorPermissions",
      "outputs": [
        {
          "internalType": "bool",
          "name": "",
          "type": "bool"
        }
      ],
      "stateMutability": "view",
      "type": "function",
      "constant": true
    },
    {
      "inputs": [
        {
          "internalType": "string",
          "name": "",
          "type": "string"
        }
      ],
      "name": "isDoctorRegistered",
      "outputs": [
        {
          "internalType": "bool",
          "name": "",
          "type": "bool"
        }
      ],
      "stateMutability": "view",
      "type": "function",
      "constant": true
    },
    {
      "inputs": [
        {
          "internalType": "string",
          "name": "",
          "type": "string"
        }
      ],
      "name": "isPatientRegistered",
      "outputs": [
        {
          "internalType": "bool",
          "name": "",
          "type": "bool"
        }
      ],
      "stateMutability": "view",
      "type": "function",
      "constant": true
    },
    {
      "inputs": [
        {
          "internalType": "string",
          "name": "",
          "type": "string"
        }
      ],
      "name": "patients",
      "outputs": [
        {
          "internalType": "address",
          "name": "walletAddress",
          "type": "address"
        },
        {
          "internalType": "string",
          "name": "name",
          "type": "string"
        },
        {
          "internalType": "string",
          "name": "dateOfBirth",
          "type": "string"
        },
        {
          "internalType": "string",
          "name": "gender",
          "type": "string"
        },
        {
          "internalType": "string",
          "name": "bloodGroup",
          "type": "string"
        },
        {
          "internalType": "string",
          "name": "homeAddress",
          "type": "string"
        },
        {
          "internalType": "string",
          "name": "email",
          "type": "string"
        },
        {
          "internalType": "string",
          "name": "hhNumber",
          "type": "string"
        },
        {
          "internalType": "string",
          "name": "password",
          "type": "string"
        }
      ],
      "stateMutability": "view",
      "type": "function",
      "constant": true
    },
    {
      "inputs": [],
      "name": "registeredPatientCount",
      "outputs": [
        {
          "internalType": "uint256",
          "name": "",
          "type": "uint256"
        }
      ],
      "stateMutability": "view",
      "type": "function",
      "constant": true
    },
    {
      "inputs": [
        {
          "internalType": "address",
          "name": "_walletAddress",
          "type": "address"
        },
        {
          "internalType": "string",
          "name": "_name",
          "type": "string"
        },
        {
          "internalType": "string",
          "name": "_dateOfBirth",
          "type": "string"
        },
        {
          "internalType": "string",
          "name": "_gender",
          "type": "string"
        },
        {
          "internalType": "string",
          "name": "_bloodGroup",
          "type": "string"
        },
        {
          "internalType": "string",
          "name": "_homeAddress",
          "type": "string"
        },
        {
          "internalType": "string",
          "name": "_email",
          "type": "string"
        },
        {
          "internalType": "string",
          "name": "_hhNumber",
          "type": "string"
        },
        {
          "internalType": "string",
          "name": "_password",
          "type": "string"
        }
      ],
      "name": "registerPatient",
      "outputs": [],
      "stateMutability": "nonpayable",
      "type": "function"
    },
    {
      "inputs": [
        {
          "internalType": "string",
          "name": "_hhNumber",
          "type": "string"
        }
      ],
      "name": "isRegisteredPatient",
      "outputs": [
        {
          "internalType": "bool",
          "name": "",
          "type": "bool"
        }
      ],
      "stateMutability": "view",
      "type": "function",
      "constant": true
    },
    {
      "inputs": [
        {
          "internalType": "string",
          "name": "_hhNumber",
          "type": "string"
        },
        {
          "internalType": "string",
          "name": "_password",
          "type": "string"
        }
      ],
      "name": "validatePassword",
      "outputs": [
        {
          "internalType": "bool",
          "name": "",
          "type": "bool"
        }
      ],
      "stateMutability": "view",
      "type": "function",
      "constant": true
    },
    {
      "inputs": [
        {
          "internalType": "string",
          "name": "_hhNumber",
          "type": "string"
        }
      ],
      "name": "getPatientDetails",
      "outputs": [
        {
          "internalType": "address",
          "name": "walletAddress",
          "type": "address"
        },
        {
          "internalType": "string",
          "name": "name",
          "type": "string"
        },
        {
          "internalType": "string",
          "name": "dateOfBirth",
          "type": "string"
        },
        {
          "internalType": "string",
          "name": "gender",
          "type": "string"
        },
        {
          "internalType": "string",
          "name": "bloodGroup",
          "type": "string"
        },
        {
          "internalType": "string",
          "name": "homeAddress",
          "type": "string"
        },
        {
          "internalType": "string",
          "name": "email",
          "type": "string"
        }
      ],
      "stateMutability": "view",
      "type": "function",
      "constant": true
    },
    {
      "inputs": [
        {
          "internalType": "string",
          "name": "_patientNumber",
          "type": "string"
        },
        {
          "internalType": "string",
          "name": "_doctorNumber",
          "type": "string"
        },
        {
          "internalType": "string",
          "name": "_patientName",
          "type": "string"
        }
      ],
      "name": "grantPermission",
      "outputs": [],
      "stateMutability": "nonpayable",
      "type": "function"
    },
    {
      "inputs": [
        {
          "internalType": "string",
          "name": "patientHhNumber",
          "type": "string"
        },
        {
          "internalType": "string",
          "name": "doctorHhNumber",
          "type": "string"
        }
      ],
      "name": "grantDoctorPermission",
      "outputs": [],
      "stateMutability": "nonpayable",
      "type": "function"
    },
    {
      "inputs": [
        {
          "internalType": "string",
          "name": "_patientNumber",
          "type": "string"
        },
        {
          "internalType": "string",
          "name": "_doctorNumber",
          "type": "string"
        }
      ],
      "name": "isPermissionGranted",
      "outputs": [
        {
          "internalType": "bool",
          "name": "",
          "type": "bool"
        }
      ],
      "stateMutability": "view",
      "type": "function",
      "constant": true
    },
    {
      "inputs": [
        {
          "internalType": "string",
          "name": "_doctorNumber",
          "type": "string"
        }
      ],
      "name": "getPatientList",
      "outputs": [
        {
          "components": [
            {
              "internalType": "string",
              "name": "patient_number",
              "type": "string"
            },
            {
              "internalType": "string",
              "name": "patient_name",
              "type": "string"
            }
          ],
          "internalType": "struct PatientRegistration.PatientList[]",
          "name": "",
          "type": "tuple[]"
        }
      ],
      "stateMutability": "view",
      "type": "function",
      "constant": true
    },
    {
      "inputs": [
        {
          "internalType": "string",
          "name": "_hhNumber",
          "type": "string"
        },
        {
          "internalType": "string",
          "name": "_date",
          "type": "string"
        },
        {
          "internalType": "string",
          "name": "_description",
          "type": "string"
        },
        {
          "internalType": "string",
          "name": "_doctor",
          "type": "string"
        }
      ],
      "name": "addPatientRecord",
      "outputs": [],
      "stateMutability": "nonpayable",
      "type": "function"
    },
    {
      "inputs": [
        {
          "internalType": "string",
          "name": "_hhNumber",
          "type": "string"
        }
      ],
      "name": "getPatientRecords",
      "outputs": [
        {
          "components": [
            {
              "internalType": "uint256",
              "name": "id",
              "type": "uint256"
            },
            {
              "internalType": "string",
              "name": "date",
              "type": "string"
            },
            {
              "internalType": "string",
              "name": "description",
              "type": "string"
            },
            {
              "internalType": "string",
              "name": "doctor",
              "type": "string"
            }
          ],
          "internalType": "struct PatientRegistration.Record[]",
          "name": "",
          "type": "tuple[]"
        }
      ],
      "stateMutability": "view",
      "type": "function",
      "constant": true
    },
    {
      "inputs": [
        {
          "internalType": "string",
          "name": "hhNumber",
          "type": "string"
        },
        {
          "internalType": "string",
          "name": "cid",
          "type": "string"
        }
      ],
      "name": "uploadRecord",
      "outputs": [],
      "stateMutability": "nonpayable",
      "type": "function"
    },
    {
      "inputs": [
        {
          "internalType": "string",
          "name": "hhNumber",
          "type": "string"
        }
      ],
      "name": "getFileRecords",
      "outputs": [
        {
          "internalType": "string[]",
          "name": "",
          "type": "string[]"
        }
      ],
      "stateMutability": "view",
      "type": "function",
      "constant": true
    },
    {
      "inputs": [
        {
          "internalType": "string",
          "name": "hhNumber",
          "type": "string"
        },
        {
          "internalType": "uint256",
          "name": "index",
          "type": "uint256"
        }
      ],
      "name": "deleteFileRecord",
      "outputs": [],
      "stateMutability": "nonpayable",
      "type": "function"
    },
    {
      "inputs": [],
      "name": "getAllPatients",
      "outputs": [
        {
          "components": [
            {
              "internalType": "address",
              "name": "walletAddress",
              "type": "address"
            },
            {
              "internalType": "string",
              "name": "name",
              "type": "string"
            },
            {
              "internalType": "string",
              "name": "dateOfBirth",
              "type": "string"
            },
            {
              "internalType": "string",
              "name": "gender",
              "type": "string"
            },
            {
              "internalType": "string",
              "name": "bloodGroup",
              "type": "string"
            },
            {
              "internalType": "string",
              "name": "homeAddress",
              "type": "string"
            },
            {
              "internalType": "string",
              "name": "email",
              "type": "string"
            },
            {
              "internalType": "string",
              "name": "hhNumber",
              "type": "string"
            },
            {
              "internalType": "string",
              "name": "password",
              "type": "string"
            }
          ],
          "internalType": "struct PatientRegistration.Patient[]",
          "name": "",
          "type": "tuple[]"
        }
      ],
      "stateMutability": "view",
      "type": "function",
      "constant": true
    },
    {
      "inputs": [
        {
          "internalType": "string",
          "name": "hhNumber",
          "type": "string"
        }
      ],
      "name": "removePatient",
      "outputs": [],
      "stateMutability": "nonpayable",
      "type": "function"
    },
    {
      "inputs": [
        {
          "internalType": "string",
          "name": "doctorHhNumber",
          "type": "string"
        }
      ],
      "name": "registerDoctor",
      "outputs": [],
      "stateMutability": "nonpayable",
      "type": "function"
    },
    {
      "inputs": [
        {
          "internalType": "string",
          "name": "_hhNumber",
          "type": "string"
        },
        {
          "internalType": "string",
          "name": "_diagnosis",
          "type": "string"
        },
        {
          "internalType": "string",
          "name": "_prescription",
          "type": "string"
        },
        {
          "internalType": "string",
          "name": "_doctor",
          "type": "string"
        }
      ],
      "name": "addPrescription",
      "outputs": [],
      "stateMutability": "nonpayable",
      "type": "function"
    }
  ],
  "bytecode": "0x608060405234801561001057600080fd5b50614717806100206000396000f3fe608060405234801561001057600080fd5b50600436106101425760003560e01c80635df67040116100b8578063ac39c72c1161007c578063ac39c72c14610395578063c6009d84146103b3578063d120c10c146103eb578063ea6785ff1461041b578063ea977fc814610437578063f72526411461046d57610142565b80635df67040146102cd57806377fc3e36146102e95780637babdb26146103195780638f09ab5b1461034957806391c12f761461036557610142565b8063443347331161010a57806344334733146101e95780634f10c6c21461021957806355c71ce21461024957806356cf1fc41461026557806357812a08146102815780635cd40af51461029d57610142565b806302ba45f1146101475780630581ee82146101775780631238d68d1461019357806318a231a9146101af578063273a47ce146101cd575b600080fd5b610161600480360381019061015c9190612eed565b61049d565b60405161016e9190613077565b60405180910390f35b610191600480360381019061018c9190613099565b6105ff565b005b6101ad60048036038101906101a89190613170565b6107d8565b005b6101b76108d1565b6040516101c491906133e1565b60405180910390f35b6101e760048036038101906101e29190613439565b610ea3565b005b61020360048036038101906101fe9190613170565b61106f565b60405161021091906134b0565b60405180910390f35b610233600480360381019061022e9190612eed565b6110ca565b60405161024091906134b0565b60405180910390f35b610263600480360381019061025e9190613170565b611100565b005b61027f600480360381019061027a9190612eed565b61122d565b005b61029b600480360381019061029691906134f7565b61151a565b005b6102b760048036038101906102b29190612eed565b6117c5565b6040516102c491906137e3565b60405180910390f35b6102e760048036038101906102e29190613805565b611a6d565b005b61030360048036038101906102fe9190612eed565b611cc1565b60405161031091906134b0565b60405180910390f35b610333600480360381019061032e9190613170565b611cf7565b60405161034091906134b0565b60405180910390f35b610363600480360381019061035e9190612eed565b611dda565b005b61037f600480360381019061037a9190612eed565b611e7f565b60405161038c91906139b2565b60405180910390f35b61039d612020565b6040516103aa91906139e3565b60405180910390f35b6103cd60048036038101906103c89190612eed565b612026565b6040516103e299989796959493929190613a57565b60405180910390f35b61040560048036038101906104009190613170565b6124ea565b60405161041291906134b0565b60405180910390f35b61043560048036038101906104309190613099565b61253c565b005b610451600480360381019061044c9190612eed565b6126d9565b6040516104649796959493929190613b1c565b60405180910390f35b61048760048036038101906104829190612eed565b612ca0565b60405161049491906134b0565b60405180910390f35b60606000826040516104af9190613bf1565b908152602001604051809103902060009054906101000a900460ff1661050a576040517f08c379a000000000000000000000000000000000000000000000000000000000815260040161050190613c54565b60405180910390fd5b60068260405161051a9190613bf1565b9081526020016040518091039020805480602002602001604051908101604052809291908181526020016000905b828210156105f457838290600052602060002001805461056790613ca3565b80601f016020809104026020016040519081016040528092919081815260200182805461059390613ca3565b80156105e05780601f106105b5576101008083540402835291602001916105e0565b820191906000526020600020905b8154815290600101906020018083116105c357829003601f168201915b505050505081526020019060010190610548565b505050509050919050565b60008460405161060f9190613bf1565b908152602001604051809103902060009054906101000a900460ff1661066a576040517f08c379a000000000000000000000000000000000000000000000000000000000815260040161066190613c54565b60405180910390fd5b6000600160058660405161067e9190613bf1565b90815260200160405180910390208054905061069a9190613d03565b90506000604051806020016040528060008152509050600085856040516020016106c5929190613dcf565b60405160208183030381529060405290506000604051806080016040528085815260200184815260200183815260200186815250905060058860405161070b9190613bf1565b90815260200160405180910390208190806001815401808255809150506001900390600052602060002090600402016000909190919091506000820151816000015560208201518160010190816107629190613fb5565b5060408201518160020190816107789190613fb5565b50606082015181600301908161078e9190613fb5565b5050507fb283fa20a5a3f94da8be40e4f7a6330f64a2487bf0a951686751be5bf73d6b18888585886040516107c69493929190614087565b60405180910390a15050505050505050565b6000826040516107e89190613bf1565b908152602001604051809103902060009054906101000a900460ff16610843576040517f08c379a000000000000000000000000000000000000000000000000000000000815260040161083a90613c54565b60405180910390fd5b6006826040516108539190613bf1565b9081526020016040518091039020819080600181540180825580915050600190039060005260206000200160009091909190915090816108939190613fb5565b507f46072b2e465b4b9e06fdf851c8658c9c10a28e6ce059e04b714e43c359cb550082826040516108c59291906140e1565b60405180910390a15050565b6060600060085467ffffffffffffffff8111156108f1576108f0612dc2565b5b60405190808252806020026020018201604052801561092a57816020015b610917612cd4565b81526020019060019003908161090f5790505b50905060005b600780549050811015610e9b5760026007828154811061095357610952614118565b5b9060005260206000200160405161096a91906141ca565b9081526020016040518091039020604051806101200160405290816000820160009054906101000a900473ffffffffffffffffffffffffffffffffffffffff1673ffffffffffffffffffffffffffffffffffffffff1673ffffffffffffffffffffffffffffffffffffffff1681526020016001820180546109ea90613ca3565b80601f0160208091040260200160405190810160405280929190818152602001828054610a1690613ca3565b8015610a635780601f10610a3857610100808354040283529160200191610a63565b820191906000526020600020905b815481529060010190602001808311610a4657829003601f168201915b50505050508152602001600282018054610a7c90613ca3565b80601f0160208091040260200160405190810160405280929190818152602001828054610aa890613ca3565b8015610af55780601f10610aca57610100808354040283529160200191610af5565b820191906000526020600020905b815481529060010190602001808311610ad857829003601f168201915b50505050508152602001600382018054610b0e90613ca3565b80601f0160208091040260200160405190810160405280929190818152602001828054610b3a90613ca3565b8015610b875780601f10610b5c57610100808354040283529160200191610b87565b820191906000526020600020905b815481529060010190602001808311610b6a57829003601f168201915b50505050508152602001600482018054610ba090613ca3565b80601f0160208091040260200160405190810160405280929190818152602001828054610bcc90613ca3565b8015610c195780601f10610bee57610100808354040283529160200191610c19565b820191906000526020600020905b815481529060010190602001808311610bfc57829003601f168201915b50505050508152602001600582018054610c3290613ca3565b80601f0160208091040260200160405190810160405280929190818152602001828054610c5e90613ca3565b8015610cab5780601f10610c8057610100808354040283529160200191610cab565b820191906000526020600020905b815481529060010190602001808311610c8e57829003601f168201915b50505050508152602001600682018054610cc490613ca3565b80601f0160208091040260200160405190810160405280929190818152602001828054610cf090613ca3565b8015610d3d5780601f10610d1257610100808354040283529160200191610d3d565b820191906000526020600020905b815481529060010190602001808311610d2057829003601f168201915b50505050508152602001600782018054610d5690613ca3565b80601f0160208091040260200160405190810160405280929190818152602001828054610d8290613ca3565b8015610dcf5780601f10610da457610100808354040283529160200191610dcf565b820191906000526020600020905b815481529060010190602001808311610db257829003601f168201915b50505050508152602001600882018054610de890613ca3565b80601f0160208091040260200160405190810160405280929190818152602001828054610e1490613ca3565b8015610e615780601f10610e3657610100808354040283529160200191610e61565b820191906000526020600020905b815481529060010190602001808311610e4457829003601f168201915b505050505081525050828281518110610e7d57610e7c614118565b5b60200260200101819052508080610e93906141e1565b915050610930565b508091505090565b600082604051610eb39190613bf1565b908152602001604051809103902060009054906101000a900460ff16610f0e576040517f08c379a0000000000000000000000000000000000000000000000000000000008152600401610f0590613c54565b60405180910390fd5b600682604051610f1e9190613bf1565b9081526020016040518091039020805490508110610f71576040517f08c379a0000000000000000000000000000000000000000000000000000000008152600401610f6890614275565b60405180910390fd5b600682604051610f819190613bf1565b90815260200160405180910390206001600684604051610fa19190613bf1565b908152602001604051809103902080549050610fbd9190614295565b81548110610fce57610fcd614118565b5b90600052602060002001600683604051610fe89190613bf1565b9081526020016040518091039020828154811061100857611007614118565b5b90600052602060002001908161101e91906142f4565b5060068260405161102f9190613bf1565b908152602001604051809103902080548061104d5761104c6143dc565b5b6001900381819060005260206000200160006110699190612d36565b90555050565b600482805160208101820180518482526020830160208501208183528095505050505050818051602081018201805184825260208301602085012081835280955050505050506000915091509054906101000a900460ff1681565b6000818051602081018201805184825260208301602085012081835280955050505050506000915054906101000a900460ff1681565b6000826040516111109190613bf1565b908152602001604051809103902060009054906101000a900460ff1661116b576040517f08c379a000000000000000000000000000000000000000000000000000000000815260040161116290613c54565b60405180910390fd5b60018160405161117b9190613bf1565b908152602001604051809103902060009054906101000a900460ff166111d6576040517f08c379a00000000000000000000000000000000000000000000000000000000081526004016111cd90614457565b60405180910390fd5b60016004836040516111e89190613bf1565b9081526020016040518091039020826040516112049190613bf1565b908152602001604051809103902060006101000a81548160ff0219169083151502179055505050565b60008160405161123d9190613bf1565b908152602001604051809103902060009054906101000a900460ff16611298576040517f08c379a000000000000000000000000000000000000000000000000000000000815260040161128f90613c54565b60405180910390fd5b6002816040516112a89190613bf1565b9081526020016040518091039020600080820160006101000a81549073ffffffffffffffffffffffffffffffffffffffff02191690556001820160006112ee9190612d36565b6002820160006112fe9190612d36565b60038201600061130e9190612d36565b60048201600061131e9190612d36565b60058201600061132e9190612d36565b60068201600061133e9190612d36565b60078201600061134e9190612d36565b60088201600061135e9190612d36565b5050600080826040516113719190613bf1565b908152602001604051809103902060006101000a81548160ff0219169083151502179055506000805b6007805490508110156114bd57826040516020016113b89190613bf1565b60405160208183030381529060405280519060200120600782815481106113e2576113e1614118565b5b906000526020600020016040516020016113fc91906141ca565b60405160208183030381529060405280519060200120036114aa576007600160078054905061142b9190614295565b8154811061143c5761143b614118565b5b906000526020600020016007828154811061145a57611459614118565b5b90600052602060002001908161147091906142f4565b506007805480611483576114826143dc565b5b60019003818190600052602060002001600061149f9190612d36565b9055600191506114bd565b80806114b5906141e1565b91505061139a565b50806114fe576040517f08c379a00000000000000000000000000000000000000000000000000000000081526004016114f5906144e9565b60405180910390fd5b6008600081548092919061151190614509565b91905055505050565b60008260405161152a9190613bf1565b908152602001604051809103902060009054906101000a900460ff1615611586576040517f08c379a000000000000000000000000000000000000000000000000000000000815260040161157d9061457e565b60405180910390fd5b60006040518061012001604052808b73ffffffffffffffffffffffffffffffffffffffff1681526020018a8152602001898152602001888152602001878152602001868152602001858152602001848152602001838152509050806002846040516115f19190613bf1565b908152602001604051809103902060008201518160000160006101000a81548173ffffffffffffffffffffffffffffffffffffffff021916908373ffffffffffffffffffffffffffffffffffffffff160217905550602082015181600101908161165b9190613fb5565b5060408201518160020190816116719190613fb5565b5060608201518160030190816116879190613fb5565b50608082015181600401908161169d9190613fb5565b5060a08201518160050190816116b39190613fb5565b5060c08201518160060190816116c99190613fb5565b5060e08201518160070190816116df9190613fb5565b506101008201518160080190816116f69190613fb5565b50905050600160008460405161170c9190613bf1565b908152602001604051809103902060006101000a81548160ff0219169083151502179055506007839080600181540180825580915050600190039060005260206000200160009091909190915090816117659190613fb5565b5060086000815480929190611779906141e1565b91905055507f319ae3a95b9a410d647835a7e64d54ddf28faf35a698f0a2b63999585fa38edc838a8c6040516117b19392919061459e565b60405180910390a150505050505050505050565b60606000826040516117d79190613bf1565b908152602001604051809103902060009054906101000a900460ff16611832576040517f08c379a000000000000000000000000000000000000000000000000000000000815260040161182990613c54565b60405180910390fd5b6005826040516118429190613bf1565b9081526020016040518091039020805480602002602001604051908101604052809291908181526020016000905b82821015611a625783829060005260206000209060040201604051806080016040529081600082015481526020016001820180546118ad90613ca3565b80601f01602080910402602001604051908101604052809291908181526020018280546118d990613ca3565b80156119265780601f106118fb57610100808354040283529160200191611926565b820191906000526020600020905b81548152906001019060200180831161190957829003601f168201915b5050505050815260200160028201805461193f90613ca3565b80601f016020809104026020016040519081016040528092919081815260200182805461196b90613ca3565b80156119b85780601f1061198d576101008083540402835291602001916119b8565b820191906000526020600020905b81548152906001019060200180831161199b57829003601f168201915b505050505081526020016003820180546119d190613ca3565b80601f01602080910402602001604051908101604052809291908181526020018280546119fd90613ca3565b8015611a4a5780601f10611a1f57610100808354040283529160200191611a4a565b820191906000526020600020905b815481529060010190602001808311611a2d57829003601f168201915b50505050508152505081526020019060010190611870565b505050509050919050565b600483604051611a7d9190613bf1565b908152602001604051809103902082604051611a999190613bf1565b908152602001604051809103902060009054906101000a900460ff1615611af5576040517f08c379a0000000000000000000000000000000000000000000000000000000008152600401611aec90614655565b60405180910390fd5b6000805b600384604051611b099190613bf1565b908152602001604051809103902080549050811015611bd15784604051602001611b339190613bf1565b60405160208183030381529060405280519060200120600385604051611b599190613bf1565b90815260200160405180910390208281548110611b7957611b78614118565b5b9060005260206000209060020201600001604051602001611b9a91906141ca565b6040516020818303038152906040528051906020012003611bbe5760019150611bd1565b8080611bc9906141e1565b915050611af9565b5080611c685760006040518060400160405280868152602001848152509050600384604051611c009190613bf1565b90815260200160405180910390208190806001815401808255809150506001900390600052602060002090600202016000909190919091506000820151816000019081611c4d9190613fb5565b506020820151816001019081611c639190613fb5565b505050505b6001600485604051611c7a9190613bf1565b908152602001604051809103902084604051611c969190613bf1565b908152602001604051809103902060006101000a81548160ff02191690831515021790555050505050565b6001818051602081018201805184825260208301602085012081835280955050505050506000915054906101000a900460ff1681565b60008083604051611d089190613bf1565b908152602001604051809103902060009054906101000a900460ff16611d63576040517f08c379a0000000000000000000000000000000000000000000000000000000008152600401611d5a90613c54565b60405180910390fd5b600283604051611d739190613bf1565b9081526020016040518091039020600801604051602001611d9491906141ca565b6040516020818303038152906040528051906020012082604051602001611dbb9190613bf1565b6040516020818303038152906040528051906020012014905092915050565b600181604051611dea9190613bf1565b908152602001604051809103902060009054906101000a900460ff1615611e46576040517f08c379a0000000000000000000000000000000000000000000000000000000008152600401611e3d906146c1565b60405180910390fd5b60018082604051611e579190613bf1565b908152602001604051809103902060006101000a81548160ff02191690831515021790555050565b6060600382604051611e919190613bf1565b9081526020016040518091039020805480602002602001604051908101604052809291908181526020016000905b828210156120155783829060005260206000209060020201604051806040016040529081600082018054611ef290613ca3565b80601f0160208091040260200160405190810160405280929190818152602001828054611f1e90613ca3565b8015611f6b5780601f10611f4057610100808354040283529160200191611f6b565b820191906000526020600020905b815481529060010190602001808311611f4e57829003601f168201915b50505050508152602001600182018054611f8490613ca3565b80601f0160208091040260200160405190810160405280929190818152602001828054611fb090613ca3565b8015611ffd5780601f10611fd257610100808354040283529160200191611ffd565b820191906000526020600020905b815481529060010190602001808311611fe057829003601f168201915b50505050508152505081526020019060010190611ebf565b505050509050919050565b60085481565b6002818051602081018201805184825260208301602085012081835280955050505050506000915090508060000160009054906101000a900473ffffffffffffffffffffffffffffffffffffffff169080600101805461208590613ca3565b80601f01602080910402602001604051908101604052809291908181526020018280546120b190613ca3565b80156120fe5780601f106120d3576101008083540402835291602001916120fe565b820191906000526020600020905b8154815290600101906020018083116120e157829003601f168201915b50505050509080600201805461211390613ca3565b80601f016020809104026020016040519081016040528092919081815260200182805461213f90613ca3565b801561218c5780601f106121615761010080835404028352916020019161218c565b820191906000526020600020905b81548152906001019060200180831161216f57829003601f168201915b5050505050908060030180546121a190613ca3565b80601f01602080910402602001604051908101604052809291908181526020018280546121cd90613ca3565b801561221a5780601f106121ef5761010080835404028352916020019161221a565b820191906000526020600020905b8154815290600101906020018083116121fd57829003601f168201915b50505050509080600401805461222f90613ca3565b80601f016020809104026020016040519081016040528092919081815260200182805461225b90613ca3565b80156122a85780601f1061227d576101008083540402835291602001916122a8565b820191906000526020600020905b81548152906001019060200180831161228b57829003601f168201915b5050505050908060050180546122bd90613ca3565b80601f01602080910402602001604051908101604052809291908181526020018280546122e990613ca3565b80156123365780601f1061230b57610100808354040283529160200191612336565b820191906000526020600020905b81548152906001019060200180831161231957829003601f168201915b50505050509080600601805461234b90613ca3565b80601f016020809104026020016040519081016040528092919081815260200182805461237790613ca3565b80156123c45780601f10612399576101008083540402835291602001916123c4565b820191906000526020600020905b8154815290600101906020018083116123a757829003601f168201915b5050505050908060070180546123d990613ca3565b80601f016020809104026020016040519081016040528092919081815260200182805461240590613ca3565b80156124525780601f1061242757610100808354040283529160200191612452565b820191906000526020600020905b81548152906001019060200180831161243557829003601f168201915b50505050509080600801805461246790613ca3565b80601f016020809104026020016040519081016040528092919081815260200182805461249390613ca3565b80156124e05780601f106124b5576101008083540402835291602001916124e0565b820191906000526020600020905b8154815290600101906020018083116124c357829003601f168201915b5050505050905089565b60006004836040516124fc9190613bf1565b9081526020016040518091039020826040516125189190613bf1565b908152602001604051809103902060009054906101000a900460ff16905092915050565b60008460405161254c9190613bf1565b908152602001604051809103902060009054906101000a900460ff166125a7576040517f08c379a000000000000000000000000000000000000000000000000000000000815260040161259e90613c54565b60405180910390fd5b600060016005866040516125bb9190613bf1565b9081526020016040518091039020805490506125d79190613d03565b90506000604051806080016040528083815260200186815260200185815260200184815250905060058660405161260e9190613bf1565b90815260200160405180910390208190806001815401808255809150506001900390600052602060002090600402016000909190919091506000820151816000015560208201518160010190816126659190613fb5565b50604082015181600201908161267b9190613fb5565b5060608201518160030190816126919190613fb5565b5050507fb283fa20a5a3f94da8be40e4f7a6330f64a2487bf0a951686751be5bf73d6b18868387866040516126c99493929190614087565b60405180910390a1505050505050565b60006060806060806060806000886040516126f49190613bf1565b908152602001604051809103902060009054906101000a900460ff1661274f576040517f08c379a000000000000000000000000000000000000000000000000000000000815260040161274690613c54565b60405180910390fd5b60006002896040516127619190613bf1565b9081526020016040518091039020604051806101200160405290816000820160009054906101000a900473ffffffffffffffffffffffffffffffffffffffff1673ffffffffffffffffffffffffffffffffffffffff1673ffffffffffffffffffffffffffffffffffffffff1681526020016001820180546127e190613ca3565b80601f016020809104026020016040519081016040528092919081815260200182805461280d90613ca3565b801561285a5780601f1061282f5761010080835404028352916020019161285a565b820191906000526020600020905b81548152906001019060200180831161283d57829003601f168201915b5050505050815260200160028201805461287390613ca3565b80601f016020809104026020016040519081016040528092919081815260200182805461289f90613ca3565b80156128ec5780601f106128c1576101008083540402835291602001916128ec565b820191906000526020600020905b8154815290600101906020018083116128cf57829003601f168201915b5050505050815260200160038201805461290590613ca3565b80601f016020809104026020016040519081016040528092919081815260200182805461293190613ca3565b801561297e5780601f106129535761010080835404028352916020019161297e565b820191906000526020600020905b81548152906001019060200180831161296157829003601f168201915b5050505050815260200160048201805461299790613ca3565b80601f01602080910402602001604051908101604052809291908181526020018280546129c390613ca3565b8015612a105780601f106129e557610100808354040283529160200191612a10565b820191906000526020600020905b8154815290600101906020018083116129f357829003601f168201915b50505050508152602001600582018054612a2990613ca3565b80601f0160208091040260200160405190810160405280929190818152602001828054612a5590613ca3565b8015612aa25780601f10612a7757610100808354040283529160200191612aa2565b820191906000526020600020905b815481529060010190602001808311612a8557829003601f168201915b50505050508152602001600682018054612abb90613ca3565b80601f0160208091040260200160405190810160405280929190818152602001828054612ae790613ca3565b8015612b345780601f10612b0957610100808354040283529160200191612b34565b820191906000526020600020905b815481529060010190602001808311612b1757829003601f168201915b50505050508152602001600782018054612b4d90613ca3565b80601f0160208091040260200160405190810160405280929190818152602001828054612b7990613ca3565b8015612bc65780601f10612b9b57610100808354040283529160200191612bc6565b820191906000526020600020905b815481529060010190602001808311612ba957829003601f168201915b50505050508152602001600882018054612bdf90613ca3565b80601f0160208091040260200160405190810160405280929190818152602001828054612c0b90613ca3565b8015612c585780601f10612c2d57610100808354040283529160200191612c58565b820191906000526020600020905b815481529060010190602001808311612c3b57829003601f168201915b5050505050815250509050806000015181602001518260400151836060015184608001518560a001518660c00151975097509750975097509750975050919395979092949650565b60008082604051612cb19190613bf1565b908152602001604051809103902060009054906101000a900460ff169050919050565b604051806101200160405280600073ffffffffffffffffffffffffffffffffffffffff16815260200160608152602001606081526020016060815260200160608152602001606081526020016060815260200160608152602001606081525090565b508054612d4290613ca3565b6000825580601f10612d545750612d73565b601f016020900490600052602060002090810190612d729190612d76565b5b50565b5b80821115612d8f576000816000905550600101612d77565b5090565b6000604051905090565b600080fd5b600080fd5b600080fd5b600080fd5b6000601f19601f8301169050919050565b7f4e487b7100000000000000000000000000000000000000000000000000000000600052604160045260246000fd5b612dfa82612db1565b810181811067ffffffffffffffff82111715612e1957612e18612dc2565b5b80604052505050565b6000612e2c612d93565b9050612e388282612df1565b919050565b600067ffffffffffffffff821115612e5857612e57612dc2565b5b612e6182612db1565b9050602081019050919050565b82818337600083830152505050565b6000612e90612e8b84612e3d565b612e22565b905082815260208101848484011115612eac57612eab612dac565b5b612eb7848285612e6e565b509392505050565b600082601f830112612ed457612ed3612da7565b5b8135612ee4848260208601612e7d565b91505092915050565b600060208284031215612f0357612f02612d9d565b5b600082013567ffffffffffffffff811115612f2157612f20612da2565b5b612f2d84828501612ebf565b91505092915050565b600081519050919050565b600082825260208201905092915050565b6000819050602082019050919050565b600081519050919050565b600082825260208201905092915050565b60005b83811015612f9c578082015181840152602081019050612f81565b60008484015250505050565b6000612fb382612f62565b612fbd8185612f6d565b9350612fcd818560208601612f7e565b612fd681612db1565b840191505092915050565b6000612fed8383612fa8565b905092915050565b6000602082019050919050565b600061300d82612f36565b6130178185612f41565b93508360208202850161302985612f52565b8060005b8581101561306557848403895281516130468582612fe1565b945061305183612ff5565b925060208a0199505060018101905061302d565b50829750879550505050505092915050565b600060208201905081810360008301526130918184613002565b905092915050565b600080600080608085870312156130b3576130b2612d9d565b5b600085013567ffffffffffffffff8111156130d1576130d0612da2565b5b6130dd87828801612ebf565b945050602085013567ffffffffffffffff8111156130fe576130fd612da2565b5b61310a87828801612ebf565b935050604085013567ffffffffffffffff81111561312b5761312a612da2565b5b61313787828801612ebf565b925050606085013567ffffffffffffffff81111561315857613157612da2565b5b61316487828801612ebf565b91505092959194509250565b6000806040838503121561318757613186612d9d565b5b600083013567ffffffffffffffff8111156131a5576131a4612da2565b5b6131b185828601612ebf565b925050602083013567ffffffffffffffff8111156131d2576131d1612da2565b5b6131de85828601612ebf565b9150509250929050565b600081519050919050565b600082825260208201905092915050565b6000819050602082019050919050565b600073ffffffffffffffffffffffffffffffffffffffff82169050919050565b600061323f82613214565b9050919050565b61324f81613234565b82525050565b60006101208301600083015161326e6000860182613246565b50602083015184820360208601526132868282612fa8565b915050604083015184820360408601526132a08282612fa8565b915050606083015184820360608601526132ba8282612fa8565b915050608083015184820360808601526132d48282612fa8565b91505060a083015184820360a08601526132ee8282612fa8565b91505060c083015184820360c08601526133088282612fa8565b91505060e083015184820360e08601526133228282612fa8565b91505061010083015184820361010086015261333e8282612fa8565b9150508091505092915050565b60006133578383613255565b905092915050565b6000602082019050919050565b6000613377826131e8565b61338181856131f3565b93508360208202850161339385613204565b8060005b858110156133cf57848403895281516133b0858261334b565b94506133bb8361335f565b925060208a01995050600181019050613397565b50829750879550505050505092915050565b600060208201905081810360008301526133fb818461336c565b905092915050565b6000819050919050565b61341681613403565b811461342157600080fd5b50565b6000813590506134338161340d565b92915050565b600080604083850312156134505761344f612d9d565b5b600083013567ffffffffffffffff81111561346e5761346d612da2565b5b61347a85828601612ebf565b925050602061348b85828601613424565b9150509250929050565b60008115159050919050565b6134aa81613495565b82525050565b60006020820190506134c560008301846134a1565b92915050565b6134d481613234565b81146134df57600080fd5b50565b6000813590506134f1816134cb565b92915050565b60008060008060008060008060006101208a8c03121561351a57613519612d9d565b5b60006135288c828d016134e2565b99505060208a013567ffffffffffffffff81111561354957613548612da2565b5b6135558c828d01612ebf565b98505060408a013567ffffffffffffffff81111561357657613575612da2565b5b6135828c828d01612ebf565b97505060608a013567ffffffffffffffff8111156135a3576135a2612da2565b5b6135af8c828d01612ebf565b96505060808a013567ffffffffffffffff8111156135d0576135cf612da2565b5b6135dc8c828d01612ebf565b95505060a08a013567ffffffffffffffff8111156135fd576135fc612da2565b5b6136098c828d01612ebf565b94505060c08a013567ffffffffffffffff81111561362a57613629612da2565b5b6136368c828d01612ebf565b93505060e08a013567ffffffffffffffff81111561365757613656612da2565b5b6136638c828d01612ebf565b9250506101008a013567ffffffffffffffff81111561368557613684612da2565b5b6136918c828d01612ebf565b9150509295985092959850929598565b600081519050919050565b600082825260208201905092915050565b6000819050602082019050919050565b6136d681613403565b82525050565b60006080830160008301516136f460008601826136cd565b506020830151848203602086015261370c8282612fa8565b915050604083015184820360408601526137268282612fa8565b915050606083015184820360608601526137408282612fa8565b9150508091505092915050565b600061375983836136dc565b905092915050565b6000602082019050919050565b6000613779826136a1565b61378381856136ac565b935083602082028501613795856136bd565b8060005b858110156137d157848403895281516137b2858261374d565b94506137bd83613761565b925060208a01995050600181019050613799565b50829750879550505050505092915050565b600060208201905081810360008301526137fd818461376e565b905092915050565b60008060006060848603121561381e5761381d612d9d565b5b600084013567ffffffffffffffff81111561383c5761383b612da2565b5b61384886828701612ebf565b935050602084013567ffffffffffffffff81111561386957613868612da2565b5b61387586828701612ebf565b925050604084013567ffffffffffffffff81111561389657613895612da2565b5b6138a286828701612ebf565b9150509250925092565b600081519050919050565b600082825260208201905092915050565b6000819050602082019050919050565b600060408301600083015184820360008601526138f58282612fa8565b9150506020830151848203602086015261390f8282612fa8565b9150508091505092915050565b600061392883836138d8565b905092915050565b6000602082019050919050565b6000613948826138ac565b61395281856138b7565b935083602082028501613964856138c8565b8060005b858110156139a05784840389528151613981858261391c565b945061398c83613930565b925060208a01995050600181019050613968565b50829750879550505050505092915050565b600060208201905081810360008301526139cc818461393d565b905092915050565b6139dd81613403565b82525050565b60006020820190506139f860008301846139d4565b92915050565b613a0781613234565b82525050565b600082825260208201905092915050565b6000613a2982612f62565b613a338185613a0d565b9350613a43818560208601612f7e565b613a4c81612db1565b840191505092915050565b600061012082019050613a6d600083018c6139fe565b8181036020830152613a7f818b613a1e565b90508181036040830152613a93818a613a1e565b90508181036060830152613aa78189613a1e565b90508181036080830152613abb8188613a1e565b905081810360a0830152613acf8187613a1e565b905081810360c0830152613ae38186613a1e565b905081810360e0830152613af78185613a1e565b9050818103610100830152613b0c8184613a1e565b90509a9950505050505050505050565b600060e082019050613b31600083018a6139fe565b8181036020830152613b438189613a1e565b90508181036040830152613b578188613a1e565b90508181036060830152613b6b8187613a1e565b90508181036080830152613b7f8186613a1e565b905081810360a0830152613b938185613a1e565b905081810360c0830152613ba78184613a1e565b905098975050505050505050565b600081905092915050565b6000613bcb82612f62565b613bd58185613bb5565b9350613be5818560208601612f7e565b80840191505092915050565b6000613bfd8284613bc0565b915081905092915050565b7f50617469656e74206e6f74207265676973746572656400000000000000000000600082015250565b6000613c3e601683613a0d565b9150613c4982613c08565b602082019050919050565b60006020820190508181036000830152613c6d81613c31565b9050919050565b7f4e487b7100000000000000000000000000000000000000000000000000000000600052602260045260246000fd5b60006002820490506001821680613cbb57607f821691505b602082108103613cce57613ccd613c74565b5b50919050565b7f4e487b7100000000000000000000000000000000000000000000000000000000600052601160045260246000fd5b6000613d0e82613403565b9150613d1983613403565b9250828201905080821115613d3157613d30613cd4565b5b92915050565b7f446961676e6f7369733a20000000000000000000000000000000000000000000600082015250565b6000613d6d600b83613bb5565b9150613d7882613d37565b600b82019050919050565b7f3b20507265736372697074696f6e3a2000000000000000000000000000000000600082015250565b6000613db9601083613bb5565b9150613dc482613d83565b601082019050919050565b6000613dda82613d60565b9150613de68285613bc0565b9150613df182613dac565b9150613dfd8284613bc0565b91508190509392505050565b60008190508160005260206000209050919050565b60006020601f8301049050919050565b600082821b905092915050565b600060088302613e6b7fffffffffffffffffffffffffffffffffffffffffffffffffffffffffffffffff82613e2e565b613e758683613e2e565b95508019841693508086168417925050509392505050565b6000819050919050565b6000613eb2613ead613ea884613403565b613e8d565b613403565b9050919050565b6000819050919050565b613ecc83613e97565b613ee0613ed882613eb9565b848454613e3b565b825550505050565b600090565b613ef5613ee8565b613f00818484613ec3565b505050565b5b81811015613f2457613f19600082613eed565b600181019050613f06565b5050565b601f821115613f6957613f3a81613e09565b613f4384613e1e565b81016020851015613f52578190505b613f66613f5e85613e1e565b830182613f05565b50505b505050565b600082821c905092915050565b6000613f8c60001984600802613f6e565b1980831691505092915050565b6000613fa58383613f7b565b9150826002028217905092915050565b613fbe82612f62565b67ffffffffffffffff811115613fd757613fd6612dc2565b5b613fe18254613ca3565b613fec828285613f28565b600060209050601f83116001811461401f576000841561400d578287015190505b6140178582613f99565b86555061407f565b601f19841661402d86613e09565b60005b8281101561405557848901518255600182019150602085019450602081019050614030565b86831015614072578489015161406e601f891682613f7b565b8355505b6001600288020188555050505b505050505050565b600060808201905081810360008301526140a18187613a1e565b90506140b060208301866139d4565b81810360408301526140c28185613a1e565b905081810360608301526140d68184613a1e565b905095945050505050565b600060408201905081810360008301526140fb8185613a1e565b9050818103602083015261410f8184613a1e565b90509392505050565b7f4e487b7100000000000000000000000000000000000000000000000000000000600052603260045260246000fd5b6000815461415481613ca3565b61415e8186613bb5565b94506001821660008114614179576001811461418e576141c1565b60ff19831686528115158202860193506141c1565b61419785613e09565b60005b838110156141b95781548189015260018201915060208101905061419a565b838801955050505b50505092915050565b60006141d68284614147565b915081905092915050565b60006141ec82613403565b91507fffffffffffffffffffffffffffffffffffffffffffffffffffffffffffffffff820361421e5761421d613cd4565b5b600182019050919050565b7f496e76616c696420696e64657800000000000000000000000000000000000000600082015250565b600061425f600d83613a0d565b915061426a82614229565b602082019050919050565b6000602082019050818103600083015261428e81614252565b9050919050565b60006142a082613403565b91506142ab83613403565b92508282039050818111156142c3576142c2613cd4565b5b92915050565b6000815490506142d881613ca3565b9050919050565b60008190508160005260206000209050919050565b8181036143025750506143da565b61430b826142c9565b67ffffffffffffffff81111561432457614323612dc2565b5b61432e8254613ca3565b614339828285613f28565b6000601f8311600181146143685760008415614356578287015490505b6143608582613f99565b8655506143d3565b601f198416614376876142df565b965061438186613e09565b60005b828110156143a957848901548255600182019150600185019450602081019050614384565b868310156143c657848901546143c2601f891682613f7b565b8355505b6001600288020188555050505b5050505050505b565b7f4e487b7100000000000000000000000000000000000000000000000000000000600052603160045260246000fd5b7f446f63746f72206e6f7420726567697374657265640000000000000000000000600082015250565b6000614441601583613a0d565b915061444c8261440b565b602082019050919050565b6000602082019050818103600083015261447081614434565b9050919050565b7f50617469656e74204848204e756d626572206e6f7420666f756e6420696e207460008201527f6865206c69737400000000000000000000000000000000000000000000000000602082015250565b60006144d3602783613a0d565b91506144de82614477565b604082019050919050565b60006020820190508181036000830152614502816144c6565b9050919050565b600061451482613403565b91506000820361452757614526613cd4565b5b600182039050919050565b7f50617469656e7420616c72656164792072656769737465726564000000000000600082015250565b6000614568601a83613a0d565b915061457382614532565b602082019050919050565b600060208201905081810360008301526145978161455b565b9050919050565b600060608201905081810360008301526145b88186613a1e565b905081810360208301526145cc8185613a1e565b90506145db60408301846139fe565b949350505050565b7f566965772041636365737320616c726561647920676976656e20746f2074686560008201527f20446f63746f7221000000000000000000000000000000000000000000000000602082015250565b600061463f602883613a0d565b915061464a826145e3565b604082019050919050565b6000602082019050818103600083015261466e81614632565b9050919050565b7f446f63746f7220616c7265616479207265676973746572656400000000000000600082015250565b60006146ab601983613a0d565b91506146b682614675565b602082019050919050565b600060208201905081810360008301526146da8161469e565b905091905056fea2646970667358221220f6c22401fa919edc6af31687172134c0d476b36f1b415c82ed8e52f20321dcba64736f6c63430008130033",
  "immutableReferences": {},
  "source": "// SPDX-License-Identifier: MIT\r\npragma solidity ^0.8.19;\r\n\r\ncontract PatientRegistration {\r\n    struct Patient {\r\n        address walletAddress;\r\n        string name;\r\n        string dateOfBirth;\r\n        string gender;\r\n        string bloodGroup;\r\n        string homeAddress;\r\n        string email;\r\n        string hhNumber;\r\n        string password;\r\n    }\r\n\r\n    struct PatientList {\r\n        string patient_number;\r\n        string patient_name;\r\n    }\r\n\r\n    struct Record {\r\n        uint id;\r\n        string date;\r\n        string description;\r\n        string doctor;\r\n    }\r\n\r\n    mapping(string => bool) public isPatientRegistered;\r\n    mapping(string => bool) public isDoctorRegistered;\r\n    mapping(string => Patient) public patients;\r\n    mapping(string => PatientList[]) private Dpermission;\r\n    mapping(string => mapping(string => bool)) public doctorPermissions;\r\n    mapping(string => Record[]) private patientRecords; // Mapping to store patient records\r\n    mapping(string => string[]) private fileRecords; // Mapping to store file records\r\n    string[] private patientHhNumbers; // Array to store all registered hhNumbers\r\n    uint public registeredPatientCount; // Counter for registered patients\r\n\r\n    event PatientRegistered(string hhNumber, string name, address walletAddress);\r\n    event RecordAdded(string hhNumber, uint recordId, string date, string doctor);\r\n    event RecordUploaded(string hhNumber, string cid);\r\n\r\n    function registerPatient(\r\n        address _walletAddress,\r\n        string memory _name,\r\n        string memory _dateOfBirth,\r\n        string memory _gender,\r\n        string memory _bloodGroup,\r\n        string memory _homeAddress,\r\n        string memory _email,\r\n        string memory _hhNumber,\r\n        string memory _password\r\n    ) external {\r\n        require(!isPatientRegistered[_hhNumber], \"Patient already registered\");\r\n\r\n        Patient memory newPatient = Patient({\r\n            walletAddress: _walletAddress,\r\n            name: _name,\r\n            dateOfBirth: _dateOfBirth,\r\n            gender: _gender,\r\n            bloodGroup: _bloodGroup,\r\n            homeAddress: _homeAddress,\r\n            email: _email,\r\n            hhNumber: _hhNumber,\r\n            password: _password\r\n        });\r\n\r\n        patients[_hhNumber] = newPatient;\r\n        isPatientRegistered[_hhNumber] = true;\r\n        patientHhNumbers.push(_hhNumber); // Add hhNumber to the list\r\n        registeredPatientCount++; // Increment the count\r\n        emit PatientRegistered(_hhNumber, _name, _walletAddress);\r\n    }\r\n\r\n    function isRegisteredPatient(string memory _hhNumber) external view returns (bool) {\r\n        return isPatientRegistered[_hhNumber];\r\n    }\r\n\r\n    // Add a function to validate patient's password\r\n    function validatePassword(string memory _hhNumber, string memory _password) external view returns (bool) {\r\n        require(isPatientRegistered[_hhNumber], \"Patient not registered\");\r\n        return keccak256(abi.encodePacked(_password)) == keccak256(abi.encodePacked(patients[_hhNumber].password));\r\n    }\r\n\r\n    function getPatientDetails(string memory _hhNumber) external view returns (\r\n        address walletAddress,\r\n        string memory name,\r\n        string memory dateOfBirth,\r\n        string memory gender,\r\n        string memory bloodGroup,\r\n        string memory homeAddress,\r\n        string memory email\r\n    ) {\r\n        require(isPatientRegistered[_hhNumber], \"Patient not registered\");\r\n        Patient memory patient = patients[_hhNumber];\r\n        return (patient.walletAddress, patient.name, patient.dateOfBirth, patient.gender, patient.bloodGroup, patient.homeAddress, patient.email);\r\n    }\r\n\r\n    function grantPermission(\r\n        string memory _patientNumber,\r\n        string memory _doctorNumber,\r\n        string memory _patientName\r\n    ) external {\r\n        require(!doctorPermissions[_patientNumber][_doctorNumber], \"View Access already given to the Doctor!\");\r\n        // Check if the patient number already exists in the list\r\n        bool exists = false;\r\n        for (uint i = 0; i < Dpermission[_doctorNumber].length; i++) {\r\n            if (keccak256(abi.encodePacked(Dpermission[_doctorNumber][i].patient_number)) == keccak256(abi.encodePacked(_patientNumber))) {\r\n                exists = true;\r\n                break;\r\n            }\r\n        }\r\n\r\n        // If the patient number does not exist, add it to the list\r\n        if (!exists) {\r\n            PatientList memory newRecord = PatientList(\r\n                _patientNumber,\r\n                _patientName\r\n            );\r\n            Dpermission[_doctorNumber].push(newRecord);\r\n        }\r\n        doctorPermissions[_patientNumber][_doctorNumber] = true;\r\n    }\r\n\r\n    function grantDoctorPermission(string memory patientHhNumber, string memory doctorHhNumber) public {\r\n        require(isPatientRegistered[patientHhNumber], \"Patient not registered\");\r\n        require(isDoctorRegistered[doctorHhNumber], \"Doctor not registered\");\r\n        doctorPermissions[patientHhNumber][doctorHhNumber] = true;\r\n    }\r\n\r\n    function isPermissionGranted(string memory _patientNumber, string memory _doctorNumber) external view returns (bool) {\r\n        return doctorPermissions[_patientNumber][_doctorNumber];\r\n    }\r\n\r\n    function getPatientList(string memory _doctorNumber) public view returns (PatientList[] memory) {\r\n        return Dpermission[_doctorNumber];\r\n    }\r\n\r\n    function addPatientRecord(\r\n        string memory _hhNumber,\r\n        string memory _date,\r\n        string memory _description,\r\n        string memory _doctor\r\n    ) external {\r\n        require(isPatientRegistered[_hhNumber], \"Patient not registered\");\r\n\r\n        uint recordId = patientRecords[_hhNumber].length + 1;\r\n        Record memory newRecord = Record({\r\n            id: recordId,\r\n            date: _date,\r\n            description: _description,\r\n            doctor: _doctor\r\n        });\r\n\r\n        patientRecords[_hhNumber].push(newRecord);\r\n        emit RecordAdded(_hhNumber, recordId, _date, _doctor);\r\n    }\r\n\r\n    function getPatientRecords(string memory _hhNumber) external view returns (Record[] memory) {\r\n        require(isPatientRegistered[_hhNumber], \"Patient not registered\");\r\n        return patientRecords[_hhNumber];\r\n    }\r\n\r\n    function uploadRecord(string memory hhNumber, string memory cid) public {\r\n        require(isPatientRegistered[hhNumber], \"Patient not registered\");\r\n        fileRecords[hhNumber].push(cid);\r\n        emit RecordUploaded(hhNumber, cid);\r\n    }\r\n\r\n    function getFileRecords(string memory hhNumber) public view returns (string[] memory) {\r\n        require(isPatientRegistered[hhNumber], \"Patient not registered\");\r\n        return fileRecords[hhNumber];\r\n    }\r\n\r\n    function deleteFileRecord(string memory hhNumber, uint index) public {\r\n        require(isPatientRegistered[hhNumber], \"Patient not registered\");\r\n        require(index < fileRecords[hhNumber].length, \"Invalid index\");\r\n        // Move the last element into the place to delete and pop\r\n        fileRecords[hhNumber][index] = fileRecords[hhNumber][fileRecords[hhNumber].length - 1];\r\n        fileRecords[hhNumber].pop();\r\n    }\r\n\r\n    function getAllPatients() public view returns (Patient[] memory) {\r\n        Patient[] memory allPatients = new Patient[](registeredPatientCount);\r\n\r\n        for (uint i = 0; i < patientHhNumbers.length; i++) {\r\n            allPatients[i] = patients[patientHhNumbers[i]];\r\n        }\r\n\r\n        return allPatients;\r\n    }\r\n\r\n    function removePatient(string memory hhNumber) public {\r\n        require(isPatientRegistered[hhNumber], \"Patient not registered\");\r\n\r\n        // Delete the patient from the mapping\r\n        delete patients[hhNumber];\r\n        isPatientRegistered[hhNumber] = false;\r\n\r\n        // Find and remove the hhNumber from the patientHhNumbers array\r\n        bool found = false;\r\n        for (uint i = 0; i < patientHhNumbers.length; i++) {\r\n            if (keccak256(abi.encodePacked(patientHhNumbers[i])) == keccak256(abi.encodePacked(hhNumber))) {\r\n                patientHhNumbers[i] = patientHhNumbers[patientHhNumbers.length - 1]; // Replace with the last element\r\n                patientHhNumbers.pop(); // Remove the last element\r\n                found = true;\r\n                break;\r\n            }\r\n        }\r\n\r\n        require(found, \"Patient HH Number not found in the list\");\r\n\r\n        // Decrement the registered patient count\r\n        registeredPatientCount--;\r\n    }\r\n\r\n    function registerDoctor(string memory doctorHhNumber) public {\r\n        require(!isDoctorRegistered[doctorHhNumber], \"Doctor already registered\");\r\n        isDoctorRegistered[doctorHhNumber] = true;\r\n        // Optionally, store more doctor details here\r\n    }\r\n\r\n    function addPrescription(\r\n        string memory _hhNumber,\r\n        string memory _diagnosis,\r\n        string memory _prescription,\r\n        string memory _doctor\r\n    ) public {\r\n        require(isPatientRegistered[_hhNumber], \"Patient not registered\");\r\n\r\n        uint recordId = patientRecords[_hhNumber].length + 1;\r\n        string memory currentDate = \"\"; // Optionally pass date from frontend\r\n\r\n        // Combine diagnosis and prescription into description\r\n        string memory description = string(\r\n            abi.encodePacked(\"Diagnosis: \", _diagnosis, \"; Prescription: \", _prescription)\r\n        );\r\n\r\n        Record memory newRecord = Record({\r\n            id: recordId,\r\n            date: currentDate,\r\n            description: description,\r\n            doctor: _doctor\r\n        });\r\n\r\n        patientRecords[_hhNumber].push(newRecord);\r\n        emit RecordAdded(_hhNumber, recordId, currentDate, _doctor);\r\n    }\r\n}\r\n",
  "sourcePath": "C:\\Users\\UDIT NARAYANA K B\\Desktop\\ehr 1 proj\\Secure-Electronic-Health-Records\\src\\contracts\\PatientRegistration.sol",
  "compiler": {
    "name": "solc",
    "version": "0.8.19+commit.7dd6d404.Emscripten.clang"
  },
  "schemaVersion": "3.4.16",
  "updatedAt": "2025-05-03T11:14:48.740Z",
  "networkType": "ethereum",
  "devdoc": {
    "kind": "dev",
    "methods": {},
    "version": 1
  },
  "userdoc": {
    "kind": "user",
    "methods": {},
    "version": 1
  }
}